{
  "_format": "hh-sol-artifact-1",
  "contractName": "ElfNFT",
  "sourceName": "contracts/elf.sol",
  "abi": [
    {
      "inputs": [
        {
          "internalType": "string",
          "name": "_baseURI",
          "type": "string"
        },
        {
          "internalType": "string",
          "name": "_baseExtension",
          "type": "string"
        },
        {
          "internalType": "string",
          "name": "collectionURI",
          "type": "string"
        }
      ],
      "stateMutability": "nonpayable",
      "type": "constructor"
    },
    {
      "anonymous": false,
      "inputs": [
        {
          "indexed": true,
          "internalType": "address",
          "name": "owner",
          "type": "address"
        },
        {
          "indexed": true,
          "internalType": "address",
          "name": "approved",
          "type": "address"
        },
        {
          "indexed": true,
          "internalType": "uint256",
          "name": "tokenId",
          "type": "uint256"
        }
      ],
      "name": "Approval",
      "type": "event"
    },
    {
      "anonymous": false,
      "inputs": [
        {
          "indexed": true,
          "internalType": "address",
          "name": "owner",
          "type": "address"
        },
        {
          "indexed": true,
          "internalType": "address",
          "name": "operator",
          "type": "address"
        },
        {
          "indexed": false,
          "internalType": "bool",
          "name": "approved",
          "type": "bool"
        }
      ],
      "name": "ApprovalForAll",
      "type": "event"
    },
    {
      "anonymous": false,
      "inputs": [
        {
          "indexed": true,
          "internalType": "address",
          "name": "previousOwner",
          "type": "address"
        },
        {
          "indexed": true,
          "internalType": "address",
          "name": "newOwner",
          "type": "address"
        }
      ],
      "name": "OwnershipTransferred",
      "type": "event"
    },
    {
      "anonymous": false,
      "inputs": [
        {
          "indexed": true,
          "internalType": "address",
          "name": "from",
          "type": "address"
        },
        {
          "indexed": true,
          "internalType": "address",
          "name": "to",
          "type": "address"
        },
        {
          "indexed": true,
          "internalType": "uint256",
          "name": "tokenId",
          "type": "uint256"
        }
      ],
      "name": "Transfer",
      "type": "event"
    },
    {
      "inputs": [
        {
          "internalType": "address",
          "name": "to",
          "type": "address"
        },
        {
          "internalType": "uint256",
          "name": "tokenId",
          "type": "uint256"
        }
      ],
      "name": "approve",
      "outputs": [],
      "stateMutability": "nonpayable",
      "type": "function"
    },
    {
      "inputs": [
        {
          "internalType": "address",
          "name": "owner",
          "type": "address"
        }
      ],
      "name": "balanceOf",
      "outputs": [
        {
          "internalType": "uint256",
          "name": "",
          "type": "uint256"
        }
      ],
      "stateMutability": "view",
      "type": "function"
    },
    {
      "inputs": [],
      "name": "baseExtension",
      "outputs": [
        {
          "internalType": "string",
          "name": "",
          "type": "string"
        }
      ],
      "stateMutability": "view",
      "type": "function"
    },
    {
      "inputs": [],
      "name": "baseURI",
      "outputs": [
        {
          "internalType": "string",
          "name": "",
          "type": "string"
        }
      ],
      "stateMutability": "view",
      "type": "function"
    },
    {
      "inputs": [],
      "name": "contractURI",
      "outputs": [
        {
          "internalType": "string",
          "name": "",
          "type": "string"
        }
      ],
      "stateMutability": "view",
      "type": "function"
    },
    {
      "inputs": [],
      "name": "elfPrice",
      "outputs": [
        {
          "internalType": "uint256",
          "name": "",
          "type": "uint256"
        }
      ],
      "stateMutability": "view",
      "type": "function"
    },
    {
      "inputs": [
        {
          "internalType": "uint256",
          "name": "tokenId",
          "type": "uint256"
        }
      ],
      "name": "getApproved",
      "outputs": [
        {
          "internalType": "address",
          "name": "",
          "type": "address"
        }
      ],
      "stateMutability": "view",
      "type": "function"
    },
    {
      "inputs": [
        {
          "internalType": "address",
          "name": "owner",
          "type": "address"
        },
        {
          "internalType": "address",
          "name": "operator",
          "type": "address"
        }
      ],
      "name": "isApprovedForAll",
      "outputs": [
        {
          "internalType": "bool",
          "name": "",
          "type": "bool"
        }
      ],
      "stateMutability": "view",
      "type": "function"
    },
    {
      "inputs": [],
      "name": "maxSupplyElves",
      "outputs": [
        {
          "internalType": "uint256",
          "name": "",
          "type": "uint256"
        }
      ],
      "stateMutability": "view",
      "type": "function"
    },
    {
      "inputs": [],
      "name": "maxSupplyReindeer",
      "outputs": [
        {
          "internalType": "uint256",
          "name": "",
          "type": "uint256"
        }
      ],
      "stateMutability": "view",
      "type": "function"
    },
    {
      "inputs": [],
      "name": "maxSupplySanta",
      "outputs": [
        {
          "internalType": "uint256",
          "name": "",
          "type": "uint256"
        }
      ],
      "stateMutability": "view",
      "type": "function"
    },
    {
      "inputs": [
        {
          "internalType": "address",
          "name": "recipient",
          "type": "address"
        }
      ],
      "name": "mintNFT",
      "outputs": [
        {
          "internalType": "uint256",
          "name": "",
          "type": "uint256"
        }
      ],
      "stateMutability": "nonpayable",
      "type": "function"
    },
    {
      "inputs": [],
      "name": "mintReindeerWhitelist",
      "outputs": [
        {
          "internalType": "uint256",
          "name": "",
          "type": "uint256"
        }
      ],
      "stateMutability": "nonpayable",
      "type": "function"
    },
    {
      "inputs": [],
      "name": "mintSantaWhitelist",
      "outputs": [
        {
          "internalType": "uint256",
          "name": "",
          "type": "uint256"
        }
      ],
      "stateMutability": "nonpayable",
      "type": "function"
    },
    {
      "inputs": [],
      "name": "mintedElves",
      "outputs": [
        {
          "internalType": "uint256",
          "name": "",
          "type": "uint256"
        }
      ],
      "stateMutability": "view",
      "type": "function"
    },
    {
      "inputs": [],
      "name": "mintedReindeers",
      "outputs": [
        {
          "internalType": "uint256",
          "name": "",
          "type": "uint256"
        }
      ],
      "stateMutability": "view",
      "type": "function"
    },
    {
      "inputs": [],
      "name": "mintedSantas",
      "outputs": [
        {
          "internalType": "uint256",
          "name": "",
          "type": "uint256"
        }
      ],
      "stateMutability": "view",
      "type": "function"
    },
    {
      "inputs": [],
      "name": "name",
      "outputs": [
        {
          "internalType": "string",
          "name": "",
          "type": "string"
        }
      ],
      "stateMutability": "view",
      "type": "function"
    },
    {
      "inputs": [],
      "name": "owner",
      "outputs": [
        {
          "internalType": "address",
          "name": "",
          "type": "address"
        }
      ],
      "stateMutability": "view",
      "type": "function"
    },
    {
      "inputs": [
        {
          "internalType": "uint256",
          "name": "tokenId",
          "type": "uint256"
        }
      ],
      "name": "ownerOf",
      "outputs": [
        {
          "internalType": "address",
          "name": "",
          "type": "address"
        }
      ],
      "stateMutability": "view",
      "type": "function"
    },
    {
      "inputs": [],
      "name": "publicElfMint",
      "outputs": [
        {
          "internalType": "uint256",
          "name": "",
          "type": "uint256"
        }
      ],
      "stateMutability": "payable",
      "type": "function"
    },
    {
      "inputs": [],
      "name": "publicReindeerMint",
      "outputs": [
        {
          "internalType": "uint256",
          "name": "",
          "type": "uint256"
        }
      ],
      "stateMutability": "payable",
      "type": "function"
    },
    {
      "inputs": [],
      "name": "reindeerPrice",
      "outputs": [
        {
          "internalType": "uint256",
          "name": "",
          "type": "uint256"
        }
      ],
      "stateMutability": "view",
      "type": "function"
    },
    {
      "inputs": [
        {
          "internalType": "address",
          "name": "",
          "type": "address"
        }
      ],
      "name": "reindeerWhitelist",
      "outputs": [
        {
          "internalType": "bool",
          "name": "",
          "type": "bool"
        }
      ],
      "stateMutability": "view",
      "type": "function"
    },
    {
      "inputs": [
        {
          "internalType": "address[]",
          "name": "_addresses",
          "type": "address[]"
        }
      ],
      "name": "removeReindeerWhitelists",
      "outputs": [],
      "stateMutability": "nonpayable",
      "type": "function"
    },
    {
      "inputs": [
        {
          "internalType": "address[]",
          "name": "_addresses",
          "type": "address[]"
        }
      ],
      "name": "removeSantaWhitelists",
      "outputs": [],
      "stateMutability": "nonpayable",
      "type": "function"
    },
    {
      "inputs": [],
      "name": "renounceOwnership",
      "outputs": [],
      "stateMutability": "nonpayable",
      "type": "function"
    },
    {
      "inputs": [
        {
          "internalType": "address",
          "name": "from",
          "type": "address"
        },
        {
          "internalType": "address",
          "name": "to",
          "type": "address"
        },
        {
          "internalType": "uint256",
          "name": "tokenId",
          "type": "uint256"
        }
      ],
      "name": "safeTransferFrom",
      "outputs": [],
      "stateMutability": "nonpayable",
      "type": "function"
    },
    {
      "inputs": [
        {
          "internalType": "address",
          "name": "from",
          "type": "address"
        },
        {
          "internalType": "address",
          "name": "to",
          "type": "address"
        },
        {
          "internalType": "uint256",
          "name": "tokenId",
          "type": "uint256"
        },
        {
          "internalType": "bytes",
          "name": "_data",
          "type": "bytes"
        }
      ],
      "name": "safeTransferFrom",
      "outputs": [],
      "stateMutability": "nonpayable",
      "type": "function"
    },
    {
      "inputs": [
        {
          "internalType": "address",
          "name": "",
          "type": "address"
        }
      ],
      "name": "santaWhitelist",
      "outputs": [
        {
          "internalType": "bool",
          "name": "",
          "type": "bool"
        }
      ],
      "stateMutability": "view",
      "type": "function"
    },
    {
      "inputs": [
        {
          "internalType": "address",
          "name": "operator",
          "type": "address"
        },
        {
          "internalType": "bool",
          "name": "approved",
          "type": "bool"
        }
      ],
      "name": "setApprovalForAll",
      "outputs": [],
      "stateMutability": "nonpayable",
      "type": "function"
    },
    {
      "inputs": [
        {
          "internalType": "string",
          "name": "_baseExtension",
          "type": "string"
        }
      ],
      "name": "setBaseExtension",
      "outputs": [],
      "stateMutability": "nonpayable",
      "type": "function"
    },
    {
      "inputs": [
        {
          "internalType": "string",
          "name": "_baseURI",
          "type": "string"
        }
      ],
      "name": "setBaseURI",
      "outputs": [],
      "stateMutability": "nonpayable",
      "type": "function"
    },
    {
      "inputs": [
        {
          "internalType": "uint256",
          "name": "_elfPrice",
          "type": "uint256"
        },
        {
          "internalType": "uint256",
          "name": "_reindeerPrice",
          "type": "uint256"
        }
      ],
      "name": "setPrice",
      "outputs": [],
      "stateMutability": "nonpayable",
      "type": "function"
    },
    {
      "inputs": [
        {
          "internalType": "address[]",
          "name": "_addresses",
          "type": "address[]"
        }
      ],
      "name": "setReindeerWhitelist",
      "outputs": [],
      "stateMutability": "nonpayable",
      "type": "function"
    },
    {
      "inputs": [
        {
          "internalType": "address[]",
          "name": "_addresses",
          "type": "address[]"
        }
      ],
      "name": "setSantaWhitelist",
      "outputs": [],
      "stateMutability": "nonpayable",
      "type": "function"
    },
    {
      "inputs": [
        {
          "internalType": "bytes4",
          "name": "interfaceId",
          "type": "bytes4"
        }
      ],
      "name": "supportsInterface",
      "outputs": [
        {
          "internalType": "bool",
          "name": "",
          "type": "bool"
        }
      ],
      "stateMutability": "view",
      "type": "function"
    },
    {
      "inputs": [],
      "name": "symbol",
      "outputs": [
        {
          "internalType": "string",
          "name": "",
          "type": "string"
        }
      ],
      "stateMutability": "view",
      "type": "function"
    },
    {
      "inputs": [
        {
          "internalType": "uint256",
          "name": "tokenId",
          "type": "uint256"
        }
      ],
      "name": "tokenURI",
      "outputs": [
        {
          "internalType": "string",
          "name": "",
          "type": "string"
        }
      ],
      "stateMutability": "view",
      "type": "function"
    },
    {
      "inputs": [
        {
          "internalType": "address",
          "name": "from",
          "type": "address"
        },
        {
          "internalType": "address",
          "name": "to",
          "type": "address"
        },
        {
          "internalType": "uint256",
          "name": "tokenId",
          "type": "uint256"
        }
      ],
      "name": "transferFrom",
      "outputs": [],
      "stateMutability": "nonpayable",
      "type": "function"
    },
    {
      "inputs": [
        {
          "internalType": "address",
          "name": "newOwner",
          "type": "address"
        }
      ],
      "name": "transferOwnership",
      "outputs": [],
      "stateMutability": "nonpayable",
      "type": "function"
    },
    {
      "inputs": [
        {
          "internalType": "address payable",
          "name": "_to",
          "type": "address"
        }
      ],
      "name": "withdraw",
      "outputs": [],
      "stateMutability": "nonpayable",
      "type": "function"
    }
  ],
  "bytecode": "0x60806040526040518060400160405280600581526020017f2e6a736f6e000000000000000000000000000000000000000000000000000000815250600b908051906020019062000051929190620004c0565b506005600c556000600d556102ee600e556000600f55610fa0601055600060115566b1a2bc2ec5000060145567016345785d8a00006015553480156200009657600080fd5b5060405162004d4c38038062004d4c8339818101604052810190620000bc9190620005e2565b6040518060400160405280600a81526020017f456c6644414f204e4654000000000000000000000000000000000000000000008152506040518060400160405280600681526020017f454c4644414f0000000000000000000000000000000000000000000000000000815250816000908051906020019062000140929190620004c0565b50806001908051906020019062000159929190620004c0565b5050506200017c62000170620001b860201b60201c565b620001c060201b60201c565b6200018d816200028660201b60201c565b6200019e836200033160201b60201c565b620001af82620003eb60201b60201c565b50505062000829565b600033905090565b6000600760009054906101000a900473ffffffffffffffffffffffffffffffffffffffff16905081600760006101000a81548173ffffffffffffffffffffffffffffffffffffffff021916908373ffffffffffffffffffffffffffffffffffffffff1602179055508173ffffffffffffffffffffffffffffffffffffffff168173ffffffffffffffffffffffffffffffffffffffff167f8be0079c531659141344cd1fd0a4f28419497f9722a3daafe3b4186f6b6457e060405160405180910390a35050565b62000296620001b860201b60201c565b73ffffffffffffffffffffffffffffffffffffffff16620002bc6200049660201b60201c565b73ffffffffffffffffffffffffffffffffffffffff161462000315576040517f08c379a00000000000000000000000000000000000000000000000000000000081526004016200030c90620006c5565b60405180910390fd5b80600990805190602001906200032d929190620004c0565b5050565b62000341620001b860201b60201c565b73ffffffffffffffffffffffffffffffffffffffff16620003676200049660201b60201c565b73ffffffffffffffffffffffffffffffffffffffff1614620003c0576040517f08c379a0000000000000000000000000000000000000000000000000000000008152600401620003b790620006c5565b60405180910390fd5b6000815111620003cf57600080fd5b80600a9080519060200190620003e7929190620004c0565b5050565b620003fb620001b860201b60201c565b73ffffffffffffffffffffffffffffffffffffffff16620004216200049660201b60201c565b73ffffffffffffffffffffffffffffffffffffffff16146200047a576040517f08c379a00000000000000000000000000000000000000000000000000000000081526004016200047190620006c5565b60405180910390fd5b80600b908051906020019062000492929190620004c0565b5050565b6000600760009054906101000a900473ffffffffffffffffffffffffffffffffffffffff16905090565b828054620004ce9062000795565b90600052602060002090601f016020900481019282620004f257600085556200053e565b82601f106200050d57805160ff19168380011785556200053e565b828001600101855582156200053e579182015b828111156200053d57825182559160200191906001019062000520565b5b5090506200054d919062000551565b5090565b5b808211156200056c57600081600090555060010162000552565b5090565b60006200058762000581846200071b565b620006e7565b905082815260208101848484011115620005a057600080fd5b620005ad8482856200075f565b509392505050565b600082601f830112620005c757600080fd5b8151620005d984826020860162000570565b91505092915050565b600080600060608486031215620005f857600080fd5b600084015167ffffffffffffffff8111156200061357600080fd5b6200062186828701620005b5565b935050602084015167ffffffffffffffff8111156200063f57600080fd5b6200064d86828701620005b5565b925050604084015167ffffffffffffffff8111156200066b57600080fd5b6200067986828701620005b5565b9150509250925092565b6000620006926020836200074e565b91507f4f776e61626c653a2063616c6c6572206973206e6f7420746865206f776e65726000830152602082019050919050565b60006020820190508181036000830152620006e08162000683565b9050919050565b6000604051905081810181811067ffffffffffffffff82111715620007115762000710620007fa565b5b8060405250919050565b600067ffffffffffffffff821115620007395762000738620007fa565b5b601f19601f8301169050602081019050919050565b600082825260208201905092915050565b60005b838110156200077f57808201518184015260208101905062000762565b838111156200078f576000848401525b50505050565b60006002820490506001821680620007ae57607f821691505b60208210811415620007c557620007c4620007cb565b5b50919050565b7f4e487b7100000000000000000000000000000000000000000000000000000000600052602260045260246000fd5b7f4e487b7100000000000000000000000000000000000000000000000000000000600052604160045260246000fd5b61451380620008396000396000f3fe6080604052600436106102515760003560e01c806370a0823111610139578063bddc3083116100b6578063e8a3d4851161007a578063e8a3d485146108bb578063e985e9c5146108e6578063ea016aa314610923578063eb21a7ee1461094c578063f2fde38b1461096a578063f7d975771461099357610251565b8063bddc3083146107d6578063c668286214610801578063c82dec471461082c578063c87b56dd14610855578063da3ef23f1461089257610251565b806395d89b41116100fd57806395d89b4114610703578063a22cb4651461072e578063aa55c86f14610757578063b06e3d2d14610782578063b88d4fde146107ad57610251565b806370a082311461062e578063715018a61461066b5780637eabf1321461068257806388a49e04146106ad5780638da5cb5b146106d857610251565b806342842e0e116101d257806355f804b31161019657806355f804b31461051e57806358eb6d60146105475780635b3099ce146105725780635fe132b71461059d5780636352211e146105c65780636c0360eb1461060357610251565b806342842e0e146104395780634673615f1461046257806351cff8d91461048d57806352f1313c146104b657806354ba0f27146104e157610251565b80631a23cfe2116102195780631a23cfe21461034d57806322d2f5211461037857806323b872dd146103b55780632a8b9553146103de578063353e61ec1461041b57610251565b806301ffc9a71461025657806306fdde0314610293578063081812fc146102be578063095ea7b3146102fb578063130eb51d14610324575b600080fd5b34801561026257600080fd5b5061027d6004803603810190610278919061331a565b6109bc565b60405161028a9190613d56565b60405180910390f35b34801561029f57600080fd5b506102a8610a9e565b6040516102b59190613d71565b60405180910390f35b3480156102ca57600080fd5b506102e560048036038101906102e091906133ad565b610b30565b6040516102f29190613cef565b60405180910390f35b34801561030757600080fd5b50610322600480360381019061031d919061329d565b610bb5565b005b34801561033057600080fd5b5061034b600480360381019061034691906132d9565b610ccd565b005b34801561035957600080fd5b50610362610e04565b60405161036f9190614033565b60405180910390f35b34801561038457600080fd5b5061039f600480360381019061039a9190613109565b610e0a565b6040516103ac9190613d56565b60405180910390f35b3480156103c157600080fd5b506103dc60048036038101906103d79190613197565b610e2a565b005b3480156103ea57600080fd5b5061040560048036038101906104009190613109565b610e8a565b6040516104129190613d56565b60405180910390f35b610423610eaa565b6040516104309190614033565b60405180910390f35b34801561044557600080fd5b50610460600480360381019061045b9190613197565b610f2d565b005b34801561046e57600080fd5b50610477610f4d565b6040516104849190614033565b60405180910390f35b34801561049957600080fd5b506104b460048036038101906104af9190613132565b610f53565b005b3480156104c257600080fd5b506104cb611085565b6040516104d89190614033565b60405180910390f35b3480156104ed57600080fd5b5061050860048036038101906105039190613109565b61108b565b6040516105159190614033565b60405180910390f35b34801561052a57600080fd5b506105456004803603810190610540919061336c565b611134565b005b34801561055357600080fd5b5061055c6111d8565b6040516105699190614033565b60405180910390f35b34801561057e57600080fd5b506105876111de565b6040516105949190614033565b60405180910390f35b3480156105a957600080fd5b506105c460048036038101906105bf91906132d9565b6111e4565b005b3480156105d257600080fd5b506105ed60048036038101906105e891906133ad565b6113cb565b6040516105fa9190613cef565b60405180910390f35b34801561060f57600080fd5b5061061861147d565b6040516106259190613d71565b60405180910390f35b34801561063a57600080fd5b5061065560048036038101906106509190613109565b61150b565b6040516106629190614033565b60405180910390f35b34801561067757600080fd5b506106806115c3565b005b34801561068e57600080fd5b5061069761164b565b6040516106a49190614033565b60405180910390f35b3480156106b957600080fd5b506106c2611651565b6040516106cf9190614033565b60405180910390f35b3480156106e457600080fd5b506106ed611657565b6040516106fa9190613cef565b60405180910390f35b34801561070f57600080fd5b50610718611681565b6040516107259190613d71565b60405180910390f35b34801561073a57600080fd5b5061075560048036038101906107509190613261565b611713565b005b34801561076357600080fd5b5061076c611729565b6040516107799190614033565b60405180910390f35b34801561078e57600080fd5b5061079761172f565b6040516107a49190614033565b60405180910390f35b3480156107b957600080fd5b506107d460048036038101906107cf91906131e6565b611851565b005b3480156107e257600080fd5b506107eb6118b3565b6040516107f89190614033565b60405180910390f35b34801561080d57600080fd5b506108166119d5565b6040516108239190613d71565b60405180910390f35b34801561083857600080fd5b50610853600480360381019061084e91906132d9565b611a63565b005b34801561086157600080fd5b5061087c600480360381019061087791906133ad565b611b9a565b6040516108899190613d71565b60405180910390f35b34801561089e57600080fd5b506108b960048036038101906108b4919061336c565b611c19565b005b3480156108c757600080fd5b506108d0611caf565b6040516108dd9190613d71565b60405180910390f35b3480156108f257600080fd5b5061090d6004803603810190610908919061315b565b611d41565b60405161091a9190613d56565b60405180910390f35b34801561092f57600080fd5b5061094a600480360381019061094591906132d9565b611dd5565b005b610954611fcb565b6040516109619190614033565b60405180910390f35b34801561097657600080fd5b50610991600480360381019061098c9190613109565b61204e565b005b34801561099f57600080fd5b506109ba60048036038101906109b591906133d6565b612146565b005b60007f80ac58cd000000000000000000000000000000000000000000000000000000007bffffffffffffffffffffffffffffffffffffffffffffffffffffffff1916827bffffffffffffffffffffffffffffffffffffffffffffffffffffffff19161480610a8757507f5b5e139f000000000000000000000000000000000000000000000000000000007bffffffffffffffffffffffffffffffffffffffffffffffffffffffff1916827bffffffffffffffffffffffffffffffffffffffffffffffffffffffff1916145b80610a975750610a96826121d4565b5b9050919050565b606060008054610aad906142f1565b80601f0160208091040260200160405190810160405280929190818152602001828054610ad9906142f1565b8015610b265780601f10610afb57610100808354040283529160200191610b26565b820191906000526020600020905b815481529060010190602001808311610b0957829003601f168201915b5050505050905090565b6000610b3b8261223e565b610b7a576040517f08c379a0000000000000000000000000000000000000000000000000000000008152600401610b7190613f53565b60405180910390fd5b6004600083815260200190815260200160002060009054906101000a900473ffffffffffffffffffffffffffffffffffffffff169050919050565b6000610bc0826113cb565b90508073ffffffffffffffffffffffffffffffffffffffff168373ffffffffffffffffffffffffffffffffffffffff161415610c31576040517f08c379a0000000000000000000000000000000000000000000000000000000008152600401610c2890613fd3565b60405180910390fd5b8073ffffffffffffffffffffffffffffffffffffffff16610c506122aa565b73ffffffffffffffffffffffffffffffffffffffff161480610c7f5750610c7e81610c796122aa565b611d41565b5b610cbe576040517f08c379a0000000000000000000000000000000000000000000000000000000008152600401610cb590613eb3565b60405180910390fd5b610cc883836122b2565b505050565b610cd56122aa565b73ffffffffffffffffffffffffffffffffffffffff16610cf3611657565b73ffffffffffffffffffffffffffffffffffffffff1614610d49576040517f08c379a0000000000000000000000000000000000000000000000000000000008152600401610d4090613f73565b60405180910390fd5b60005b8151811015610e0057600060126000848481518110610d94577f4e487b7100000000000000000000000000000000000000000000000000000000600052603260045260246000fd5b602002602001015173ffffffffffffffffffffffffffffffffffffffff1673ffffffffffffffffffffffffffffffffffffffff16815260200190815260200160002060006101000a81548160ff0219169083151502179055508080610df890614323565b915050610d4c565b5050565b60155481565b60126020528060005260406000206000915054906101000a900460ff1681565b610e3b610e356122aa565b8261236b565b610e7a576040517f08c379a0000000000000000000000000000000000000000000000000000000008152600401610e7190614013565b60405180910390fd5b610e85838383612449565b505050565b60136020528060005260406000206000915054906101000a900460ff1681565b6000601454341015610ef1576040517f08c379a0000000000000000000000000000000000000000000000000000000008152600401610ee890613d93565b60405180910390fd5b60105460115410610f0157600080fd5b60116000815480929190610f1490614323565b91905055506000610f243361108b565b90508091505090565b610f4883838360405180602001604052806000815250611851565b505050565b600d5481565b610f5b6122aa565b73ffffffffffffffffffffffffffffffffffffffff16610f79611657565b73ffffffffffffffffffffffffffffffffffffffff1614610fcf576040517f08c379a0000000000000000000000000000000000000000000000000000000008152600401610fc690613f73565b60405180910390fd5b600047905060008273ffffffffffffffffffffffffffffffffffffffff1682604051610ffa90613cda565b60006040518083038185875af1925050503d8060008114611037576040519150601f19603f3d011682016040523d82523d6000602084013e61103c565b606091505b5050905080611080576040517f08c379a000000000000000000000000000000000000000000000000000000000815260040161107790613e33565b60405180910390fd5b505050565b600e5481565b60006110956122aa565b73ffffffffffffffffffffffffffffffffffffffff166110b3611657565b73ffffffffffffffffffffffffffffffffffffffff1614611109576040517f08c379a000000000000000000000000000000000000000000000000000000000815260040161110090613f73565b60405180910390fd5b61111360086126a5565b600061111f60086126bb565b905061112b83826126c9565b80915050919050565b61113c6122aa565b73ffffffffffffffffffffffffffffffffffffffff1661115a611657565b73ffffffffffffffffffffffffffffffffffffffff16146111b0576040517f08c379a00000000000000000000000000000000000000000000000000000000081526004016111a790613f73565b60405180910390fd5b60008151116111be57600080fd5b80600a90805190602001906111d4929190612e82565b5050565b60115481565b600f5481565b6111ec6122aa565b73ffffffffffffffffffffffffffffffffffffffff1661120a611657565b73ffffffffffffffffffffffffffffffffffffffff1614611260576040517f08c379a000000000000000000000000000000000000000000000000000000000815260040161125790613f73565b60405180910390fd5b60005b81518110156113c757600073ffffffffffffffffffffffffffffffffffffffff168282815181106112bd577f4e487b7100000000000000000000000000000000000000000000000000000000600052603260045260246000fd5b602002602001015173ffffffffffffffffffffffffffffffffffffffff16141561131c576040517f08c379a000000000000000000000000000000000000000000000000000000000815260040161131390613e13565b60405180910390fd5b60016012600084848151811061135b577f4e487b7100000000000000000000000000000000000000000000000000000000600052603260045260246000fd5b602002602001015173ffffffffffffffffffffffffffffffffffffffff1673ffffffffffffffffffffffffffffffffffffffff16815260200190815260200160002060006101000a81548160ff02191690831515021790555080806113bf90614323565b915050611263565b5050565b6000806002600084815260200190815260200160002060009054906101000a900473ffffffffffffffffffffffffffffffffffffffff169050600073ffffffffffffffffffffffffffffffffffffffff168173ffffffffffffffffffffffffffffffffffffffff161415611474576040517f08c379a000000000000000000000000000000000000000000000000000000000815260040161146b90613ef3565b60405180910390fd5b80915050919050565b600a805461148a906142f1565b80601f01602080910402602001604051908101604052809291908181526020018280546114b6906142f1565b80156115035780601f106114d857610100808354040283529160200191611503565b820191906000526020600020905b8154815290600101906020018083116114e657829003601f168201915b505050505081565b60008073ffffffffffffffffffffffffffffffffffffffff168273ffffffffffffffffffffffffffffffffffffffff16141561157c576040517f08c379a000000000000000000000000000000000000000000000000000000000815260040161157390613ed3565b60405180910390fd5b600360008373ffffffffffffffffffffffffffffffffffffffff1673ffffffffffffffffffffffffffffffffffffffff168152602001908152602001600020549050919050565b6115cb6122aa565b73ffffffffffffffffffffffffffffffffffffffff166115e9611657565b73ffffffffffffffffffffffffffffffffffffffff161461163f576040517f08c379a000000000000000000000000000000000000000000000000000000000815260040161163690613f73565b60405180910390fd5b6116496000612897565b565b60145481565b600c5481565b6000600760009054906101000a900473ffffffffffffffffffffffffffffffffffffffff16905090565b606060018054611690906142f1565b80601f01602080910402602001604051908101604052809291908181526020018280546116bc906142f1565b80156117095780601f106116de57610100808354040283529160200191611709565b820191906000526020600020905b8154815290600101906020018083116116ec57829003601f168201915b5050505050905090565b61172561171e6122aa565b838361295d565b5050565b60105481565b6000601260003373ffffffffffffffffffffffffffffffffffffffff1673ffffffffffffffffffffffffffffffffffffffff16815260200190815260200160002060009054906101000a900460ff166117bd576040517f08c379a00000000000000000000000000000000000000000000000000000000081526004016117b490613ff3565b60405180910390fd5b600e54600f54106117cd57600080fd5b600f60008154809291906117e090614323565b91905055506000601260003373ffffffffffffffffffffffffffffffffffffffff1673ffffffffffffffffffffffffffffffffffffffff16815260200190815260200160002060006101000a81548160ff02191690831515021790555060006118483361108b565b90508091505090565b61186261185c6122aa565b8361236b565b6118a1576040517f08c379a000000000000000000000000000000000000000000000000000000000815260040161189890614013565b60405180910390fd5b6118ad84848484612aca565b50505050565b6000601360003373ffffffffffffffffffffffffffffffffffffffff1673ffffffffffffffffffffffffffffffffffffffff16815260200190815260200160002060009054906101000a900460ff16611941576040517f08c379a000000000000000000000000000000000000000000000000000000000815260040161193890613f93565b60405180910390fd5b600c54600d541061195157600080fd5b600d600081548092919061196490614323565b91905055506000601360003373ffffffffffffffffffffffffffffffffffffffff1673ffffffffffffffffffffffffffffffffffffffff16815260200190815260200160002060006101000a81548160ff02191690831515021790555060006119cc3361108b565b90508091505090565b600b80546119e2906142f1565b80601f0160208091040260200160405190810160405280929190818152602001828054611a0e906142f1565b8015611a5b5780601f10611a3057610100808354040283529160200191611a5b565b820191906000526020600020905b815481529060010190602001808311611a3e57829003601f168201915b505050505081565b611a6b6122aa565b73ffffffffffffffffffffffffffffffffffffffff16611a89611657565b73ffffffffffffffffffffffffffffffffffffffff1614611adf576040517f08c379a0000000000000000000000000000000000000000000000000000000008152600401611ad690613f73565b60405180910390fd5b60005b8151811015611b9657600060136000848481518110611b2a577f4e487b7100000000000000000000000000000000000000000000000000000000600052603260045260246000fd5b602002602001015173ffffffffffffffffffffffffffffffffffffffff1673ffffffffffffffffffffffffffffffffffffffff16815260200190815260200160002060006101000a81548160ff0219169083151502179055508080611b8e90614323565b915050611ae2565b5050565b6060611ba58261223e565b611be4576040517f08c379a0000000000000000000000000000000000000000000000000000000008152600401611bdb90613f33565b60405180910390fd5b600a611bef83612b26565b600b604051602001611c0393929190613ca9565b6040516020818303038152906040529050919050565b611c216122aa565b73ffffffffffffffffffffffffffffffffffffffff16611c3f611657565b73ffffffffffffffffffffffffffffffffffffffff1614611c95576040517f08c379a0000000000000000000000000000000000000000000000000000000008152600401611c8c90613f73565b60405180910390fd5b80600b9080519060200190611cab929190612e82565b5050565b606060098054611cbe906142f1565b80601f0160208091040260200160405190810160405280929190818152602001828054611cea906142f1565b8015611d375780601f10611d0c57610100808354040283529160200191611d37565b820191906000526020600020905b815481529060010190602001808311611d1a57829003601f168201915b5050505050905090565b6000600560008473ffffffffffffffffffffffffffffffffffffffff1673ffffffffffffffffffffffffffffffffffffffff16815260200190815260200160002060008373ffffffffffffffffffffffffffffffffffffffff1673ffffffffffffffffffffffffffffffffffffffff16815260200190815260200160002060009054906101000a900460ff16905092915050565b611ddd6122aa565b73ffffffffffffffffffffffffffffffffffffffff16611dfb611657565b73ffffffffffffffffffffffffffffffffffffffff1614611e51576040517f08c379a0000000000000000000000000000000000000000000000000000000008152600401611e4890613f73565b60405180910390fd5b600581511115611e6057600080fd5b60005b8151811015611fc757600073ffffffffffffffffffffffffffffffffffffffff16828281518110611ebd577f4e487b7100000000000000000000000000000000000000000000000000000000600052603260045260246000fd5b602002602001015173ffffffffffffffffffffffffffffffffffffffff161415611f1c576040517f08c379a0000000000000000000000000000000000000000000000000000000008152600401611f1390613e13565b60405180910390fd5b600160136000848481518110611f5b577f4e487b7100000000000000000000000000000000000000000000000000000000600052603260045260246000fd5b602002602001015173ffffffffffffffffffffffffffffffffffffffff1673ffffffffffffffffffffffffffffffffffffffff16815260200190815260200160002060006101000a81548160ff0219169083151502179055508080611fbf90614323565b915050611e63565b5050565b6000601454341015612012576040517f08c379a000000000000000000000000000000000000000000000000000000000815260040161200990613d93565b60405180910390fd5b600e54600f541061202257600080fd5b600f600081548092919061203590614323565b919050555060006120453361108b565b90508091505090565b6120566122aa565b73ffffffffffffffffffffffffffffffffffffffff16612074611657565b73ffffffffffffffffffffffffffffffffffffffff16146120ca576040517f08c379a00000000000000000000000000000000000000000000000000000000081526004016120c190613f73565b60405180910390fd5b600073ffffffffffffffffffffffffffffffffffffffff168173ffffffffffffffffffffffffffffffffffffffff16141561213a576040517f08c379a000000000000000000000000000000000000000000000000000000000815260040161213190613dd3565b60405180910390fd5b61214381612897565b50565b61214e6122aa565b73ffffffffffffffffffffffffffffffffffffffff1661216c611657565b73ffffffffffffffffffffffffffffffffffffffff16146121c2576040517f08c379a00000000000000000000000000000000000000000000000000000000081526004016121b990613f73565b60405180910390fd5b81601481905550806015819055505050565b60007f01ffc9a7000000000000000000000000000000000000000000000000000000007bffffffffffffffffffffffffffffffffffffffffffffffffffffffff1916827bffffffffffffffffffffffffffffffffffffffffffffffffffffffff1916149050919050565b60008073ffffffffffffffffffffffffffffffffffffffff166002600084815260200190815260200160002060009054906101000a900473ffffffffffffffffffffffffffffffffffffffff1673ffffffffffffffffffffffffffffffffffffffff1614159050919050565b600033905090565b816004600083815260200190815260200160002060006101000a81548173ffffffffffffffffffffffffffffffffffffffff021916908373ffffffffffffffffffffffffffffffffffffffff160217905550808273ffffffffffffffffffffffffffffffffffffffff16612325836113cb565b73ffffffffffffffffffffffffffffffffffffffff167f8c5be1e5ebec7d5bd14f71427d1e84f3dd0314c0f7b2291e5b200ac8c7c3b92560405160405180910390a45050565b60006123768261223e565b6123b5576040517f08c379a00000000000000000000000000000000000000000000000000000000081526004016123ac90613e93565b60405180910390fd5b60006123c0836113cb565b90508073ffffffffffffffffffffffffffffffffffffffff168473ffffffffffffffffffffffffffffffffffffffff16148061242f57508373ffffffffffffffffffffffffffffffffffffffff1661241784610b30565b73ffffffffffffffffffffffffffffffffffffffff16145b80612440575061243f8185611d41565b5b91505092915050565b8273ffffffffffffffffffffffffffffffffffffffff16612469826113cb565b73ffffffffffffffffffffffffffffffffffffffff16146124bf576040517f08c379a00000000000000000000000000000000000000000000000000000000081526004016124b690613fb3565b60405180910390fd5b600073ffffffffffffffffffffffffffffffffffffffff168273ffffffffffffffffffffffffffffffffffffffff16141561252f576040517f08c379a000000000000000000000000000000000000000000000000000000000815260040161252690613e53565b60405180910390fd5b61253a838383612cd3565b6125456000826122b2565b6001600360008573ffffffffffffffffffffffffffffffffffffffff1673ffffffffffffffffffffffffffffffffffffffff168152602001908152602001600020600082825461259591906141f5565b925050819055506001600360008473ffffffffffffffffffffffffffffffffffffffff1673ffffffffffffffffffffffffffffffffffffffff16815260200190815260200160002060008282546125ec919061416e565b92505081905550816002600083815260200190815260200160002060006101000a81548173ffffffffffffffffffffffffffffffffffffffff021916908373ffffffffffffffffffffffffffffffffffffffff160217905550808273ffffffffffffffffffffffffffffffffffffffff168473ffffffffffffffffffffffffffffffffffffffff167fddf252ad1be2c89b69c2b068fc378daa952ba7f163c4a11628f55a4df523b3ef60405160405180910390a4505050565b6001816000016000828254019250508190555050565b600081600001549050919050565b600073ffffffffffffffffffffffffffffffffffffffff168273ffffffffffffffffffffffffffffffffffffffff161415612739576040517f08c379a000000000000000000000000000000000000000000000000000000000815260040161273090613f13565b60405180910390fd5b6127428161223e565b15612782576040517f08c379a000000000000000000000000000000000000000000000000000000000815260040161277990613df3565b60405180910390fd5b61278e60008383612cd3565b6001600360008473ffffffffffffffffffffffffffffffffffffffff1673ffffffffffffffffffffffffffffffffffffffff16815260200190815260200160002060008282546127de919061416e565b92505081905550816002600083815260200190815260200160002060006101000a81548173ffffffffffffffffffffffffffffffffffffffff021916908373ffffffffffffffffffffffffffffffffffffffff160217905550808273ffffffffffffffffffffffffffffffffffffffff16600073ffffffffffffffffffffffffffffffffffffffff167fddf252ad1be2c89b69c2b068fc378daa952ba7f163c4a11628f55a4df523b3ef60405160405180910390a45050565b6000600760009054906101000a900473ffffffffffffffffffffffffffffffffffffffff16905081600760006101000a81548173ffffffffffffffffffffffffffffffffffffffff021916908373ffffffffffffffffffffffffffffffffffffffff1602179055508173ffffffffffffffffffffffffffffffffffffffff168173ffffffffffffffffffffffffffffffffffffffff167f8be0079c531659141344cd1fd0a4f28419497f9722a3daafe3b4186f6b6457e060405160405180910390a35050565b8173ffffffffffffffffffffffffffffffffffffffff168373ffffffffffffffffffffffffffffffffffffffff1614156129cc576040517f08c379a00000000000000000000000000000000000000000000000000000000081526004016129c390613e73565b60405180910390fd5b80600560008573ffffffffffffffffffffffffffffffffffffffff1673ffffffffffffffffffffffffffffffffffffffff16815260200190815260200160002060008473ffffffffffffffffffffffffffffffffffffffff1673ffffffffffffffffffffffffffffffffffffffff16815260200190815260200160002060006101000a81548160ff0219169083151502179055508173ffffffffffffffffffffffffffffffffffffffff168373ffffffffffffffffffffffffffffffffffffffff167f17307eab39ab6107e8899845ad3d59bd9653f200f220920489ca2b5937696c3183604051612abd9190613d56565b60405180910390a3505050565b612ad5848484612449565b612ae184848484612cd8565b612b20576040517f08c379a0000000000000000000000000000000000000000000000000000000008152600401612b1790613db3565b60405180910390fd5b50505050565b60606000821415612b6e576040518060400160405280600181526020017f30000000000000000000000000000000000000000000000000000000000000008152509050612cce565b600082905060005b60008214612ba0578080612b8990614323565b915050600a82612b9991906141c4565b9150612b76565b60008167ffffffffffffffff811115612be2577f4e487b7100000000000000000000000000000000000000000000000000000000600052604160045260246000fd5b6040519080825280601f01601f191660200182016040528015612c145781602001600182028036833780820191505090505b5090505b60008514612cc757600182612c2d91906141f5565b9150600a85612c3c919061436c565b6030612c48919061416e565b60f81b818381518110612c84577f4e487b7100000000000000000000000000000000000000000000000000000000600052603260045260246000fd5b60200101907effffffffffffffffffffffffffffffffffffffffffffffffffffffffffffff1916908160001a905350600a85612cc091906141c4565b9450612c18565b8093505050505b919050565b505050565b6000612cf98473ffffffffffffffffffffffffffffffffffffffff16612e6f565b15612e62578373ffffffffffffffffffffffffffffffffffffffff1663150b7a02612d226122aa565b8786866040518563ffffffff1660e01b8152600401612d449493929190613d0a565b602060405180830381600087803b158015612d5e57600080fd5b505af1925050508015612d8f57506040513d601f19601f82011682018060405250810190612d8c9190613343565b60015b612e12573d8060008114612dbf576040519150601f19603f3d011682016040523d82523d6000602084013e612dc4565b606091505b50600081511415612e0a576040517f08c379a0000000000000000000000000000000000000000000000000000000008152600401612e0190613db3565b60405180910390fd5b805181602001fd5b63150b7a0260e01b7bffffffffffffffffffffffffffffffffffffffffffffffffffffffff1916817bffffffffffffffffffffffffffffffffffffffffffffffffffffffff191614915050612e67565b600190505b949350505050565b600080823b905060008111915050919050565b828054612e8e906142f1565b90600052602060002090601f016020900481019282612eb05760008555612ef7565b82601f10612ec957805160ff1916838001178555612ef7565b82800160010185558215612ef7579182015b82811115612ef6578251825591602001919060010190612edb565b5b509050612f049190612f08565b5090565b5b80821115612f21576000816000905550600101612f09565b5090565b6000612f38612f338461407f565b61404e565b90508083825260208201905082856020860282011115612f5757600080fd5b60005b85811015612f875781612f6d888261300d565b845260208401935060208301925050600181019050612f5a565b5050509392505050565b6000612fa4612f9f846140ab565b61404e565b905082815260208101848484011115612fbc57600080fd5b612fc78482856142af565b509392505050565b6000612fe2612fdd846140db565b61404e565b905082815260208101848484011115612ffa57600080fd5b6130058482856142af565b509392505050565b60008135905061301c8161446a565b92915050565b60008135905061303181614481565b92915050565b600082601f83011261304857600080fd5b8135613058848260208601612f25565b91505092915050565b60008135905061307081614498565b92915050565b600081359050613085816144af565b92915050565b60008151905061309a816144af565b92915050565b600082601f8301126130b157600080fd5b81356130c1848260208601612f91565b91505092915050565b600082601f8301126130db57600080fd5b81356130eb848260208601612fcf565b91505092915050565b600081359050613103816144c6565b92915050565b60006020828403121561311b57600080fd5b60006131298482850161300d565b91505092915050565b60006020828403121561314457600080fd5b600061315284828501613022565b91505092915050565b6000806040838503121561316e57600080fd5b600061317c8582860161300d565b925050602061318d8582860161300d565b9150509250929050565b6000806000606084860312156131ac57600080fd5b60006131ba8682870161300d565b93505060206131cb8682870161300d565b92505060406131dc868287016130f4565b9150509250925092565b600080600080608085870312156131fc57600080fd5b600061320a8782880161300d565b945050602061321b8782880161300d565b935050604061322c878288016130f4565b925050606085013567ffffffffffffffff81111561324957600080fd5b613255878288016130a0565b91505092959194509250565b6000806040838503121561327457600080fd5b60006132828582860161300d565b925050602061329385828601613061565b9150509250929050565b600080604083850312156132b057600080fd5b60006132be8582860161300d565b92505060206132cf858286016130f4565b9150509250929050565b6000602082840312156132eb57600080fd5b600082013567ffffffffffffffff81111561330557600080fd5b61331184828501613037565b91505092915050565b60006020828403121561332c57600080fd5b600061333a84828501613076565b91505092915050565b60006020828403121561335557600080fd5b60006133638482850161308b565b91505092915050565b60006020828403121561337e57600080fd5b600082013567ffffffffffffffff81111561339857600080fd5b6133a4848285016130ca565b91505092915050565b6000602082840312156133bf57600080fd5b60006133cd848285016130f4565b91505092915050565b600080604083850312156133e957600080fd5b60006133f7858286016130f4565b9250506020613408858286016130f4565b9150509250929050565b61341b81614229565b82525050565b61342a8161424d565b82525050565b600061343b82614120565b6134458185614136565b93506134558185602086016142be565b61345e81614459565b840191505092915050565b60006134748261412b565b61347e8185614152565b935061348e8185602086016142be565b61349781614459565b840191505092915050565b60006134ad8261412b565b6134b78185614163565b93506134c78185602086016142be565b80840191505092915050565b600081546134e0816142f1565b6134ea8186614163565b94506001821660008114613505576001811461351657613549565b60ff19831686528186019350613549565b61351f8561410b565b60005b8381101561354157815481890152600182019150602081019050613522565b838801955050505b50505092915050565b600061355f601f83614152565b91507f646964206e6f742070726f7669646520746865206d696e696d756d20657468006000830152602082019050919050565b600061359f603283614152565b91507f4552433732313a207472616e7366657220746f206e6f6e20455243373231526560008301527f63656976657220696d706c656d656e74657200000000000000000000000000006020830152604082019050919050565b6000613605602683614152565b91507f4f776e61626c653a206e6577206f776e657220697320746865207a65726f206160008301527f64647265737300000000000000000000000000000000000000000000000000006020830152604082019050919050565b600061366b601c83614152565b91507f4552433732313a20746f6b656e20616c7265616479206d696e746564000000006000830152602082019050919050565b60006136ab601f83614152565b91507f63616e2774206164642074686520626c61636b686f6c652061646472657373006000830152602082019050919050565b60006136eb601483614152565b91507f4661696c656420746f2073656e642045746865720000000000000000000000006000830152602082019050919050565b600061372b602483614152565b91507f4552433732313a207472616e7366657220746f20746865207a65726f2061646460008301527f72657373000000000000000000000000000000000000000000000000000000006020830152604082019050919050565b6000613791601983614152565b91507f4552433732313a20617070726f766520746f2063616c6c6572000000000000006000830152602082019050919050565b60006137d1602c83614152565b91507f4552433732313a206f70657261746f7220717565727920666f72206e6f6e657860008301527f697374656e7420746f6b656e00000000000000000000000000000000000000006020830152604082019050919050565b6000613837603883614152565b91507f4552433732313a20617070726f76652063616c6c6572206973206e6f74206f7760008301527f6e6572206e6f7220617070726f76656420666f7220616c6c00000000000000006020830152604082019050919050565b600061389d602a83614152565b91507f4552433732313a2062616c616e636520717565727920666f7220746865207a6560008301527f726f2061646472657373000000000000000000000000000000000000000000006020830152604082019050919050565b6000613903602983614152565b91507f4552433732313a206f776e657220717565727920666f72206e6f6e657869737460008301527f656e7420746f6b656e00000000000000000000000000000000000000000000006020830152604082019050919050565b6000613969602083614152565b91507f4552433732313a206d696e7420746f20746865207a65726f20616464726573736000830152602082019050919050565b60006139a9602b83614152565b91507f4552433732314d657461646174613a20717565727920666f72206e6f6e65786960008301527f7374656e7420746f6b656e0000000000000000000000000000000000000000006020830152604082019050919050565b6000613a0f602c83614152565b91507f4552433732313a20617070726f76656420717565727920666f72206e6f6e657860008301527f697374656e7420746f6b656e00000000000000000000000000000000000000006020830152604082019050919050565b6000613a75602083614152565b91507f4f776e61626c653a2063616c6c6572206973206e6f7420746865206f776e65726000830152602082019050919050565b6000613ab5602183614152565b91507f4e6f74206f6e2074686520746f6b656e20686f6c6465722077686974656c697360008301527f74000000000000000000000000000000000000000000000000000000000000006020830152604082019050919050565b6000613b1b602983614152565b91507f4552433732313a207472616e73666572206f6620746f6b656e2074686174206960008301527f73206e6f74206f776e00000000000000000000000000000000000000000000006020830152604082019050919050565b6000613b81602183614152565b91507f4552433732313a20617070726f76616c20746f2063757272656e74206f776e6560008301527f72000000000000000000000000000000000000000000000000000000000000006020830152604082019050919050565b6000613be7601d83614152565b91507f4e6f74206f6e20746865207265696e646565722077686974656c6973740000006000830152602082019050919050565b6000613c27600083614147565b9150600082019050919050565b6000613c41603183614152565b91507f4552433732313a207472616e736665722063616c6c6572206973206e6f74206f60008301527f776e6572206e6f7220617070726f7665640000000000000000000000000000006020830152604082019050919050565b613ca3816142a5565b82525050565b6000613cb582866134d3565b9150613cc182856134a2565b9150613ccd82846134d3565b9150819050949350505050565b6000613ce582613c1a565b9150819050919050565b6000602082019050613d046000830184613412565b92915050565b6000608082019050613d1f6000830187613412565b613d2c6020830186613412565b613d396040830185613c9a565b8181036060830152613d4b8184613430565b905095945050505050565b6000602082019050613d6b6000830184613421565b92915050565b60006020820190508181036000830152613d8b8184613469565b905092915050565b60006020820190508181036000830152613dac81613552565b9050919050565b60006020820190508181036000830152613dcc81613592565b9050919050565b60006020820190508181036000830152613dec816135f8565b9050919050565b60006020820190508181036000830152613e0c8161365e565b9050919050565b60006020820190508181036000830152613e2c8161369e565b9050919050565b60006020820190508181036000830152613e4c816136de565b9050919050565b60006020820190508181036000830152613e6c8161371e565b9050919050565b60006020820190508181036000830152613e8c81613784565b9050919050565b60006020820190508181036000830152613eac816137c4565b9050919050565b60006020820190508181036000830152613ecc8161382a565b9050919050565b60006020820190508181036000830152613eec81613890565b9050919050565b60006020820190508181036000830152613f0c816138f6565b9050919050565b60006020820190508181036000830152613f2c8161395c565b9050919050565b60006020820190508181036000830152613f4c8161399c565b9050919050565b60006020820190508181036000830152613f6c81613a02565b9050919050565b60006020820190508181036000830152613f8c81613a68565b9050919050565b60006020820190508181036000830152613fac81613aa8565b9050919050565b60006020820190508181036000830152613fcc81613b0e565b9050919050565b60006020820190508181036000830152613fec81613b74565b9050919050565b6000602082019050818103600083015261400c81613bda565b9050919050565b6000602082019050818103600083015261402c81613c34565b9050919050565b60006020820190506140486000830184613c9a565b92915050565b6000604051905081810181811067ffffffffffffffff821117156140755761407461442a565b5b8060405250919050565b600067ffffffffffffffff82111561409a5761409961442a565b5b602082029050602081019050919050565b600067ffffffffffffffff8211156140c6576140c561442a565b5b601f19601f8301169050602081019050919050565b600067ffffffffffffffff8211156140f6576140f561442a565b5b601f19601f8301169050602081019050919050565b60008190508160005260206000209050919050565b600081519050919050565b600081519050919050565b600082825260208201905092915050565b600081905092915050565b600082825260208201905092915050565b600081905092915050565b6000614179826142a5565b9150614184836142a5565b9250827fffffffffffffffffffffffffffffffffffffffffffffffffffffffffffffffff038211156141b9576141b861439d565b5b828201905092915050565b60006141cf826142a5565b91506141da836142a5565b9250826141ea576141e96143cc565b5b828204905092915050565b6000614200826142a5565b915061420b836142a5565b92508282101561421e5761421d61439d565b5b828203905092915050565b600061423482614285565b9050919050565b600061424682614285565b9050919050565b60008115159050919050565b60007fffffffff0000000000000000000000000000000000000000000000000000000082169050919050565b600073ffffffffffffffffffffffffffffffffffffffff82169050919050565b6000819050919050565b82818337600083830152505050565b60005b838110156142dc5780820151818401526020810190506142c1565b838111156142eb576000848401525b50505050565b6000600282049050600182168061430957607f821691505b6020821081141561431d5761431c6143fb565b5b50919050565b600061432e826142a5565b91507fffffffffffffffffffffffffffffffffffffffffffffffffffffffffffffffff8214156143615761436061439d565b5b600182019050919050565b6000614377826142a5565b9150614382836142a5565b925082614392576143916143cc565b5b828206905092915050565b7f4e487b7100000000000000000000000000000000000000000000000000000000600052601160045260246000fd5b7f4e487b7100000000000000000000000000000000000000000000000000000000600052601260045260246000fd5b7f4e487b7100000000000000000000000000000000000000000000000000000000600052602260045260246000fd5b7f4e487b7100000000000000000000000000000000000000000000000000000000600052604160045260246000fd5b6000601f19601f8301169050919050565b61447381614229565b811461447e57600080fd5b50565b61448a8161423b565b811461449557600080fd5b50565b6144a18161424d565b81146144ac57600080fd5b50565b6144b881614259565b81146144c357600080fd5b50565b6144cf816142a5565b81146144da57600080fd5b5056fea26469706673582212206a52f86ed08fce8c32592b89e703b0422ed9555b8c3bf17bc0e620d80821446d64736f6c63430008000033",
  "linkReferences": {},
  "deployedLinkReferences": {}
}