{
  "_format": "hh-sol-artifact-1",
  "contractName": "ElfNFT",
  "sourceName": "contracts/elf.sol",
  "abi": [
    {
      "inputs": [
        {
          "internalType": "string",
          "name": "_baseURI",
          "type": "string"
        },
        {
          "internalType": "string",
          "name": "_baseExtension",
          "type": "string"
        },
        {
          "internalType": "string",
          "name": "collectionURI",
          "type": "string"
        }
      ],
      "stateMutability": "nonpayable",
      "type": "constructor"
    },
    {
      "anonymous": false,
      "inputs": [
        {
          "indexed": true,
          "internalType": "address",
          "name": "owner",
          "type": "address"
        },
        {
          "indexed": true,
          "internalType": "address",
          "name": "approved",
          "type": "address"
        },
        {
          "indexed": true,
          "internalType": "uint256",
          "name": "tokenId",
          "type": "uint256"
        }
      ],
      "name": "Approval",
      "type": "event"
    },
    {
      "anonymous": false,
      "inputs": [
        {
          "indexed": true,
          "internalType": "address",
          "name": "owner",
          "type": "address"
        },
        {
          "indexed": true,
          "internalType": "address",
          "name": "operator",
          "type": "address"
        },
        {
          "indexed": false,
          "internalType": "bool",
          "name": "approved",
          "type": "bool"
        }
      ],
      "name": "ApprovalForAll",
      "type": "event"
    },
    {
      "anonymous": false,
      "inputs": [
        {
          "indexed": true,
          "internalType": "address",
          "name": "previousOwner",
          "type": "address"
        },
        {
          "indexed": true,
          "internalType": "address",
          "name": "newOwner",
          "type": "address"
        }
      ],
      "name": "OwnershipTransferred",
      "type": "event"
    },
    {
      "anonymous": false,
      "inputs": [
        {
          "indexed": true,
          "internalType": "address",
          "name": "from",
          "type": "address"
        },
        {
          "indexed": true,
          "internalType": "address",
          "name": "to",
          "type": "address"
        },
        {
          "indexed": true,
          "internalType": "uint256",
          "name": "tokenId",
          "type": "uint256"
        }
      ],
      "name": "Transfer",
      "type": "event"
    },
    {
      "inputs": [
        {
          "internalType": "address",
          "name": "to",
          "type": "address"
        },
        {
          "internalType": "uint256",
          "name": "tokenId",
          "type": "uint256"
        }
      ],
      "name": "approve",
      "outputs": [],
      "stateMutability": "nonpayable",
      "type": "function"
    },
    {
      "inputs": [
        {
          "internalType": "address",
          "name": "owner",
          "type": "address"
        }
      ],
      "name": "balanceOf",
      "outputs": [
        {
          "internalType": "uint256",
          "name": "",
          "type": "uint256"
        }
      ],
      "stateMutability": "view",
      "type": "function"
    },
    {
      "inputs": [],
      "name": "baseExtension",
      "outputs": [
        {
          "internalType": "string",
          "name": "",
          "type": "string"
        }
      ],
      "stateMutability": "view",
      "type": "function"
    },
    {
      "inputs": [],
      "name": "baseURI",
      "outputs": [
        {
          "internalType": "string",
          "name": "",
          "type": "string"
        }
      ],
      "stateMutability": "view",
      "type": "function"
    },
    {
      "inputs": [],
      "name": "contractURI",
      "outputs": [
        {
          "internalType": "string",
          "name": "",
          "type": "string"
        }
      ],
      "stateMutability": "view",
      "type": "function"
    },
    {
      "inputs": [],
      "name": "elfId",
      "outputs": [
        {
          "internalType": "uint256",
          "name": "",
          "type": "uint256"
        }
      ],
      "stateMutability": "view",
      "type": "function"
    },
    {
      "inputs": [],
      "name": "elfPrice",
      "outputs": [
        {
          "internalType": "uint256",
          "name": "",
          "type": "uint256"
        }
      ],
      "stateMutability": "view",
      "type": "function"
    },
    {
      "inputs": [
        {
          "internalType": "uint256",
          "name": "tokenId",
          "type": "uint256"
        }
      ],
      "name": "getApproved",
      "outputs": [
        {
          "internalType": "address",
          "name": "",
          "type": "address"
        }
      ],
      "stateMutability": "view",
      "type": "function"
    },
    {
      "inputs": [
        {
          "internalType": "address",
          "name": "owner",
          "type": "address"
        },
        {
          "internalType": "address",
          "name": "operator",
          "type": "address"
        }
      ],
      "name": "isApprovedForAll",
      "outputs": [
        {
          "internalType": "bool",
          "name": "",
          "type": "bool"
        }
      ],
      "stateMutability": "view",
      "type": "function"
    },
    {
      "inputs": [],
      "name": "maxSupplyElves",
      "outputs": [
        {
          "internalType": "uint256",
          "name": "",
          "type": "uint256"
        }
      ],
      "stateMutability": "view",
      "type": "function"
    },
    {
      "inputs": [],
      "name": "maxSupplyReindeer",
      "outputs": [
        {
          "internalType": "uint256",
          "name": "",
          "type": "uint256"
        }
      ],
      "stateMutability": "view",
      "type": "function"
    },
    {
      "inputs": [],
      "name": "maxSupplySanta",
      "outputs": [
        {
          "internalType": "uint256",
          "name": "",
          "type": "uint256"
        }
      ],
      "stateMutability": "view",
      "type": "function"
    },
    {
      "inputs": [
        {
          "internalType": "address",
          "name": "recipient",
          "type": "address"
        },
        {
          "internalType": "uint256",
          "name": "tokenId",
          "type": "uint256"
        }
      ],
      "name": "mintNFT",
      "outputs": [],
      "stateMutability": "nonpayable",
      "type": "function"
    },
    {
      "inputs": [],
      "name": "mintWorkerElfWhitelistWhitelist",
      "outputs": [
        {
          "internalType": "uint256",
          "name": "",
          "type": "uint256"
        }
      ],
      "stateMutability": "nonpayable",
      "type": "function"
    },
    {
      "inputs": [],
      "name": "mintedElves",
      "outputs": [
        {
          "internalType": "uint256",
          "name": "",
          "type": "uint256"
        }
      ],
      "stateMutability": "view",
      "type": "function"
    },
    {
      "inputs": [],
      "name": "mintedReindeers",
      "outputs": [
        {
          "internalType": "uint256",
          "name": "",
          "type": "uint256"
        }
      ],
      "stateMutability": "view",
      "type": "function"
    },
    {
      "inputs": [],
      "name": "mintedSantas",
      "outputs": [
        {
          "internalType": "uint256",
          "name": "",
          "type": "uint256"
        }
      ],
      "stateMutability": "view",
      "type": "function"
    },
    {
      "inputs": [],
      "name": "name",
      "outputs": [
        {
          "internalType": "string",
          "name": "",
          "type": "string"
        }
      ],
      "stateMutability": "view",
      "type": "function"
    },
    {
      "inputs": [],
      "name": "owner",
      "outputs": [
        {
          "internalType": "address",
          "name": "",
          "type": "address"
        }
      ],
      "stateMutability": "view",
      "type": "function"
    },
    {
      "inputs": [
        {
          "internalType": "uint256",
          "name": "tokenId",
          "type": "uint256"
        }
      ],
      "name": "ownerOf",
      "outputs": [
        {
          "internalType": "address",
          "name": "",
          "type": "address"
        }
      ],
      "stateMutability": "view",
      "type": "function"
    },
    {
      "inputs": [],
      "name": "publicElfMint",
      "outputs": [
        {
          "internalType": "uint256",
          "name": "",
          "type": "uint256"
        }
      ],
      "stateMutability": "payable",
      "type": "function"
    },
    {
      "inputs": [],
      "name": "publicReindeerMint",
      "outputs": [
        {
          "internalType": "uint256",
          "name": "",
          "type": "uint256"
        }
      ],
      "stateMutability": "payable",
      "type": "function"
    },
    {
      "inputs": [],
      "name": "reindeerId",
      "outputs": [
        {
          "internalType": "uint256",
          "name": "",
          "type": "uint256"
        }
      ],
      "stateMutability": "view",
      "type": "function"
    },
    {
      "inputs": [],
      "name": "reindeerPrice",
      "outputs": [
        {
          "internalType": "uint256",
          "name": "",
          "type": "uint256"
        }
      ],
      "stateMutability": "view",
      "type": "function"
    },
    {
      "inputs": [
        {
          "internalType": "address[]",
          "name": "_addresses",
          "type": "address[]"
        }
      ],
      "name": "removeWorkerElfWhitelist",
      "outputs": [],
      "stateMutability": "nonpayable",
      "type": "function"
    },
    {
      "inputs": [],
      "name": "renounceOwnership",
      "outputs": [],
      "stateMutability": "nonpayable",
      "type": "function"
    },
    {
      "inputs": [
        {
          "internalType": "address",
          "name": "from",
          "type": "address"
        },
        {
          "internalType": "address",
          "name": "to",
          "type": "address"
        },
        {
          "internalType": "uint256",
          "name": "tokenId",
          "type": "uint256"
        }
      ],
      "name": "safeTransferFrom",
      "outputs": [],
      "stateMutability": "nonpayable",
      "type": "function"
    },
    {
      "inputs": [
        {
          "internalType": "address",
          "name": "from",
          "type": "address"
        },
        {
          "internalType": "address",
          "name": "to",
          "type": "address"
        },
        {
          "internalType": "uint256",
          "name": "tokenId",
          "type": "uint256"
        },
        {
          "internalType": "bytes",
          "name": "_data",
          "type": "bytes"
        }
      ],
      "name": "safeTransferFrom",
      "outputs": [],
      "stateMutability": "nonpayable",
      "type": "function"
    },
    {
      "inputs": [],
      "name": "santaId",
      "outputs": [
        {
          "internalType": "uint256",
          "name": "",
          "type": "uint256"
        }
      ],
      "stateMutability": "view",
      "type": "function"
    },
    {
      "inputs": [
        {
          "internalType": "address",
          "name": "operator",
          "type": "address"
        },
        {
          "internalType": "bool",
          "name": "approved",
          "type": "bool"
        }
      ],
      "name": "setApprovalForAll",
      "outputs": [],
      "stateMutability": "nonpayable",
      "type": "function"
    },
    {
      "inputs": [
        {
          "internalType": "string",
          "name": "_baseExtension",
          "type": "string"
        }
      ],
      "name": "setBaseExtension",
      "outputs": [],
      "stateMutability": "nonpayable",
      "type": "function"
    },
    {
      "inputs": [
        {
          "internalType": "string",
          "name": "_baseURI",
          "type": "string"
        }
      ],
      "name": "setBaseURI",
      "outputs": [],
      "stateMutability": "nonpayable",
      "type": "function"
    },
    {
      "inputs": [
        {
          "internalType": "uint256",
          "name": "_elfPrice",
          "type": "uint256"
        },
        {
          "internalType": "uint256",
          "name": "_reindeerPrice",
          "type": "uint256"
        }
      ],
      "name": "setPrice",
      "outputs": [],
      "stateMutability": "nonpayable",
      "type": "function"
    },
    {
      "inputs": [
        {
          "internalType": "address[]",
          "name": "_addresses",
          "type": "address[]"
        }
      ],
      "name": "setWorkerElfWhitelist",
      "outputs": [],
      "stateMutability": "nonpayable",
      "type": "function"
    },
    {
      "inputs": [
        {
          "internalType": "bytes4",
          "name": "interfaceId",
          "type": "bytes4"
        }
      ],
      "name": "supportsInterface",
      "outputs": [
        {
          "internalType": "bool",
          "name": "",
          "type": "bool"
        }
      ],
      "stateMutability": "view",
      "type": "function"
    },
    {
      "inputs": [],
      "name": "symbol",
      "outputs": [
        {
          "internalType": "string",
          "name": "",
          "type": "string"
        }
      ],
      "stateMutability": "view",
      "type": "function"
    },
    {
      "inputs": [
        {
          "internalType": "uint256",
          "name": "tokenId",
          "type": "uint256"
        }
      ],
      "name": "tokenURI",
      "outputs": [
        {
          "internalType": "string",
          "name": "",
          "type": "string"
        }
      ],
      "stateMutability": "view",
      "type": "function"
    },
    {
      "inputs": [
        {
          "internalType": "address",
          "name": "from",
          "type": "address"
        },
        {
          "internalType": "address",
          "name": "to",
          "type": "address"
        },
        {
          "internalType": "uint256",
          "name": "tokenId",
          "type": "uint256"
        }
      ],
      "name": "transferFrom",
      "outputs": [],
      "stateMutability": "nonpayable",
      "type": "function"
    },
    {
      "inputs": [
        {
          "internalType": "address",
          "name": "newOwner",
          "type": "address"
        }
      ],
      "name": "transferOwnership",
      "outputs": [],
      "stateMutability": "nonpayable",
      "type": "function"
    },
    {
      "inputs": [
        {
          "internalType": "address payable",
          "name": "_to",
          "type": "address"
        }
      ],
      "name": "withdraw",
      "outputs": [],
      "stateMutability": "nonpayable",
      "type": "function"
    },
    {
      "inputs": [],
      "name": "workerElfId",
      "outputs": [
        {
          "internalType": "uint256",
          "name": "",
          "type": "uint256"
        }
      ],
      "stateMutability": "view",
      "type": "function"
    },
    {
      "inputs": [
        {
          "internalType": "address",
          "name": "",
          "type": "address"
        }
      ],
      "name": "workerElfWhitelist",
      "outputs": [
        {
          "internalType": "bool",
          "name": "",
          "type": "bool"
        }
      ],
      "stateMutability": "view",
      "type": "function"
    }
  ],
  "bytecode": "0x60806040526040518060400160405280600581526020017f2e6a736f6e000000000000000000000000000000000000000000000000000000815250600b908051906020019062000051929190620004df565b506005600c556000600d556001600e556101f4600f55600060105560066011556102d060125560006013556101fa6014556104ca60155567016345785d8a00006017556706f05b59d3b20000601855348015620000ad57600080fd5b50604051620049ab380380620049ab8339818101604052810190620000d3919062000601565b6040518060400160405280600a81526020017f456c6644414f204e4654000000000000000000000000000000000000000000008152506040518060400160405280600681526020017f454c4644414f0000000000000000000000000000000000000000000000000000815250816000908051906020019062000157929190620004df565b50806001908051906020019062000170929190620004df565b5050506200019362000187620001d760201b60201c565b620001df60201b60201c565b6001600881905550620001ac81620002a560201b60201c565b620001bd836200035060201b60201c565b620001ce826200040a60201b60201c565b50505062000848565b600033905090565b6000600760009054906101000a900473ffffffffffffffffffffffffffffffffffffffff16905081600760006101000a81548173ffffffffffffffffffffffffffffffffffffffff021916908373ffffffffffffffffffffffffffffffffffffffff1602179055508173ffffffffffffffffffffffffffffffffffffffff168173ffffffffffffffffffffffffffffffffffffffff167f8be0079c531659141344cd1fd0a4f28419497f9722a3daafe3b4186f6b6457e060405160405180910390a35050565b620002b5620001d760201b60201c565b73ffffffffffffffffffffffffffffffffffffffff16620002db620004b560201b60201c565b73ffffffffffffffffffffffffffffffffffffffff161462000334576040517f08c379a00000000000000000000000000000000000000000000000000000000081526004016200032b90620006e4565b60405180910390fd5b80600990805190602001906200034c929190620004df565b5050565b62000360620001d760201b60201c565b73ffffffffffffffffffffffffffffffffffffffff1662000386620004b560201b60201c565b73ffffffffffffffffffffffffffffffffffffffff1614620003df576040517f08c379a0000000000000000000000000000000000000000000000000000000008152600401620003d690620006e4565b60405180910390fd5b6000815111620003ee57600080fd5b80600a908051906020019062000406929190620004df565b5050565b6200041a620001d760201b60201c565b73ffffffffffffffffffffffffffffffffffffffff1662000440620004b560201b60201c565b73ffffffffffffffffffffffffffffffffffffffff161462000499576040517f08c379a00000000000000000000000000000000000000000000000000000000081526004016200049090620006e4565b60405180910390fd5b80600b9080519060200190620004b1929190620004df565b5050565b6000600760009054906101000a900473ffffffffffffffffffffffffffffffffffffffff16905090565b828054620004ed90620007b4565b90600052602060002090601f0160209004810192826200051157600085556200055d565b82601f106200052c57805160ff19168380011785556200055d565b828001600101855582156200055d579182015b828111156200055c5782518255916020019190600101906200053f565b5b5090506200056c919062000570565b5090565b5b808211156200058b57600081600090555060010162000571565b5090565b6000620005a6620005a0846200073a565b62000706565b905082815260208101848484011115620005bf57600080fd5b620005cc8482856200077e565b509392505050565b600082601f830112620005e657600080fd5b8151620005f88482602086016200058f565b91505092915050565b6000806000606084860312156200061757600080fd5b600084015167ffffffffffffffff8111156200063257600080fd5b6200064086828701620005d4565b935050602084015167ffffffffffffffff8111156200065e57600080fd5b6200066c86828701620005d4565b925050604084015167ffffffffffffffff8111156200068a57600080fd5b6200069886828701620005d4565b9150509250925092565b6000620006b16020836200076d565b91507f4f776e61626c653a2063616c6c6572206973206e6f7420746865206f776e65726000830152602082019050919050565b60006020820190508181036000830152620006ff81620006a2565b9050919050565b6000604051905081810181811067ffffffffffffffff8211171562000730576200072f62000819565b5b8060405250919050565b600067ffffffffffffffff82111562000758576200075762000819565b5b601f19601f8301169050602081019050919050565b600082825260208201905092915050565b60005b838110156200079e57808201518184015260208101905062000781565b83811115620007ae576000848401525b50505050565b60006002820490506001821680620007cd57607f821691505b60208210811415620007e457620007e3620007ea565b5b50919050565b7f4e487b7100000000000000000000000000000000000000000000000000000000600052602260045260246000fd5b7f4e487b7100000000000000000000000000000000000000000000000000000000600052604160045260246000fd5b61415380620008586000396000f3fe6080604052600436106102515760003560e01c80636c0360eb11610139578063b88d4fde116100b6578063e8a3d4851161007a578063e8a3d48514610885578063e985e9c5146108b0578063eb21a7ee146108ed578063f2fde38b1461090b578063f7d7d3ae14610934578063f7d975771461097157610251565b8063b88d4fde146107a0578063c6682862146107c9578063c87b56dd146107f4578063da3ef23f14610831578063deee82171461085a57610251565b80638d95201f116100fd5780638d95201f146106cd5780638da5cb5b146106f657806395d89b4114610721578063a22cb4651461074c578063aa55c86f1461077557610251565b80636c0360eb146105f857806370a0823114610623578063715018a6146106605780637eabf1321461067757806388a49e04146106a257610251565b8063353e61ec116101d257806351cff8d91161019657806351cff8d9146104e857806352f1313c1461051157806355f804b31461053c57806358eb6d60146105655780635b3099ce146105905780636352211e146105bb57610251565b8063353e61ec146104225780633c168eab1461044057806342842e0e1461046957806345e4829f146104925780634673615f146104bd57610251565b806323b872dd1161021957806323b872dd1461034f57806326acbadd146103785780632a406c9d146103a1578063303c02c2146103cc57806331f4d45d146103f757610251565b806301ffc9a71461025657806306fdde0314610293578063081812fc146102be578063095ea7b3146102fb5780631a23cfe214610324575b600080fd5b34801561026257600080fd5b5061027d60048036038101906102789190612f80565b61099a565b60405161028a9190613996565b60405180910390f35b34801561029f57600080fd5b506102a8610a7c565b6040516102b591906139b1565b60405180910390f35b3480156102ca57600080fd5b506102e560048036038101906102e09190613013565b610b0e565b6040516102f2919061392f565b60405180910390f35b34801561030757600080fd5b50610322600480360381019061031d9190612f03565b610b93565b005b34801561033057600080fd5b50610339610cab565b6040516103469190613c73565b60405180910390f35b34801561035b57600080fd5b5061037660048036038101906103719190612dfd565b610cb1565b005b34801561038457600080fd5b5061039f600480360381019061039a9190612f3f565b610d11565b005b3480156103ad57600080fd5b506103b6610ef8565b6040516103c39190613c73565b60405180910390f35b3480156103d857600080fd5b506103e1610efe565b6040516103ee9190613c73565b60405180910390f35b34801561040357600080fd5b5061040c611066565b6040516104199190613c73565b60405180910390f35b61042a61106c565b6040516104379190613c73565b60405180910390f35b34801561044c57600080fd5b5061046760048036038101906104629190612f03565b61115d565b005b34801561047557600080fd5b50610490600480360381019061048b9190612dfd565b6111e7565b005b34801561049e57600080fd5b506104a7611207565b6040516104b49190613c73565b60405180910390f35b3480156104c957600080fd5b506104d261120d565b6040516104df9190613c73565b60405180910390f35b3480156104f457600080fd5b5061050f600480360381019061050a9190612d98565b611213565b005b34801561051d57600080fd5b50610526611345565b6040516105339190613c73565b60405180910390f35b34801561054857600080fd5b50610563600480360381019061055e9190612fd2565b61134b565b005b34801561057157600080fd5b5061057a6113ef565b6040516105879190613c73565b60405180910390f35b34801561059c57600080fd5b506105a56113f5565b6040516105b29190613c73565b60405180910390f35b3480156105c757600080fd5b506105e260048036038101906105dd9190613013565b6113fb565b6040516105ef919061392f565b60405180910390f35b34801561060457600080fd5b5061060d6114ad565b60405161061a91906139b1565b60405180910390f35b34801561062f57600080fd5b5061064a60048036038101906106459190612d6f565b61153b565b6040516106579190613c73565b60405180910390f35b34801561066c57600080fd5b506106756115f3565b005b34801561068357600080fd5b5061068c61167b565b6040516106999190613c73565b60405180910390f35b3480156106ae57600080fd5b506106b7611681565b6040516106c49190613c73565b60405180910390f35b3480156106d957600080fd5b506106f460048036038101906106ef9190612f3f565b611687565b005b34801561070257600080fd5b5061070b6117be565b604051610718919061392f565b60405180910390f35b34801561072d57600080fd5b506107366117e8565b60405161074391906139b1565b60405180910390f35b34801561075857600080fd5b50610773600480360381019061076e9190612ec7565b61187a565b005b34801561078157600080fd5b5061078a611890565b6040516107979190613c73565b60405180910390f35b3480156107ac57600080fd5b506107c760048036038101906107c29190612e4c565b611896565b005b3480156107d557600080fd5b506107de6118f8565b6040516107eb91906139b1565b60405180910390f35b34801561080057600080fd5b5061081b60048036038101906108169190613013565b611986565b60405161082891906139b1565b60405180910390f35b34801561083d57600080fd5b5061085860048036038101906108539190612fd2565b611a05565b005b34801561086657600080fd5b5061086f611a9b565b60405161087c9190613c73565b60405180910390f35b34801561089157600080fd5b5061089a611aa1565b6040516108a791906139b1565b60405180910390f35b3480156108bc57600080fd5b506108d760048036038101906108d29190612dc1565b611b33565b6040516108e49190613996565b60405180910390f35b6108f5611bc7565b6040516109029190613c73565b60405180910390f35b34801561091757600080fd5b50610932600480360381019061092d9190612d6f565b611cb8565b005b34801561094057600080fd5b5061095b60048036038101906109569190612d6f565b611db0565b6040516109689190613996565b60405180910390f35b34801561097d57600080fd5b506109986004803603810190610993919061303c565b611dd0565b005b60007f80ac58cd000000000000000000000000000000000000000000000000000000007bffffffffffffffffffffffffffffffffffffffffffffffffffffffff1916827bffffffffffffffffffffffffffffffffffffffffffffffffffffffff19161480610a6557507f5b5e139f000000000000000000000000000000000000000000000000000000007bffffffffffffffffffffffffffffffffffffffffffffffffffffffff1916827bffffffffffffffffffffffffffffffffffffffffffffffffffffffff1916145b80610a755750610a7482611e5e565b5b9050919050565b606060008054610a8b90613f31565b80601f0160208091040260200160405190810160405280929190818152602001828054610ab790613f31565b8015610b045780601f10610ad957610100808354040283529160200191610b04565b820191906000526020600020905b815481529060010190602001808311610ae757829003601f168201915b5050505050905090565b6000610b1982611ec8565b610b58576040517f08c379a0000000000000000000000000000000000000000000000000000000008152600401610b4f90613bb3565b60405180910390fd5b6004600083815260200190815260200160002060009054906101000a900473ffffffffffffffffffffffffffffffffffffffff169050919050565b6000610b9e826113fb565b90508073ffffffffffffffffffffffffffffffffffffffff168373ffffffffffffffffffffffffffffffffffffffff161415610c0f576040517f08c379a0000000000000000000000000000000000000000000000000000000008152600401610c0690613c13565b60405180910390fd5b8073ffffffffffffffffffffffffffffffffffffffff16610c2e611f34565b73ffffffffffffffffffffffffffffffffffffffff161480610c5d5750610c5c81610c57611f34565b611b33565b5b610c9c576040517f08c379a0000000000000000000000000000000000000000000000000000000008152600401610c9390613b13565b60405180910390fd5b610ca68383611f3c565b505050565b60185481565b610cc2610cbc611f34565b82611ff5565b610d01576040517f08c379a0000000000000000000000000000000000000000000000000000000008152600401610cf890613c33565b60405180910390fd5b610d0c8383836120d3565b505050565b610d19611f34565b73ffffffffffffffffffffffffffffffffffffffff16610d376117be565b73ffffffffffffffffffffffffffffffffffffffff1614610d8d576040517f08c379a0000000000000000000000000000000000000000000000000000000008152600401610d8490613bd3565b60405180910390fd5b60005b8151811015610ef457600073ffffffffffffffffffffffffffffffffffffffff16828281518110610dea577f4e487b7100000000000000000000000000000000000000000000000000000000600052603260045260246000fd5b602002602001015173ffffffffffffffffffffffffffffffffffffffff161415610e49576040517f08c379a0000000000000000000000000000000000000000000000000000000008152600401610e4090613a73565b60405180910390fd5b600160166000848481518110610e88577f4e487b7100000000000000000000000000000000000000000000000000000000600052603260045260246000fd5b602002602001015173ffffffffffffffffffffffffffffffffffffffff1673ffffffffffffffffffffffffffffffffffffffff16815260200190815260200160002060006101000a81548160ff0219169083151502179055508080610eec90613f63565b915050610d90565b5050565b60115481565b600060026008541415610f46576040517f08c379a0000000000000000000000000000000000000000000000000000000008152600401610f3d90613c53565b60405180910390fd5b6002600881905550601660003373ffffffffffffffffffffffffffffffffffffffff1673ffffffffffffffffffffffffffffffffffffffff16815260200190815260200160002060009054906101000a900460ff16610fda576040517f08c379a0000000000000000000000000000000000000000000000000000000008152600401610fd190613a53565b60405180910390fd5b6000601660003373ffffffffffffffffffffffffffffffffffffffff1673ffffffffffffffffffffffffffffffffffffffff16815260200190815260200160002060006101000a81548160ff02191690831515021790555061103e3360155461115d565b6015600081548092919061105190613f63565b91905055506015549050600160088190555090565b600e5481565b6000600260085414156110b4576040517f08c379a00000000000000000000000000000000000000000000000000000000081526004016110ab90613c53565b60405180910390fd5b6002600881905550601754341015611101576040517f08c379a00000000000000000000000000000000000000000000000000000000081526004016110f8906139d3565b60405180910390fd5b6012546013541061111157600080fd5b6013600081548092919061112490613f63565b91905055506111353360145461115d565b6014600081548092919061114890613f63565b91905055506014549050600160088190555090565b611165611f34565b73ffffffffffffffffffffffffffffffffffffffff166111836117be565b73ffffffffffffffffffffffffffffffffffffffff16146111d9576040517f08c379a00000000000000000000000000000000000000000000000000000000081526004016111d090613bd3565b60405180910390fd5b6111e3828261232f565b5050565b61120283838360405180602001604052806000815250611896565b505050565b60155481565b600d5481565b61121b611f34565b73ffffffffffffffffffffffffffffffffffffffff166112396117be565b73ffffffffffffffffffffffffffffffffffffffff161461128f576040517f08c379a000000000000000000000000000000000000000000000000000000000815260040161128690613bd3565b60405180910390fd5b600047905060008273ffffffffffffffffffffffffffffffffffffffff16826040516112ba9061391a565b60006040518083038185875af1925050503d80600081146112f7576040519150601f19603f3d011682016040523d82523d6000602084013e6112fc565b606091505b5050905080611340576040517f08c379a000000000000000000000000000000000000000000000000000000000815260040161133790613a93565b60405180910390fd5b505050565b600f5481565b611353611f34565b73ffffffffffffffffffffffffffffffffffffffff166113716117be565b73ffffffffffffffffffffffffffffffffffffffff16146113c7576040517f08c379a00000000000000000000000000000000000000000000000000000000081526004016113be90613bd3565b60405180910390fd5b60008151116113d557600080fd5b80600a90805190602001906113eb929190612ae8565b5050565b60135481565b60105481565b6000806002600084815260200190815260200160002060009054906101000a900473ffffffffffffffffffffffffffffffffffffffff169050600073ffffffffffffffffffffffffffffffffffffffff168173ffffffffffffffffffffffffffffffffffffffff1614156114a4576040517f08c379a000000000000000000000000000000000000000000000000000000000815260040161149b90613b53565b60405180910390fd5b80915050919050565b600a80546114ba90613f31565b80601f01602080910402602001604051908101604052809291908181526020018280546114e690613f31565b80156115335780601f1061150857610100808354040283529160200191611533565b820191906000526020600020905b81548152906001019060200180831161151657829003601f168201915b505050505081565b60008073ffffffffffffffffffffffffffffffffffffffff168273ffffffffffffffffffffffffffffffffffffffff1614156115ac576040517f08c379a00000000000000000000000000000000000000000000000000000000081526004016115a390613b33565b60405180910390fd5b600360008373ffffffffffffffffffffffffffffffffffffffff1673ffffffffffffffffffffffffffffffffffffffff168152602001908152602001600020549050919050565b6115fb611f34565b73ffffffffffffffffffffffffffffffffffffffff166116196117be565b73ffffffffffffffffffffffffffffffffffffffff161461166f576040517f08c379a000000000000000000000000000000000000000000000000000000000815260040161166690613bd3565b60405180910390fd5b61167960006124fd565b565b60175481565b600c5481565b61168f611f34565b73ffffffffffffffffffffffffffffffffffffffff166116ad6117be565b73ffffffffffffffffffffffffffffffffffffffff1614611703576040517f08c379a00000000000000000000000000000000000000000000000000000000081526004016116fa90613bd3565b60405180910390fd5b60005b81518110156117ba5760006016600084848151811061174e577f4e487b7100000000000000000000000000000000000000000000000000000000600052603260045260246000fd5b602002602001015173ffffffffffffffffffffffffffffffffffffffff1673ffffffffffffffffffffffffffffffffffffffff16815260200190815260200160002060006101000a81548160ff02191690831515021790555080806117b290613f63565b915050611706565b5050565b6000600760009054906101000a900473ffffffffffffffffffffffffffffffffffffffff16905090565b6060600180546117f790613f31565b80601f016020809104026020016040519081016040528092919081815260200182805461182390613f31565b80156118705780601f1061184557610100808354040283529160200191611870565b820191906000526020600020905b81548152906001019060200180831161185357829003601f168201915b5050505050905090565b61188c611885611f34565b83836125c3565b5050565b60125481565b6118a76118a1611f34565b83611ff5565b6118e6576040517f08c379a00000000000000000000000000000000000000000000000000000000081526004016118dd90613c33565b60405180910390fd5b6118f284848484612730565b50505050565b600b805461190590613f31565b80601f016020809104026020016040519081016040528092919081815260200182805461193190613f31565b801561197e5780601f106119535761010080835404028352916020019161197e565b820191906000526020600020905b81548152906001019060200180831161196157829003601f168201915b505050505081565b606061199182611ec8565b6119d0576040517f08c379a00000000000000000000000000000000000000000000000000000000081526004016119c790613b93565b60405180910390fd5b600a6119db8361278c565b600b6040516020016119ef939291906138e9565b6040516020818303038152906040529050919050565b611a0d611f34565b73ffffffffffffffffffffffffffffffffffffffff16611a2b6117be565b73ffffffffffffffffffffffffffffffffffffffff1614611a81576040517f08c379a0000000000000000000000000000000000000000000000000000000008152600401611a7890613bd3565b60405180910390fd5b80600b9080519060200190611a97929190612ae8565b5050565b60145481565b606060098054611ab090613f31565b80601f0160208091040260200160405190810160405280929190818152602001828054611adc90613f31565b8015611b295780601f10611afe57610100808354040283529160200191611b29565b820191906000526020600020905b815481529060010190602001808311611b0c57829003601f168201915b5050505050905090565b6000600560008473ffffffffffffffffffffffffffffffffffffffff1673ffffffffffffffffffffffffffffffffffffffff16815260200190815260200160002060008373ffffffffffffffffffffffffffffffffffffffff1673ffffffffffffffffffffffffffffffffffffffff16815260200190815260200160002060009054906101000a900460ff16905092915050565b600060026008541415611c0f576040517f08c379a0000000000000000000000000000000000000000000000000000000008152600401611c0690613c53565b60405180910390fd5b6002600881905550601854341015611c5c576040517f08c379a0000000000000000000000000000000000000000000000000000000008152600401611c53906139d3565b60405180910390fd5b600f5460105410611c6c57600080fd5b60106000815480929190611c7f90613f63565b9190505550611c903360115461115d565b60116000815480929190611ca390613f63565b91905055506011549050600160088190555090565b611cc0611f34565b73ffffffffffffffffffffffffffffffffffffffff16611cde6117be565b73ffffffffffffffffffffffffffffffffffffffff1614611d34576040517f08c379a0000000000000000000000000000000000000000000000000000000008152600401611d2b90613bd3565b60405180910390fd5b600073ffffffffffffffffffffffffffffffffffffffff168173ffffffffffffffffffffffffffffffffffffffff161415611da4576040517f08c379a0000000000000000000000000000000000000000000000000000000008152600401611d9b90613a13565b60405180910390fd5b611dad816124fd565b50565b60166020528060005260406000206000915054906101000a900460ff1681565b611dd8611f34565b73ffffffffffffffffffffffffffffffffffffffff16611df66117be565b73ffffffffffffffffffffffffffffffffffffffff1614611e4c576040517f08c379a0000000000000000000000000000000000000000000000000000000008152600401611e4390613bd3565b60405180910390fd5b81601781905550806018819055505050565b60007f01ffc9a7000000000000000000000000000000000000000000000000000000007bffffffffffffffffffffffffffffffffffffffffffffffffffffffff1916827bffffffffffffffffffffffffffffffffffffffffffffffffffffffff1916149050919050565b60008073ffffffffffffffffffffffffffffffffffffffff166002600084815260200190815260200160002060009054906101000a900473ffffffffffffffffffffffffffffffffffffffff1673ffffffffffffffffffffffffffffffffffffffff1614159050919050565b600033905090565b816004600083815260200190815260200160002060006101000a81548173ffffffffffffffffffffffffffffffffffffffff021916908373ffffffffffffffffffffffffffffffffffffffff160217905550808273ffffffffffffffffffffffffffffffffffffffff16611faf836113fb565b73ffffffffffffffffffffffffffffffffffffffff167f8c5be1e5ebec7d5bd14f71427d1e84f3dd0314c0f7b2291e5b200ac8c7c3b92560405160405180910390a45050565b600061200082611ec8565b61203f576040517f08c379a000000000000000000000000000000000000000000000000000000000815260040161203690613af3565b60405180910390fd5b600061204a836113fb565b90508073ffffffffffffffffffffffffffffffffffffffff168473ffffffffffffffffffffffffffffffffffffffff1614806120b957508373ffffffffffffffffffffffffffffffffffffffff166120a184610b0e565b73ffffffffffffffffffffffffffffffffffffffff16145b806120ca57506120c98185611b33565b5b91505092915050565b8273ffffffffffffffffffffffffffffffffffffffff166120f3826113fb565b73ffffffffffffffffffffffffffffffffffffffff1614612149576040517f08c379a000000000000000000000000000000000000000000000000000000000815260040161214090613bf3565b60405180910390fd5b600073ffffffffffffffffffffffffffffffffffffffff168273ffffffffffffffffffffffffffffffffffffffff1614156121b9576040517f08c379a00000000000000000000000000000000000000000000000000000000081526004016121b090613ab3565b60405180910390fd5b6121c4838383612939565b6121cf600082611f3c565b6001600360008573ffffffffffffffffffffffffffffffffffffffff1673ffffffffffffffffffffffffffffffffffffffff168152602001908152602001600020600082825461221f9190613e35565b925050819055506001600360008473ffffffffffffffffffffffffffffffffffffffff1673ffffffffffffffffffffffffffffffffffffffff16815260200190815260200160002060008282546122769190613dae565b92505081905550816002600083815260200190815260200160002060006101000a81548173ffffffffffffffffffffffffffffffffffffffff021916908373ffffffffffffffffffffffffffffffffffffffff160217905550808273ffffffffffffffffffffffffffffffffffffffff168473ffffffffffffffffffffffffffffffffffffffff167fddf252ad1be2c89b69c2b068fc378daa952ba7f163c4a11628f55a4df523b3ef60405160405180910390a4505050565b600073ffffffffffffffffffffffffffffffffffffffff168273ffffffffffffffffffffffffffffffffffffffff16141561239f576040517f08c379a000000000000000000000000000000000000000000000000000000000815260040161239690613b73565b60405180910390fd5b6123a881611ec8565b156123e8576040517f08c379a00000000000000000000000000000000000000000000000000000000081526004016123df90613a33565b60405180910390fd5b6123f460008383612939565b6001600360008473ffffffffffffffffffffffffffffffffffffffff1673ffffffffffffffffffffffffffffffffffffffff16815260200190815260200160002060008282546124449190613dae565b92505081905550816002600083815260200190815260200160002060006101000a81548173ffffffffffffffffffffffffffffffffffffffff021916908373ffffffffffffffffffffffffffffffffffffffff160217905550808273ffffffffffffffffffffffffffffffffffffffff16600073ffffffffffffffffffffffffffffffffffffffff167fddf252ad1be2c89b69c2b068fc378daa952ba7f163c4a11628f55a4df523b3ef60405160405180910390a45050565b6000600760009054906101000a900473ffffffffffffffffffffffffffffffffffffffff16905081600760006101000a81548173ffffffffffffffffffffffffffffffffffffffff021916908373ffffffffffffffffffffffffffffffffffffffff1602179055508173ffffffffffffffffffffffffffffffffffffffff168173ffffffffffffffffffffffffffffffffffffffff167f8be0079c531659141344cd1fd0a4f28419497f9722a3daafe3b4186f6b6457e060405160405180910390a35050565b8173ffffffffffffffffffffffffffffffffffffffff168373ffffffffffffffffffffffffffffffffffffffff161415612632576040517f08c379a000000000000000000000000000000000000000000000000000000000815260040161262990613ad3565b60405180910390fd5b80600560008573ffffffffffffffffffffffffffffffffffffffff1673ffffffffffffffffffffffffffffffffffffffff16815260200190815260200160002060008473ffffffffffffffffffffffffffffffffffffffff1673ffffffffffffffffffffffffffffffffffffffff16815260200190815260200160002060006101000a81548160ff0219169083151502179055508173ffffffffffffffffffffffffffffffffffffffff168373ffffffffffffffffffffffffffffffffffffffff167f17307eab39ab6107e8899845ad3d59bd9653f200f220920489ca2b5937696c31836040516127239190613996565b60405180910390a3505050565b61273b8484846120d3565b6127478484848461293e565b612786576040517f08c379a000000000000000000000000000000000000000000000000000000000815260040161277d906139f3565b60405180910390fd5b50505050565b606060008214156127d4576040518060400160405280600181526020017f30000000000000000000000000000000000000000000000000000000000000008152509050612934565b600082905060005b600082146128065780806127ef90613f63565b915050600a826127ff9190613e04565b91506127dc565b60008167ffffffffffffffff811115612848577f4e487b7100000000000000000000000000000000000000000000000000000000600052604160045260246000fd5b6040519080825280601f01601f19166020018201604052801561287a5781602001600182028036833780820191505090505b5090505b6000851461292d576001826128939190613e35565b9150600a856128a29190613fac565b60306128ae9190613dae565b60f81b8183815181106128ea577f4e487b7100000000000000000000000000000000000000000000000000000000600052603260045260246000fd5b60200101907effffffffffffffffffffffffffffffffffffffffffffffffffffffffffffff1916908160001a905350600a856129269190613e04565b945061287e565b8093505050505b919050565b505050565b600061295f8473ffffffffffffffffffffffffffffffffffffffff16612ad5565b15612ac8578373ffffffffffffffffffffffffffffffffffffffff1663150b7a02612988611f34565b8786866040518563ffffffff1660e01b81526004016129aa949392919061394a565b602060405180830381600087803b1580156129c457600080fd5b505af19250505080156129f557506040513d601f19601f820116820180604052508101906129f29190612fa9565b60015b612a78573d8060008114612a25576040519150601f19603f3d011682016040523d82523d6000602084013e612a2a565b606091505b50600081511415612a70576040517f08c379a0000000000000000000000000000000000000000000000000000000008152600401612a67906139f3565b60405180910390fd5b805181602001fd5b63150b7a0260e01b7bffffffffffffffffffffffffffffffffffffffffffffffffffffffff1916817bffffffffffffffffffffffffffffffffffffffffffffffffffffffff191614915050612acd565b600190505b949350505050565b600080823b905060008111915050919050565b828054612af490613f31565b90600052602060002090601f016020900481019282612b165760008555612b5d565b82601f10612b2f57805160ff1916838001178555612b5d565b82800160010185558215612b5d579182015b82811115612b5c578251825591602001919060010190612b41565b5b509050612b6a9190612b6e565b5090565b5b80821115612b87576000816000905550600101612b6f565b5090565b6000612b9e612b9984613cbf565b613c8e565b90508083825260208201905082856020860282011115612bbd57600080fd5b60005b85811015612bed5781612bd38882612c73565b845260208401935060208301925050600181019050612bc0565b5050509392505050565b6000612c0a612c0584613ceb565b613c8e565b905082815260208101848484011115612c2257600080fd5b612c2d848285613eef565b509392505050565b6000612c48612c4384613d1b565b613c8e565b905082815260208101848484011115612c6057600080fd5b612c6b848285613eef565b509392505050565b600081359050612c82816140aa565b92915050565b600081359050612c97816140c1565b92915050565b600082601f830112612cae57600080fd5b8135612cbe848260208601612b8b565b91505092915050565b600081359050612cd6816140d8565b92915050565b600081359050612ceb816140ef565b92915050565b600081519050612d00816140ef565b92915050565b600082601f830112612d1757600080fd5b8135612d27848260208601612bf7565b91505092915050565b600082601f830112612d4157600080fd5b8135612d51848260208601612c35565b91505092915050565b600081359050612d6981614106565b92915050565b600060208284031215612d8157600080fd5b6000612d8f84828501612c73565b91505092915050565b600060208284031215612daa57600080fd5b6000612db884828501612c88565b91505092915050565b60008060408385031215612dd457600080fd5b6000612de285828601612c73565b9250506020612df385828601612c73565b9150509250929050565b600080600060608486031215612e1257600080fd5b6000612e2086828701612c73565b9350506020612e3186828701612c73565b9250506040612e4286828701612d5a565b9150509250925092565b60008060008060808587031215612e6257600080fd5b6000612e7087828801612c73565b9450506020612e8187828801612c73565b9350506040612e9287828801612d5a565b925050606085013567ffffffffffffffff811115612eaf57600080fd5b612ebb87828801612d06565b91505092959194509250565b60008060408385031215612eda57600080fd5b6000612ee885828601612c73565b9250506020612ef985828601612cc7565b9150509250929050565b60008060408385031215612f1657600080fd5b6000612f2485828601612c73565b9250506020612f3585828601612d5a565b9150509250929050565b600060208284031215612f5157600080fd5b600082013567ffffffffffffffff811115612f6b57600080fd5b612f7784828501612c9d565b91505092915050565b600060208284031215612f9257600080fd5b6000612fa084828501612cdc565b91505092915050565b600060208284031215612fbb57600080fd5b6000612fc984828501612cf1565b91505092915050565b600060208284031215612fe457600080fd5b600082013567ffffffffffffffff811115612ffe57600080fd5b61300a84828501612d30565b91505092915050565b60006020828403121561302557600080fd5b600061303384828501612d5a565b91505092915050565b6000806040838503121561304f57600080fd5b600061305d85828601612d5a565b925050602061306e85828601612d5a565b9150509250929050565b61308181613e69565b82525050565b61309081613e8d565b82525050565b60006130a182613d60565b6130ab8185613d76565b93506130bb818560208601613efe565b6130c481614099565b840191505092915050565b60006130da82613d6b565b6130e48185613d92565b93506130f4818560208601613efe565b6130fd81614099565b840191505092915050565b600061311382613d6b565b61311d8185613da3565b935061312d818560208601613efe565b80840191505092915050565b6000815461314681613f31565b6131508186613da3565b9450600182166000811461316b576001811461317c576131af565b60ff198316865281860193506131af565b61318585613d4b565b60005b838110156131a757815481890152600182019150602081019050613188565b838801955050505b50505092915050565b60006131c5601f83613d92565b91507f646964206e6f742070726f7669646520746865206d696e696d756d20657468006000830152602082019050919050565b6000613205603283613d92565b91507f4552433732313a207472616e7366657220746f206e6f6e20455243373231526560008301527f63656976657220696d706c656d656e74657200000000000000000000000000006020830152604082019050919050565b600061326b602683613d92565b91507f4f776e61626c653a206e6577206f776e657220697320746865207a65726f206160008301527f64647265737300000000000000000000000000000000000000000000000000006020830152604082019050919050565b60006132d1601c83613d92565b91507f4552433732313a20746f6b656e20616c7265616479206d696e746564000000006000830152602082019050919050565b6000613311601f83613d92565b91507f4e6f74206f6e2074686520776f726b657220656c662077686974656c697374006000830152602082019050919050565b6000613351601f83613d92565b91507f63616e2774206164642074686520626c61636b686f6c652061646472657373006000830152602082019050919050565b6000613391601483613d92565b91507f4661696c656420746f2073656e642045746865720000000000000000000000006000830152602082019050919050565b60006133d1602483613d92565b91507f4552433732313a207472616e7366657220746f20746865207a65726f2061646460008301527f72657373000000000000000000000000000000000000000000000000000000006020830152604082019050919050565b6000613437601983613d92565b91507f4552433732313a20617070726f766520746f2063616c6c6572000000000000006000830152602082019050919050565b6000613477602c83613d92565b91507f4552433732313a206f70657261746f7220717565727920666f72206e6f6e657860008301527f697374656e7420746f6b656e00000000000000000000000000000000000000006020830152604082019050919050565b60006134dd603883613d92565b91507f4552433732313a20617070726f76652063616c6c6572206973206e6f74206f7760008301527f6e6572206e6f7220617070726f76656420666f7220616c6c00000000000000006020830152604082019050919050565b6000613543602a83613d92565b91507f4552433732313a2062616c616e636520717565727920666f7220746865207a6560008301527f726f2061646472657373000000000000000000000000000000000000000000006020830152604082019050919050565b60006135a9602983613d92565b91507f4552433732313a206f776e657220717565727920666f72206e6f6e657869737460008301527f656e7420746f6b656e00000000000000000000000000000000000000000000006020830152604082019050919050565b600061360f602083613d92565b91507f4552433732313a206d696e7420746f20746865207a65726f20616464726573736000830152602082019050919050565b600061364f602b83613d92565b91507f4552433732314d657461646174613a20717565727920666f72206e6f6e65786960008301527f7374656e7420746f6b656e0000000000000000000000000000000000000000006020830152604082019050919050565b60006136b5602c83613d92565b91507f4552433732313a20617070726f76656420717565727920666f72206e6f6e657860008301527f697374656e7420746f6b656e00000000000000000000000000000000000000006020830152604082019050919050565b600061371b602083613d92565b91507f4f776e61626c653a2063616c6c6572206973206e6f7420746865206f776e65726000830152602082019050919050565b600061375b602983613d92565b91507f4552433732313a207472616e73666572206f6620746f6b656e2074686174206960008301527f73206e6f74206f776e00000000000000000000000000000000000000000000006020830152604082019050919050565b60006137c1602183613d92565b91507f4552433732313a20617070726f76616c20746f2063757272656e74206f776e6560008301527f72000000000000000000000000000000000000000000000000000000000000006020830152604082019050919050565b6000613827600083613d87565b9150600082019050919050565b6000613841603183613d92565b91507f4552433732313a207472616e736665722063616c6c6572206973206e6f74206f60008301527f776e6572206e6f7220617070726f7665640000000000000000000000000000006020830152604082019050919050565b60006138a7601f83613d92565b91507f5265656e7472616e637947756172643a207265656e7472616e742063616c6c006000830152602082019050919050565b6138e381613ee5565b82525050565b60006138f58286613139565b91506139018285613108565b915061390d8284613139565b9150819050949350505050565b60006139258261381a565b9150819050919050565b60006020820190506139446000830184613078565b92915050565b600060808201905061395f6000830187613078565b61396c6020830186613078565b61397960408301856138da565b818103606083015261398b8184613096565b905095945050505050565b60006020820190506139ab6000830184613087565b92915050565b600060208201905081810360008301526139cb81846130cf565b905092915050565b600060208201905081810360008301526139ec816131b8565b9050919050565b60006020820190508181036000830152613a0c816131f8565b9050919050565b60006020820190508181036000830152613a2c8161325e565b9050919050565b60006020820190508181036000830152613a4c816132c4565b9050919050565b60006020820190508181036000830152613a6c81613304565b9050919050565b60006020820190508181036000830152613a8c81613344565b9050919050565b60006020820190508181036000830152613aac81613384565b9050919050565b60006020820190508181036000830152613acc816133c4565b9050919050565b60006020820190508181036000830152613aec8161342a565b9050919050565b60006020820190508181036000830152613b0c8161346a565b9050919050565b60006020820190508181036000830152613b2c816134d0565b9050919050565b60006020820190508181036000830152613b4c81613536565b9050919050565b60006020820190508181036000830152613b6c8161359c565b9050919050565b60006020820190508181036000830152613b8c81613602565b9050919050565b60006020820190508181036000830152613bac81613642565b9050919050565b60006020820190508181036000830152613bcc816136a8565b9050919050565b60006020820190508181036000830152613bec8161370e565b9050919050565b60006020820190508181036000830152613c0c8161374e565b9050919050565b60006020820190508181036000830152613c2c816137b4565b9050919050565b60006020820190508181036000830152613c4c81613834565b9050919050565b60006020820190508181036000830152613c6c8161389a565b9050919050565b6000602082019050613c8860008301846138da565b92915050565b6000604051905081810181811067ffffffffffffffff82111715613cb557613cb461406a565b5b8060405250919050565b600067ffffffffffffffff821115613cda57613cd961406a565b5b602082029050602081019050919050565b600067ffffffffffffffff821115613d0657613d0561406a565b5b601f19601f8301169050602081019050919050565b600067ffffffffffffffff821115613d3657613d3561406a565b5b601f19601f8301169050602081019050919050565b60008190508160005260206000209050919050565b600081519050919050565b600081519050919050565b600082825260208201905092915050565b600081905092915050565b600082825260208201905092915050565b600081905092915050565b6000613db982613ee5565b9150613dc483613ee5565b9250827fffffffffffffffffffffffffffffffffffffffffffffffffffffffffffffffff03821115613df957613df8613fdd565b5b828201905092915050565b6000613e0f82613ee5565b9150613e1a83613ee5565b925082613e2a57613e2961400c565b5b828204905092915050565b6000613e4082613ee5565b9150613e4b83613ee5565b925082821015613e5e57613e5d613fdd565b5b828203905092915050565b6000613e7482613ec5565b9050919050565b6000613e8682613ec5565b9050919050565b60008115159050919050565b60007fffffffff0000000000000000000000000000000000000000000000000000000082169050919050565b600073ffffffffffffffffffffffffffffffffffffffff82169050919050565b6000819050919050565b82818337600083830152505050565b60005b83811015613f1c578082015181840152602081019050613f01565b83811115613f2b576000848401525b50505050565b60006002820490506001821680613f4957607f821691505b60208210811415613f5d57613f5c61403b565b5b50919050565b6000613f6e82613ee5565b91507fffffffffffffffffffffffffffffffffffffffffffffffffffffffffffffffff821415613fa157613fa0613fdd565b5b600182019050919050565b6000613fb782613ee5565b9150613fc283613ee5565b925082613fd257613fd161400c565b5b828206905092915050565b7f4e487b7100000000000000000000000000000000000000000000000000000000600052601160045260246000fd5b7f4e487b7100000000000000000000000000000000000000000000000000000000600052601260045260246000fd5b7f4e487b7100000000000000000000000000000000000000000000000000000000600052602260045260246000fd5b7f4e487b7100000000000000000000000000000000000000000000000000000000600052604160045260246000fd5b6000601f19601f8301169050919050565b6140b381613e69565b81146140be57600080fd5b50565b6140ca81613e7b565b81146140d557600080fd5b50565b6140e181613e8d565b81146140ec57600080fd5b50565b6140f881613e99565b811461410357600080fd5b50565b61410f81613ee5565b811461411a57600080fd5b5056fea2646970667358221220312912f70c1bb80b62523fedf79e46f7ebde45b57f14ae3e089c5f7960e676c564736f6c63430008000033",
  "linkReferences": {},
  "deployedLinkReferences": {}
}