{
  "_format": "hh-sol-artifact-1",
  "contractName": "ElfNFT",
  "sourceName": "contracts/elf.sol",
  "abi": [
    {
      "inputs": [
        {
          "internalType": "string",
          "name": "_baseURI",
          "type": "string"
        },
        {
          "internalType": "string",
          "name": "_baseExtension",
          "type": "string"
        },
        {
          "internalType": "string",
          "name": "collectionURI",
          "type": "string"
        }
      ],
      "stateMutability": "nonpayable",
      "type": "constructor"
    },
    {
      "anonymous": false,
      "inputs": [
        {
          "indexed": true,
          "internalType": "address",
          "name": "owner",
          "type": "address"
        },
        {
          "indexed": true,
          "internalType": "address",
          "name": "approved",
          "type": "address"
        },
        {
          "indexed": true,
          "internalType": "uint256",
          "name": "tokenId",
          "type": "uint256"
        }
      ],
      "name": "Approval",
      "type": "event"
    },
    {
      "anonymous": false,
      "inputs": [
        {
          "indexed": true,
          "internalType": "address",
          "name": "owner",
          "type": "address"
        },
        {
          "indexed": true,
          "internalType": "address",
          "name": "operator",
          "type": "address"
        },
        {
          "indexed": false,
          "internalType": "bool",
          "name": "approved",
          "type": "bool"
        }
      ],
      "name": "ApprovalForAll",
      "type": "event"
    },
    {
      "anonymous": false,
      "inputs": [
        {
          "indexed": true,
          "internalType": "address",
          "name": "previousOwner",
          "type": "address"
        },
        {
          "indexed": true,
          "internalType": "address",
          "name": "newOwner",
          "type": "address"
        }
      ],
      "name": "OwnershipTransferred",
      "type": "event"
    },
    {
      "anonymous": false,
      "inputs": [
        {
          "indexed": true,
          "internalType": "address",
          "name": "from",
          "type": "address"
        },
        {
          "indexed": true,
          "internalType": "address",
          "name": "to",
          "type": "address"
        },
        {
          "indexed": true,
          "internalType": "uint256",
          "name": "tokenId",
          "type": "uint256"
        }
      ],
      "name": "Transfer",
      "type": "event"
    },
    {
      "inputs": [
        {
          "internalType": "address",
          "name": "to",
          "type": "address"
        },
        {
          "internalType": "uint256",
          "name": "tokenId",
          "type": "uint256"
        }
      ],
      "name": "approve",
      "outputs": [],
      "stateMutability": "nonpayable",
      "type": "function"
    },
    {
      "inputs": [
        {
          "internalType": "address",
          "name": "owner",
          "type": "address"
        }
      ],
      "name": "balanceOf",
      "outputs": [
        {
          "internalType": "uint256",
          "name": "",
          "type": "uint256"
        }
      ],
      "stateMutability": "view",
      "type": "function"
    },
    {
      "inputs": [],
      "name": "baseExtension",
      "outputs": [
        {
          "internalType": "string",
          "name": "",
          "type": "string"
        }
      ],
      "stateMutability": "view",
      "type": "function"
    },
    {
      "inputs": [],
      "name": "baseURI",
      "outputs": [
        {
          "internalType": "string",
          "name": "",
          "type": "string"
        }
      ],
      "stateMutability": "view",
      "type": "function"
    },
    {
      "inputs": [],
      "name": "contractURI",
      "outputs": [
        {
          "internalType": "string",
          "name": "",
          "type": "string"
        }
      ],
      "stateMutability": "view",
      "type": "function"
    },
    {
      "inputs": [],
      "name": "elfId",
      "outputs": [
        {
          "internalType": "uint256",
          "name": "",
          "type": "uint256"
        }
      ],
      "stateMutability": "view",
      "type": "function"
    },
    {
      "inputs": [],
      "name": "elfPrice",
      "outputs": [
        {
          "internalType": "uint256",
          "name": "",
          "type": "uint256"
        }
      ],
      "stateMutability": "view",
      "type": "function"
    },
    {
      "inputs": [
        {
          "internalType": "uint256",
          "name": "tokenId",
          "type": "uint256"
        }
      ],
      "name": "getApproved",
      "outputs": [
        {
          "internalType": "address",
          "name": "",
          "type": "address"
        }
      ],
      "stateMutability": "view",
      "type": "function"
    },
    {
      "inputs": [
        {
          "internalType": "address",
          "name": "owner",
          "type": "address"
        },
        {
          "internalType": "address",
          "name": "operator",
          "type": "address"
        }
      ],
      "name": "isApprovedForAll",
      "outputs": [
        {
          "internalType": "bool",
          "name": "",
          "type": "bool"
        }
      ],
      "stateMutability": "view",
      "type": "function"
    },
    {
      "inputs": [],
      "name": "maxSupplyElves",
      "outputs": [
        {
          "internalType": "uint256",
          "name": "",
          "type": "uint256"
        }
      ],
      "stateMutability": "view",
      "type": "function"
    },
    {
      "inputs": [],
      "name": "maxSupplyReindeer",
      "outputs": [
        {
          "internalType": "uint256",
          "name": "",
          "type": "uint256"
        }
      ],
      "stateMutability": "view",
      "type": "function"
    },
    {
      "inputs": [],
      "name": "maxSupplySanta",
      "outputs": [
        {
          "internalType": "uint256",
          "name": "",
          "type": "uint256"
        }
      ],
      "stateMutability": "view",
      "type": "function"
    },
    {
      "inputs": [
        {
          "internalType": "address",
          "name": "recipient",
          "type": "address"
        },
        {
          "internalType": "uint256",
          "name": "tokenId",
          "type": "uint256"
        }
      ],
      "name": "mintNFT",
      "outputs": [],
      "stateMutability": "nonpayable",
      "type": "function"
    },
    {
      "inputs": [],
      "name": "mintWorkerElfWhitelistWhitelist",
      "outputs": [
        {
          "internalType": "uint256",
          "name": "",
          "type": "uint256"
        }
      ],
      "stateMutability": "nonpayable",
      "type": "function"
    },
    {
      "inputs": [],
      "name": "mintedElves",
      "outputs": [
        {
          "internalType": "uint256",
          "name": "",
          "type": "uint256"
        }
      ],
      "stateMutability": "view",
      "type": "function"
    },
    {
      "inputs": [],
      "name": "mintedReindeers",
      "outputs": [
        {
          "internalType": "uint256",
          "name": "",
          "type": "uint256"
        }
      ],
      "stateMutability": "view",
      "type": "function"
    },
    {
      "inputs": [],
      "name": "mintedSantas",
      "outputs": [
        {
          "internalType": "uint256",
          "name": "",
          "type": "uint256"
        }
      ],
      "stateMutability": "view",
      "type": "function"
    },
    {
      "inputs": [],
      "name": "name",
      "outputs": [
        {
          "internalType": "string",
          "name": "",
          "type": "string"
        }
      ],
      "stateMutability": "view",
      "type": "function"
    },
    {
      "inputs": [],
      "name": "owner",
      "outputs": [
        {
          "internalType": "address",
          "name": "",
          "type": "address"
        }
      ],
      "stateMutability": "view",
      "type": "function"
    },
    {
      "inputs": [
        {
          "internalType": "uint256",
          "name": "tokenId",
          "type": "uint256"
        }
      ],
      "name": "ownerOf",
      "outputs": [
        {
          "internalType": "address",
          "name": "",
          "type": "address"
        }
      ],
      "stateMutability": "view",
      "type": "function"
    },
    {
      "inputs": [],
      "name": "publicElfMint",
      "outputs": [
        {
          "internalType": "uint256",
          "name": "",
          "type": "uint256"
        }
      ],
      "stateMutability": "payable",
      "type": "function"
    },
    {
      "inputs": [],
      "name": "publicReindeerMint",
      "outputs": [
        {
          "internalType": "uint256",
          "name": "",
          "type": "uint256"
        }
      ],
      "stateMutability": "payable",
      "type": "function"
    },
    {
      "inputs": [],
      "name": "reindeerId",
      "outputs": [
        {
          "internalType": "uint256",
          "name": "",
          "type": "uint256"
        }
      ],
      "stateMutability": "view",
      "type": "function"
    },
    {
      "inputs": [],
      "name": "reindeerPrice",
      "outputs": [
        {
          "internalType": "uint256",
          "name": "",
          "type": "uint256"
        }
      ],
      "stateMutability": "view",
      "type": "function"
    },
    {
      "inputs": [
        {
          "internalType": "address[]",
          "name": "_addresses",
          "type": "address[]"
        }
      ],
      "name": "removeWorkerElfWhitelist",
      "outputs": [],
      "stateMutability": "nonpayable",
      "type": "function"
    },
    {
      "inputs": [],
      "name": "renounceOwnership",
      "outputs": [],
      "stateMutability": "nonpayable",
      "type": "function"
    },
    {
      "inputs": [
        {
          "internalType": "address",
          "name": "from",
          "type": "address"
        },
        {
          "internalType": "address",
          "name": "to",
          "type": "address"
        },
        {
          "internalType": "uint256",
          "name": "tokenId",
          "type": "uint256"
        }
      ],
      "name": "safeTransferFrom",
      "outputs": [],
      "stateMutability": "nonpayable",
      "type": "function"
    },
    {
      "inputs": [
        {
          "internalType": "address",
          "name": "from",
          "type": "address"
        },
        {
          "internalType": "address",
          "name": "to",
          "type": "address"
        },
        {
          "internalType": "uint256",
          "name": "tokenId",
          "type": "uint256"
        },
        {
          "internalType": "bytes",
          "name": "_data",
          "type": "bytes"
        }
      ],
      "name": "safeTransferFrom",
      "outputs": [],
      "stateMutability": "nonpayable",
      "type": "function"
    },
    {
      "inputs": [],
      "name": "santaId",
      "outputs": [
        {
          "internalType": "uint256",
          "name": "",
          "type": "uint256"
        }
      ],
      "stateMutability": "view",
      "type": "function"
    },
    {
      "inputs": [
        {
          "internalType": "address",
          "name": "operator",
          "type": "address"
        },
        {
          "internalType": "bool",
          "name": "approved",
          "type": "bool"
        }
      ],
      "name": "setApprovalForAll",
      "outputs": [],
      "stateMutability": "nonpayable",
      "type": "function"
    },
    {
      "inputs": [
        {
          "internalType": "string",
          "name": "_baseExtension",
          "type": "string"
        }
      ],
      "name": "setBaseExtension",
      "outputs": [],
      "stateMutability": "nonpayable",
      "type": "function"
    },
    {
      "inputs": [
        {
          "internalType": "string",
          "name": "_baseURI",
          "type": "string"
        }
      ],
      "name": "setBaseURI",
      "outputs": [],
      "stateMutability": "nonpayable",
      "type": "function"
    },
    {
      "inputs": [
        {
          "internalType": "uint256",
          "name": "_elfPrice",
          "type": "uint256"
        },
        {
          "internalType": "uint256",
          "name": "_reindeerPrice",
          "type": "uint256"
        }
      ],
      "name": "setPrice",
      "outputs": [],
      "stateMutability": "nonpayable",
      "type": "function"
    },
    {
      "inputs": [
        {
          "internalType": "address[]",
          "name": "_addresses",
          "type": "address[]"
        }
      ],
      "name": "setWorkerElfWhitelist",
      "outputs": [],
      "stateMutability": "nonpayable",
      "type": "function"
    },
    {
      "inputs": [
        {
          "internalType": "bytes4",
          "name": "interfaceId",
          "type": "bytes4"
        }
      ],
      "name": "supportsInterface",
      "outputs": [
        {
          "internalType": "bool",
          "name": "",
          "type": "bool"
        }
      ],
      "stateMutability": "view",
      "type": "function"
    },
    {
      "inputs": [],
      "name": "symbol",
      "outputs": [
        {
          "internalType": "string",
          "name": "",
          "type": "string"
        }
      ],
      "stateMutability": "view",
      "type": "function"
    },
    {
      "inputs": [
        {
          "internalType": "uint256",
          "name": "tokenId",
          "type": "uint256"
        }
      ],
      "name": "tokenURI",
      "outputs": [
        {
          "internalType": "string",
          "name": "",
          "type": "string"
        }
      ],
      "stateMutability": "view",
      "type": "function"
    },
    {
      "inputs": [
        {
          "internalType": "address",
          "name": "from",
          "type": "address"
        },
        {
          "internalType": "address",
          "name": "to",
          "type": "address"
        },
        {
          "internalType": "uint256",
          "name": "tokenId",
          "type": "uint256"
        }
      ],
      "name": "transferFrom",
      "outputs": [],
      "stateMutability": "nonpayable",
      "type": "function"
    },
    {
      "inputs": [
        {
          "internalType": "address",
          "name": "newOwner",
          "type": "address"
        }
      ],
      "name": "transferOwnership",
      "outputs": [],
      "stateMutability": "nonpayable",
      "type": "function"
    },
    {
      "inputs": [
        {
          "internalType": "address payable",
          "name": "_to",
          "type": "address"
        }
      ],
      "name": "withdraw",
      "outputs": [],
      "stateMutability": "nonpayable",
      "type": "function"
    },
    {
      "inputs": [],
      "name": "workerElfId",
      "outputs": [
        {
          "internalType": "uint256",
          "name": "",
          "type": "uint256"
        }
      ],
      "stateMutability": "view",
      "type": "function"
    },
    {
      "inputs": [
        {
          "internalType": "address",
          "name": "",
          "type": "address"
        }
      ],
      "name": "workerElfWhitelist",
      "outputs": [
        {
          "internalType": "bool",
          "name": "",
          "type": "bool"
        }
      ],
      "stateMutability": "view",
      "type": "function"
    }
  ],
  "bytecode": "0x60806040526040518060400160405280600581526020017f2e6a736f6e000000000000000000000000000000000000000000000000000000815250600a908051906020019062000051929190620004d7565b506005600b556000600c556001600d556101f4600e556000600f5560066010556102d060115560006012556101fa6013556104ca60145567016345785d8a00006016556706f05b59d3b20000601755348015620000ad57600080fd5b5060405162004841380380620048418339818101604052810190620000d39190620005f9565b6040518060400160405280600a81526020017f456c6644414f204e4654000000000000000000000000000000000000000000008152506040518060400160405280600681526020017f454c4644414f0000000000000000000000000000000000000000000000000000815250816000908051906020019062000157929190620004d7565b50806001908051906020019062000170929190620004d7565b5050506200019362000187620001cf60201b60201c565b620001d760201b60201c565b620001a4816200029d60201b60201c565b620001b5836200034860201b60201c565b620001c6826200040260201b60201c565b50505062000840565b600033905090565b6000600760009054906101000a900473ffffffffffffffffffffffffffffffffffffffff16905081600760006101000a81548173ffffffffffffffffffffffffffffffffffffffff021916908373ffffffffffffffffffffffffffffffffffffffff1602179055508173ffffffffffffffffffffffffffffffffffffffff168173ffffffffffffffffffffffffffffffffffffffff167f8be0079c531659141344cd1fd0a4f28419497f9722a3daafe3b4186f6b6457e060405160405180910390a35050565b620002ad620001cf60201b60201c565b73ffffffffffffffffffffffffffffffffffffffff16620002d3620004ad60201b60201c565b73ffffffffffffffffffffffffffffffffffffffff16146200032c576040517f08c379a00000000000000000000000000000000000000000000000000000000081526004016200032390620006dc565b60405180910390fd5b806008908051906020019062000344929190620004d7565b5050565b62000358620001cf60201b60201c565b73ffffffffffffffffffffffffffffffffffffffff166200037e620004ad60201b60201c565b73ffffffffffffffffffffffffffffffffffffffff1614620003d7576040517f08c379a0000000000000000000000000000000000000000000000000000000008152600401620003ce90620006dc565b60405180910390fd5b6000815111620003e657600080fd5b8060099080519060200190620003fe929190620004d7565b5050565b62000412620001cf60201b60201c565b73ffffffffffffffffffffffffffffffffffffffff1662000438620004ad60201b60201c565b73ffffffffffffffffffffffffffffffffffffffff161462000491576040517f08c379a00000000000000000000000000000000000000000000000000000000081526004016200048890620006dc565b60405180910390fd5b80600a9080519060200190620004a9929190620004d7565b5050565b6000600760009054906101000a900473ffffffffffffffffffffffffffffffffffffffff16905090565b828054620004e590620007ac565b90600052602060002090601f01602090048101928262000509576000855562000555565b82601f106200052457805160ff191683800117855562000555565b8280016001018555821562000555579182015b828111156200055457825182559160200191906001019062000537565b5b50905062000564919062000568565b5090565b5b808211156200058357600081600090555060010162000569565b5090565b60006200059e620005988462000732565b620006fe565b905082815260208101848484011115620005b757600080fd5b620005c484828562000776565b509392505050565b600082601f830112620005de57600080fd5b8151620005f084826020860162000587565b91505092915050565b6000806000606084860312156200060f57600080fd5b600084015167ffffffffffffffff8111156200062a57600080fd5b6200063886828701620005cc565b935050602084015167ffffffffffffffff8111156200065657600080fd5b6200066486828701620005cc565b925050604084015167ffffffffffffffff8111156200068257600080fd5b6200069086828701620005cc565b9150509250925092565b6000620006a960208362000765565b91507f4f776e61626c653a2063616c6c6572206973206e6f7420746865206f776e65726000830152602082019050919050565b60006020820190508181036000830152620006f7816200069a565b9050919050565b6000604051905081810181811067ffffffffffffffff8211171562000728576200072762000811565b5b8060405250919050565b600067ffffffffffffffff82111562000750576200074f62000811565b5b601f19601f8301169050602081019050919050565b600082825260208201905092915050565b60005b838110156200079657808201518184015260208101905062000779565b83811115620007a6576000848401525b50505050565b60006002820490506001821680620007c557607f821691505b60208210811415620007dc57620007db620007e2565b5b50919050565b7f4e487b7100000000000000000000000000000000000000000000000000000000600052602260045260246000fd5b7f4e487b7100000000000000000000000000000000000000000000000000000000600052604160045260246000fd5b613ff180620008506000396000f3fe6080604052600436106102515760003560e01c80636c0360eb11610139578063b88d4fde116100b6578063e8a3d4851161007a578063e8a3d48514610885578063e985e9c5146108b0578063eb21a7ee146108ed578063f2fde38b1461090b578063f7d7d3ae14610934578063f7d975771461097157610251565b8063b88d4fde146107a0578063c6682862146107c9578063c87b56dd146107f4578063da3ef23f14610831578063deee82171461085a57610251565b80638d95201f116100fd5780638d95201f146106cd5780638da5cb5b146106f657806395d89b4114610721578063a22cb4651461074c578063aa55c86f1461077557610251565b80636c0360eb146105f857806370a0823114610623578063715018a6146106605780637eabf1321461067757806388a49e04146106a257610251565b8063353e61ec116101d257806351cff8d91161019657806351cff8d9146104e857806352f1313c1461051157806355f804b31461053c57806358eb6d60146105655780635b3099ce146105905780636352211e146105bb57610251565b8063353e61ec146104225780633c168eab1461044057806342842e0e1461046957806345e4829f146104925780634673615f146104bd57610251565b806323b872dd1161021957806323b872dd1461034f57806326acbadd146103785780632a406c9d146103a1578063303c02c2146103cc57806331f4d45d146103f757610251565b806301ffc9a71461025657806306fdde0314610293578063081812fc146102be578063095ea7b3146102fb5780631a23cfe214610324575b600080fd5b34801561026257600080fd5b5061027d60048036038101906102789190612e7e565b61099a565b60405161028a9190613854565b60405180910390f35b34801561029f57600080fd5b506102a8610a7c565b6040516102b5919061386f565b60405180910390f35b3480156102ca57600080fd5b506102e560048036038101906102e09190612f11565b610b0e565b6040516102f291906137ed565b60405180910390f35b34801561030757600080fd5b50610322600480360381019061031d9190612e01565b610b93565b005b34801561033057600080fd5b50610339610cab565b6040516103469190613b11565b60405180910390f35b34801561035b57600080fd5b5061037660048036038101906103719190612cfb565b610cb1565b005b34801561038457600080fd5b5061039f600480360381019061039a9190612e3d565b610d11565b005b3480156103ad57600080fd5b506103b6610ef8565b6040516103c39190613b11565b60405180910390f35b3480156103d857600080fd5b506103e1610efe565b6040516103ee9190613b11565b60405180910390f35b34801561040357600080fd5b5061040c611010565b6040516104199190613b11565b60405180910390f35b61042a611016565b6040516104379190613b11565b60405180910390f35b34801561044c57600080fd5b5061046760048036038101906104629190612e01565b6110b1565b005b34801561047557600080fd5b50610490600480360381019061048b9190612cfb565b61113b565b005b34801561049e57600080fd5b506104a761115b565b6040516104b49190613b11565b60405180910390f35b3480156104c957600080fd5b506104d2611161565b6040516104df9190613b11565b60405180910390f35b3480156104f457600080fd5b5061050f600480360381019061050a9190612c96565b611167565b005b34801561051d57600080fd5b50610526611299565b6040516105339190613b11565b60405180910390f35b34801561054857600080fd5b50610563600480360381019061055e9190612ed0565b61129f565b005b34801561057157600080fd5b5061057a611343565b6040516105879190613b11565b60405180910390f35b34801561059c57600080fd5b506105a5611349565b6040516105b29190613b11565b60405180910390f35b3480156105c757600080fd5b506105e260048036038101906105dd9190612f11565b61134f565b6040516105ef91906137ed565b60405180910390f35b34801561060457600080fd5b5061060d611401565b60405161061a919061386f565b60405180910390f35b34801561062f57600080fd5b5061064a60048036038101906106459190612c6d565b61148f565b6040516106579190613b11565b60405180910390f35b34801561066c57600080fd5b50610675611547565b005b34801561068357600080fd5b5061068c6115cf565b6040516106999190613b11565b60405180910390f35b3480156106ae57600080fd5b506106b76115d5565b6040516106c49190613b11565b60405180910390f35b3480156106d957600080fd5b506106f460048036038101906106ef9190612e3d565b6115db565b005b34801561070257600080fd5b5061070b611712565b60405161071891906137ed565b60405180910390f35b34801561072d57600080fd5b5061073661173c565b604051610743919061386f565b60405180910390f35b34801561075857600080fd5b50610773600480360381019061076e9190612dc5565b6117ce565b005b34801561078157600080fd5b5061078a6117e4565b6040516107979190613b11565b60405180910390f35b3480156107ac57600080fd5b506107c760048036038101906107c29190612d4a565b6117ea565b005b3480156107d557600080fd5b506107de61184c565b6040516107eb919061386f565b60405180910390f35b34801561080057600080fd5b5061081b60048036038101906108169190612f11565b6118da565b604051610828919061386f565b60405180910390f35b34801561083d57600080fd5b5061085860048036038101906108539190612ed0565b611959565b005b34801561086657600080fd5b5061086f6119ef565b60405161087c9190613b11565b60405180910390f35b34801561089157600080fd5b5061089a6119f5565b6040516108a7919061386f565b60405180910390f35b3480156108bc57600080fd5b506108d760048036038101906108d29190612cbf565b611a87565b6040516108e49190613854565b60405180910390f35b6108f5611b1b565b6040516109029190613b11565b60405180910390f35b34801561091757600080fd5b50610932600480360381019061092d9190612c6d565b611bb6565b005b34801561094057600080fd5b5061095b60048036038101906109569190612c6d565b611cae565b6040516109689190613854565b60405180910390f35b34801561097d57600080fd5b5061099860048036038101906109939190612f3a565b611cce565b005b60007f80ac58cd000000000000000000000000000000000000000000000000000000007bffffffffffffffffffffffffffffffffffffffffffffffffffffffff1916827bffffffffffffffffffffffffffffffffffffffffffffffffffffffff19161480610a6557507f5b5e139f000000000000000000000000000000000000000000000000000000007bffffffffffffffffffffffffffffffffffffffffffffffffffffffff1916827bffffffffffffffffffffffffffffffffffffffffffffffffffffffff1916145b80610a755750610a7482611d5c565b5b9050919050565b606060008054610a8b90613dcf565b80601f0160208091040260200160405190810160405280929190818152602001828054610ab790613dcf565b8015610b045780601f10610ad957610100808354040283529160200191610b04565b820191906000526020600020905b815481529060010190602001808311610ae757829003601f168201915b5050505050905090565b6000610b1982611dc6565b610b58576040517f08c379a0000000000000000000000000000000000000000000000000000000008152600401610b4f90613a71565b60405180910390fd5b6004600083815260200190815260200160002060009054906101000a900473ffffffffffffffffffffffffffffffffffffffff169050919050565b6000610b9e8261134f565b90508073ffffffffffffffffffffffffffffffffffffffff168373ffffffffffffffffffffffffffffffffffffffff161415610c0f576040517f08c379a0000000000000000000000000000000000000000000000000000000008152600401610c0690613ad1565b60405180910390fd5b8073ffffffffffffffffffffffffffffffffffffffff16610c2e611e32565b73ffffffffffffffffffffffffffffffffffffffff161480610c5d5750610c5c81610c57611e32565b611a87565b5b610c9c576040517f08c379a0000000000000000000000000000000000000000000000000000000008152600401610c93906139d1565b60405180910390fd5b610ca68383611e3a565b505050565b60175481565b610cc2610cbc611e32565b82611ef3565b610d01576040517f08c379a0000000000000000000000000000000000000000000000000000000008152600401610cf890613af1565b60405180910390fd5b610d0c838383611fd1565b505050565b610d19611e32565b73ffffffffffffffffffffffffffffffffffffffff16610d37611712565b73ffffffffffffffffffffffffffffffffffffffff1614610d8d576040517f08c379a0000000000000000000000000000000000000000000000000000000008152600401610d8490613a91565b60405180910390fd5b60005b8151811015610ef457600073ffffffffffffffffffffffffffffffffffffffff16828281518110610dea577f4e487b7100000000000000000000000000000000000000000000000000000000600052603260045260246000fd5b602002602001015173ffffffffffffffffffffffffffffffffffffffff161415610e49576040517f08c379a0000000000000000000000000000000000000000000000000000000008152600401610e4090613931565b60405180910390fd5b600160156000848481518110610e88577f4e487b7100000000000000000000000000000000000000000000000000000000600052603260045260246000fd5b602002602001015173ffffffffffffffffffffffffffffffffffffffff1673ffffffffffffffffffffffffffffffffffffffff16815260200190815260200160002060006101000a81548160ff0219169083151502179055508080610eec90613e01565b915050610d90565b5050565b60105481565b6000601560003373ffffffffffffffffffffffffffffffffffffffff1673ffffffffffffffffffffffffffffffffffffffff16815260200190815260200160002060009054906101000a900460ff16610f8c576040517f08c379a0000000000000000000000000000000000000000000000000000000008152600401610f8390613911565b60405180910390fd5b6000601560003373ffffffffffffffffffffffffffffffffffffffff1673ffffffffffffffffffffffffffffffffffffffff16815260200190815260200160002060006101000a81548160ff021916908315150217905550610ff0336014546110b1565b6014600081548092919061100390613e01565b9190505550601454905090565b600d5481565b600060165434101561105d576040517f08c379a000000000000000000000000000000000000000000000000000000000815260040161105490613891565b60405180910390fd5b6011546012541061106d57600080fd5b6012600081548092919061108090613e01565b9190505550611091336013546110b1565b601360008154809291906110a490613e01565b9190505550601354905090565b6110b9611e32565b73ffffffffffffffffffffffffffffffffffffffff166110d7611712565b73ffffffffffffffffffffffffffffffffffffffff161461112d576040517f08c379a000000000000000000000000000000000000000000000000000000000815260040161112490613a91565b60405180910390fd5b611137828261222d565b5050565b611156838383604051806020016040528060008152506117ea565b505050565b60145481565b600c5481565b61116f611e32565b73ffffffffffffffffffffffffffffffffffffffff1661118d611712565b73ffffffffffffffffffffffffffffffffffffffff16146111e3576040517f08c379a00000000000000000000000000000000000000000000000000000000081526004016111da90613a91565b60405180910390fd5b600047905060008273ffffffffffffffffffffffffffffffffffffffff168260405161120e906137d8565b60006040518083038185875af1925050503d806000811461124b576040519150601f19603f3d011682016040523d82523d6000602084013e611250565b606091505b5050905080611294576040517f08c379a000000000000000000000000000000000000000000000000000000000815260040161128b90613951565b60405180910390fd5b505050565b600e5481565b6112a7611e32565b73ffffffffffffffffffffffffffffffffffffffff166112c5611712565b73ffffffffffffffffffffffffffffffffffffffff161461131b576040517f08c379a000000000000000000000000000000000000000000000000000000000815260040161131290613a91565b60405180910390fd5b600081511161132957600080fd5b806009908051906020019061133f9291906129e6565b5050565b60125481565b600f5481565b6000806002600084815260200190815260200160002060009054906101000a900473ffffffffffffffffffffffffffffffffffffffff169050600073ffffffffffffffffffffffffffffffffffffffff168173ffffffffffffffffffffffffffffffffffffffff1614156113f8576040517f08c379a00000000000000000000000000000000000000000000000000000000081526004016113ef90613a11565b60405180910390fd5b80915050919050565b6009805461140e90613dcf565b80601f016020809104026020016040519081016040528092919081815260200182805461143a90613dcf565b80156114875780601f1061145c57610100808354040283529160200191611487565b820191906000526020600020905b81548152906001019060200180831161146a57829003601f168201915b505050505081565b60008073ffffffffffffffffffffffffffffffffffffffff168273ffffffffffffffffffffffffffffffffffffffff161415611500576040517f08c379a00000000000000000000000000000000000000000000000000000000081526004016114f7906139f1565b60405180910390fd5b600360008373ffffffffffffffffffffffffffffffffffffffff1673ffffffffffffffffffffffffffffffffffffffff168152602001908152602001600020549050919050565b61154f611e32565b73ffffffffffffffffffffffffffffffffffffffff1661156d611712565b73ffffffffffffffffffffffffffffffffffffffff16146115c3576040517f08c379a00000000000000000000000000000000000000000000000000000000081526004016115ba90613a91565b60405180910390fd5b6115cd60006123fb565b565b60165481565b600b5481565b6115e3611e32565b73ffffffffffffffffffffffffffffffffffffffff16611601611712565b73ffffffffffffffffffffffffffffffffffffffff1614611657576040517f08c379a000000000000000000000000000000000000000000000000000000000815260040161164e90613a91565b60405180910390fd5b60005b815181101561170e576000601560008484815181106116a2577f4e487b7100000000000000000000000000000000000000000000000000000000600052603260045260246000fd5b602002602001015173ffffffffffffffffffffffffffffffffffffffff1673ffffffffffffffffffffffffffffffffffffffff16815260200190815260200160002060006101000a81548160ff021916908315150217905550808061170690613e01565b91505061165a565b5050565b6000600760009054906101000a900473ffffffffffffffffffffffffffffffffffffffff16905090565b60606001805461174b90613dcf565b80601f016020809104026020016040519081016040528092919081815260200182805461177790613dcf565b80156117c45780601f10611799576101008083540402835291602001916117c4565b820191906000526020600020905b8154815290600101906020018083116117a757829003601f168201915b5050505050905090565b6117e06117d9611e32565b83836124c1565b5050565b60115481565b6117fb6117f5611e32565b83611ef3565b61183a576040517f08c379a000000000000000000000000000000000000000000000000000000000815260040161183190613af1565b60405180910390fd5b6118468484848461262e565b50505050565b600a805461185990613dcf565b80601f016020809104026020016040519081016040528092919081815260200182805461188590613dcf565b80156118d25780601f106118a7576101008083540402835291602001916118d2565b820191906000526020600020905b8154815290600101906020018083116118b557829003601f168201915b505050505081565b60606118e582611dc6565b611924576040517f08c379a000000000000000000000000000000000000000000000000000000000815260040161191b90613a51565b60405180910390fd5b600961192f8361268a565b600a604051602001611943939291906137a7565b6040516020818303038152906040529050919050565b611961611e32565b73ffffffffffffffffffffffffffffffffffffffff1661197f611712565b73ffffffffffffffffffffffffffffffffffffffff16146119d5576040517f08c379a00000000000000000000000000000000000000000000000000000000081526004016119cc90613a91565b60405180910390fd5b80600a90805190602001906119eb9291906129e6565b5050565b60135481565b606060088054611a0490613dcf565b80601f0160208091040260200160405190810160405280929190818152602001828054611a3090613dcf565b8015611a7d5780601f10611a5257610100808354040283529160200191611a7d565b820191906000526020600020905b815481529060010190602001808311611a6057829003601f168201915b5050505050905090565b6000600560008473ffffffffffffffffffffffffffffffffffffffff1673ffffffffffffffffffffffffffffffffffffffff16815260200190815260200160002060008373ffffffffffffffffffffffffffffffffffffffff1673ffffffffffffffffffffffffffffffffffffffff16815260200190815260200160002060009054906101000a900460ff16905092915050565b6000601754341015611b62576040517f08c379a0000000000000000000000000000000000000000000000000000000008152600401611b5990613891565b60405180910390fd5b600e54600f5410611b7257600080fd5b600f6000815480929190611b8590613e01565b9190505550611b96336010546110b1565b60106000815480929190611ba990613e01565b9190505550601054905090565b611bbe611e32565b73ffffffffffffffffffffffffffffffffffffffff16611bdc611712565b73ffffffffffffffffffffffffffffffffffffffff1614611c32576040517f08c379a0000000000000000000000000000000000000000000000000000000008152600401611c2990613a91565b60405180910390fd5b600073ffffffffffffffffffffffffffffffffffffffff168173ffffffffffffffffffffffffffffffffffffffff161415611ca2576040517f08c379a0000000000000000000000000000000000000000000000000000000008152600401611c99906138d1565b60405180910390fd5b611cab816123fb565b50565b60156020528060005260406000206000915054906101000a900460ff1681565b611cd6611e32565b73ffffffffffffffffffffffffffffffffffffffff16611cf4611712565b73ffffffffffffffffffffffffffffffffffffffff1614611d4a576040517f08c379a0000000000000000000000000000000000000000000000000000000008152600401611d4190613a91565b60405180910390fd5b81601681905550806017819055505050565b60007f01ffc9a7000000000000000000000000000000000000000000000000000000007bffffffffffffffffffffffffffffffffffffffffffffffffffffffff1916827bffffffffffffffffffffffffffffffffffffffffffffffffffffffff1916149050919050565b60008073ffffffffffffffffffffffffffffffffffffffff166002600084815260200190815260200160002060009054906101000a900473ffffffffffffffffffffffffffffffffffffffff1673ffffffffffffffffffffffffffffffffffffffff1614159050919050565b600033905090565b816004600083815260200190815260200160002060006101000a81548173ffffffffffffffffffffffffffffffffffffffff021916908373ffffffffffffffffffffffffffffffffffffffff160217905550808273ffffffffffffffffffffffffffffffffffffffff16611ead8361134f565b73ffffffffffffffffffffffffffffffffffffffff167f8c5be1e5ebec7d5bd14f71427d1e84f3dd0314c0f7b2291e5b200ac8c7c3b92560405160405180910390a45050565b6000611efe82611dc6565b611f3d576040517f08c379a0000000000000000000000000000000000000000000000000000000008152600401611f34906139b1565b60405180910390fd5b6000611f488361134f565b90508073ffffffffffffffffffffffffffffffffffffffff168473ffffffffffffffffffffffffffffffffffffffff161480611fb757508373ffffffffffffffffffffffffffffffffffffffff16611f9f84610b0e565b73ffffffffffffffffffffffffffffffffffffffff16145b80611fc85750611fc78185611a87565b5b91505092915050565b8273ffffffffffffffffffffffffffffffffffffffff16611ff18261134f565b73ffffffffffffffffffffffffffffffffffffffff1614612047576040517f08c379a000000000000000000000000000000000000000000000000000000000815260040161203e90613ab1565b60405180910390fd5b600073ffffffffffffffffffffffffffffffffffffffff168273ffffffffffffffffffffffffffffffffffffffff1614156120b7576040517f08c379a00000000000000000000000000000000000000000000000000000000081526004016120ae90613971565b60405180910390fd5b6120c2838383612837565b6120cd600082611e3a565b6001600360008573ffffffffffffffffffffffffffffffffffffffff1673ffffffffffffffffffffffffffffffffffffffff168152602001908152602001600020600082825461211d9190613cd3565b925050819055506001600360008473ffffffffffffffffffffffffffffffffffffffff1673ffffffffffffffffffffffffffffffffffffffff16815260200190815260200160002060008282546121749190613c4c565b92505081905550816002600083815260200190815260200160002060006101000a81548173ffffffffffffffffffffffffffffffffffffffff021916908373ffffffffffffffffffffffffffffffffffffffff160217905550808273ffffffffffffffffffffffffffffffffffffffff168473ffffffffffffffffffffffffffffffffffffffff167fddf252ad1be2c89b69c2b068fc378daa952ba7f163c4a11628f55a4df523b3ef60405160405180910390a4505050565b600073ffffffffffffffffffffffffffffffffffffffff168273ffffffffffffffffffffffffffffffffffffffff16141561229d576040517f08c379a000000000000000000000000000000000000000000000000000000000815260040161229490613a31565b60405180910390fd5b6122a681611dc6565b156122e6576040517f08c379a00000000000000000000000000000000000000000000000000000000081526004016122dd906138f1565b60405180910390fd5b6122f260008383612837565b6001600360008473ffffffffffffffffffffffffffffffffffffffff1673ffffffffffffffffffffffffffffffffffffffff16815260200190815260200160002060008282546123429190613c4c565b92505081905550816002600083815260200190815260200160002060006101000a81548173ffffffffffffffffffffffffffffffffffffffff021916908373ffffffffffffffffffffffffffffffffffffffff160217905550808273ffffffffffffffffffffffffffffffffffffffff16600073ffffffffffffffffffffffffffffffffffffffff167fddf252ad1be2c89b69c2b068fc378daa952ba7f163c4a11628f55a4df523b3ef60405160405180910390a45050565b6000600760009054906101000a900473ffffffffffffffffffffffffffffffffffffffff16905081600760006101000a81548173ffffffffffffffffffffffffffffffffffffffff021916908373ffffffffffffffffffffffffffffffffffffffff1602179055508173ffffffffffffffffffffffffffffffffffffffff168173ffffffffffffffffffffffffffffffffffffffff167f8be0079c531659141344cd1fd0a4f28419497f9722a3daafe3b4186f6b6457e060405160405180910390a35050565b8173ffffffffffffffffffffffffffffffffffffffff168373ffffffffffffffffffffffffffffffffffffffff161415612530576040517f08c379a000000000000000000000000000000000000000000000000000000000815260040161252790613991565b60405180910390fd5b80600560008573ffffffffffffffffffffffffffffffffffffffff1673ffffffffffffffffffffffffffffffffffffffff16815260200190815260200160002060008473ffffffffffffffffffffffffffffffffffffffff1673ffffffffffffffffffffffffffffffffffffffff16815260200190815260200160002060006101000a81548160ff0219169083151502179055508173ffffffffffffffffffffffffffffffffffffffff168373ffffffffffffffffffffffffffffffffffffffff167f17307eab39ab6107e8899845ad3d59bd9653f200f220920489ca2b5937696c31836040516126219190613854565b60405180910390a3505050565b612639848484611fd1565b6126458484848461283c565b612684576040517f08c379a000000000000000000000000000000000000000000000000000000000815260040161267b906138b1565b60405180910390fd5b50505050565b606060008214156126d2576040518060400160405280600181526020017f30000000000000000000000000000000000000000000000000000000000000008152509050612832565b600082905060005b600082146127045780806126ed90613e01565b915050600a826126fd9190613ca2565b91506126da565b60008167ffffffffffffffff811115612746577f4e487b7100000000000000000000000000000000000000000000000000000000600052604160045260246000fd5b6040519080825280601f01601f1916602001820160405280156127785781602001600182028036833780820191505090505b5090505b6000851461282b576001826127919190613cd3565b9150600a856127a09190613e4a565b60306127ac9190613c4c565b60f81b8183815181106127e8577f4e487b7100000000000000000000000000000000000000000000000000000000600052603260045260246000fd5b60200101907effffffffffffffffffffffffffffffffffffffffffffffffffffffffffffff1916908160001a905350600a856128249190613ca2565b945061277c565b8093505050505b919050565b505050565b600061285d8473ffffffffffffffffffffffffffffffffffffffff166129d3565b156129c6578373ffffffffffffffffffffffffffffffffffffffff1663150b7a02612886611e32565b8786866040518563ffffffff1660e01b81526004016128a89493929190613808565b602060405180830381600087803b1580156128c257600080fd5b505af19250505080156128f357506040513d601f19601f820116820180604052508101906128f09190612ea7565b60015b612976573d8060008114612923576040519150601f19603f3d011682016040523d82523d6000602084013e612928565b606091505b5060008151141561296e576040517f08c379a0000000000000000000000000000000000000000000000000000000008152600401612965906138b1565b60405180910390fd5b805181602001fd5b63150b7a0260e01b7bffffffffffffffffffffffffffffffffffffffffffffffffffffffff1916817bffffffffffffffffffffffffffffffffffffffffffffffffffffffff1916149150506129cb565b600190505b949350505050565b600080823b905060008111915050919050565b8280546129f290613dcf565b90600052602060002090601f016020900481019282612a145760008555612a5b565b82601f10612a2d57805160ff1916838001178555612a5b565b82800160010185558215612a5b579182015b82811115612a5a578251825591602001919060010190612a3f565b5b509050612a689190612a6c565b5090565b5b80821115612a85576000816000905550600101612a6d565b5090565b6000612a9c612a9784613b5d565b613b2c565b90508083825260208201905082856020860282011115612abb57600080fd5b60005b85811015612aeb5781612ad18882612b71565b845260208401935060208301925050600181019050612abe565b5050509392505050565b6000612b08612b0384613b89565b613b2c565b905082815260208101848484011115612b2057600080fd5b612b2b848285613d8d565b509392505050565b6000612b46612b4184613bb9565b613b2c565b905082815260208101848484011115612b5e57600080fd5b612b69848285613d8d565b509392505050565b600081359050612b8081613f48565b92915050565b600081359050612b9581613f5f565b92915050565b600082601f830112612bac57600080fd5b8135612bbc848260208601612a89565b91505092915050565b600081359050612bd481613f76565b92915050565b600081359050612be981613f8d565b92915050565b600081519050612bfe81613f8d565b92915050565b600082601f830112612c1557600080fd5b8135612c25848260208601612af5565b91505092915050565b600082601f830112612c3f57600080fd5b8135612c4f848260208601612b33565b91505092915050565b600081359050612c6781613fa4565b92915050565b600060208284031215612c7f57600080fd5b6000612c8d84828501612b71565b91505092915050565b600060208284031215612ca857600080fd5b6000612cb684828501612b86565b91505092915050565b60008060408385031215612cd257600080fd5b6000612ce085828601612b71565b9250506020612cf185828601612b71565b9150509250929050565b600080600060608486031215612d1057600080fd5b6000612d1e86828701612b71565b9350506020612d2f86828701612b71565b9250506040612d4086828701612c58565b9150509250925092565b60008060008060808587031215612d6057600080fd5b6000612d6e87828801612b71565b9450506020612d7f87828801612b71565b9350506040612d9087828801612c58565b925050606085013567ffffffffffffffff811115612dad57600080fd5b612db987828801612c04565b91505092959194509250565b60008060408385031215612dd857600080fd5b6000612de685828601612b71565b9250506020612df785828601612bc5565b9150509250929050565b60008060408385031215612e1457600080fd5b6000612e2285828601612b71565b9250506020612e3385828601612c58565b9150509250929050565b600060208284031215612e4f57600080fd5b600082013567ffffffffffffffff811115612e6957600080fd5b612e7584828501612b9b565b91505092915050565b600060208284031215612e9057600080fd5b6000612e9e84828501612bda565b91505092915050565b600060208284031215612eb957600080fd5b6000612ec784828501612bef565b91505092915050565b600060208284031215612ee257600080fd5b600082013567ffffffffffffffff811115612efc57600080fd5b612f0884828501612c2e565b91505092915050565b600060208284031215612f2357600080fd5b6000612f3184828501612c58565b91505092915050565b60008060408385031215612f4d57600080fd5b6000612f5b85828601612c58565b9250506020612f6c85828601612c58565b9150509250929050565b612f7f81613d07565b82525050565b612f8e81613d2b565b82525050565b6000612f9f82613bfe565b612fa98185613c14565b9350612fb9818560208601613d9c565b612fc281613f37565b840191505092915050565b6000612fd882613c09565b612fe28185613c30565b9350612ff2818560208601613d9c565b612ffb81613f37565b840191505092915050565b600061301182613c09565b61301b8185613c41565b935061302b818560208601613d9c565b80840191505092915050565b6000815461304481613dcf565b61304e8186613c41565b94506001821660008114613069576001811461307a576130ad565b60ff198316865281860193506130ad565b61308385613be9565b60005b838110156130a557815481890152600182019150602081019050613086565b838801955050505b50505092915050565b60006130c3601f83613c30565b91507f646964206e6f742070726f7669646520746865206d696e696d756d20657468006000830152602082019050919050565b6000613103603283613c30565b91507f4552433732313a207472616e7366657220746f206e6f6e20455243373231526560008301527f63656976657220696d706c656d656e74657200000000000000000000000000006020830152604082019050919050565b6000613169602683613c30565b91507f4f776e61626c653a206e6577206f776e657220697320746865207a65726f206160008301527f64647265737300000000000000000000000000000000000000000000000000006020830152604082019050919050565b60006131cf601c83613c30565b91507f4552433732313a20746f6b656e20616c7265616479206d696e746564000000006000830152602082019050919050565b600061320f601f83613c30565b91507f4e6f74206f6e2074686520776f726b657220656c662077686974656c697374006000830152602082019050919050565b600061324f601f83613c30565b91507f63616e2774206164642074686520626c61636b686f6c652061646472657373006000830152602082019050919050565b600061328f601483613c30565b91507f4661696c656420746f2073656e642045746865720000000000000000000000006000830152602082019050919050565b60006132cf602483613c30565b91507f4552433732313a207472616e7366657220746f20746865207a65726f2061646460008301527f72657373000000000000000000000000000000000000000000000000000000006020830152604082019050919050565b6000613335601983613c30565b91507f4552433732313a20617070726f766520746f2063616c6c6572000000000000006000830152602082019050919050565b6000613375602c83613c30565b91507f4552433732313a206f70657261746f7220717565727920666f72206e6f6e657860008301527f697374656e7420746f6b656e00000000000000000000000000000000000000006020830152604082019050919050565b60006133db603883613c30565b91507f4552433732313a20617070726f76652063616c6c6572206973206e6f74206f7760008301527f6e6572206e6f7220617070726f76656420666f7220616c6c00000000000000006020830152604082019050919050565b6000613441602a83613c30565b91507f4552433732313a2062616c616e636520717565727920666f7220746865207a6560008301527f726f2061646472657373000000000000000000000000000000000000000000006020830152604082019050919050565b60006134a7602983613c30565b91507f4552433732313a206f776e657220717565727920666f72206e6f6e657869737460008301527f656e7420746f6b656e00000000000000000000000000000000000000000000006020830152604082019050919050565b600061350d602083613c30565b91507f4552433732313a206d696e7420746f20746865207a65726f20616464726573736000830152602082019050919050565b600061354d602b83613c30565b91507f4552433732314d657461646174613a20717565727920666f72206e6f6e65786960008301527f7374656e7420746f6b656e0000000000000000000000000000000000000000006020830152604082019050919050565b60006135b3602c83613c30565b91507f4552433732313a20617070726f76656420717565727920666f72206e6f6e657860008301527f697374656e7420746f6b656e00000000000000000000000000000000000000006020830152604082019050919050565b6000613619602083613c30565b91507f4f776e61626c653a2063616c6c6572206973206e6f7420746865206f776e65726000830152602082019050919050565b6000613659602983613c30565b91507f4552433732313a207472616e73666572206f6620746f6b656e2074686174206960008301527f73206e6f74206f776e00000000000000000000000000000000000000000000006020830152604082019050919050565b60006136bf602183613c30565b91507f4552433732313a20617070726f76616c20746f2063757272656e74206f776e6560008301527f72000000000000000000000000000000000000000000000000000000000000006020830152604082019050919050565b6000613725600083613c25565b9150600082019050919050565b600061373f603183613c30565b91507f4552433732313a207472616e736665722063616c6c6572206973206e6f74206f60008301527f776e6572206e6f7220617070726f7665640000000000000000000000000000006020830152604082019050919050565b6137a181613d83565b82525050565b60006137b38286613037565b91506137bf8285613006565b91506137cb8284613037565b9150819050949350505050565b60006137e382613718565b9150819050919050565b60006020820190506138026000830184612f76565b92915050565b600060808201905061381d6000830187612f76565b61382a6020830186612f76565b6138376040830185613798565b81810360608301526138498184612f94565b905095945050505050565b60006020820190506138696000830184612f85565b92915050565b600060208201905081810360008301526138898184612fcd565b905092915050565b600060208201905081810360008301526138aa816130b6565b9050919050565b600060208201905081810360008301526138ca816130f6565b9050919050565b600060208201905081810360008301526138ea8161315c565b9050919050565b6000602082019050818103600083015261390a816131c2565b9050919050565b6000602082019050818103600083015261392a81613202565b9050919050565b6000602082019050818103600083015261394a81613242565b9050919050565b6000602082019050818103600083015261396a81613282565b9050919050565b6000602082019050818103600083015261398a816132c2565b9050919050565b600060208201905081810360008301526139aa81613328565b9050919050565b600060208201905081810360008301526139ca81613368565b9050919050565b600060208201905081810360008301526139ea816133ce565b9050919050565b60006020820190508181036000830152613a0a81613434565b9050919050565b60006020820190508181036000830152613a2a8161349a565b9050919050565b60006020820190508181036000830152613a4a81613500565b9050919050565b60006020820190508181036000830152613a6a81613540565b9050919050565b60006020820190508181036000830152613a8a816135a6565b9050919050565b60006020820190508181036000830152613aaa8161360c565b9050919050565b60006020820190508181036000830152613aca8161364c565b9050919050565b60006020820190508181036000830152613aea816136b2565b9050919050565b60006020820190508181036000830152613b0a81613732565b9050919050565b6000602082019050613b266000830184613798565b92915050565b6000604051905081810181811067ffffffffffffffff82111715613b5357613b52613f08565b5b8060405250919050565b600067ffffffffffffffff821115613b7857613b77613f08565b5b602082029050602081019050919050565b600067ffffffffffffffff821115613ba457613ba3613f08565b5b601f19601f8301169050602081019050919050565b600067ffffffffffffffff821115613bd457613bd3613f08565b5b601f19601f8301169050602081019050919050565b60008190508160005260206000209050919050565b600081519050919050565b600081519050919050565b600082825260208201905092915050565b600081905092915050565b600082825260208201905092915050565b600081905092915050565b6000613c5782613d83565b9150613c6283613d83565b9250827fffffffffffffffffffffffffffffffffffffffffffffffffffffffffffffffff03821115613c9757613c96613e7b565b5b828201905092915050565b6000613cad82613d83565b9150613cb883613d83565b925082613cc857613cc7613eaa565b5b828204905092915050565b6000613cde82613d83565b9150613ce983613d83565b925082821015613cfc57613cfb613e7b565b5b828203905092915050565b6000613d1282613d63565b9050919050565b6000613d2482613d63565b9050919050565b60008115159050919050565b60007fffffffff0000000000000000000000000000000000000000000000000000000082169050919050565b600073ffffffffffffffffffffffffffffffffffffffff82169050919050565b6000819050919050565b82818337600083830152505050565b60005b83811015613dba578082015181840152602081019050613d9f565b83811115613dc9576000848401525b50505050565b60006002820490506001821680613de757607f821691505b60208210811415613dfb57613dfa613ed9565b5b50919050565b6000613e0c82613d83565b91507fffffffffffffffffffffffffffffffffffffffffffffffffffffffffffffffff821415613e3f57613e3e613e7b565b5b600182019050919050565b6000613e5582613d83565b9150613e6083613d83565b925082613e7057613e6f613eaa565b5b828206905092915050565b7f4e487b7100000000000000000000000000000000000000000000000000000000600052601160045260246000fd5b7f4e487b7100000000000000000000000000000000000000000000000000000000600052601260045260246000fd5b7f4e487b7100000000000000000000000000000000000000000000000000000000600052602260045260246000fd5b7f4e487b7100000000000000000000000000000000000000000000000000000000600052604160045260246000fd5b6000601f19601f8301169050919050565b613f5181613d07565b8114613f5c57600080fd5b50565b613f6881613d19565b8114613f7357600080fd5b50565b613f7f81613d2b565b8114613f8a57600080fd5b50565b613f9681613d37565b8114613fa157600080fd5b50565b613fad81613d83565b8114613fb857600080fd5b5056fea2646970667358221220a3aec456123c96bd8a3c27d0294728f25aa3d2915f050ca50dc7c342bdadfc1464736f6c63430008000033",
  "linkReferences": {},
  "deployedLinkReferences": {}
}