{
  "_format": "hh-sol-artifact-1",
  "contractName": "ElfNFT",
  "sourceName": "contracts/elf.sol",
  "abi": [
    {
      "inputs": [
        {
          "internalType": "string",
          "name": "_baseURI",
          "type": "string"
        },
        {
          "internalType": "string",
          "name": "collectionURI",
          "type": "string"
        }
      ],
      "stateMutability": "nonpayable",
      "type": "constructor"
    },
    {
      "anonymous": false,
      "inputs": [
        {
          "indexed": true,
          "internalType": "address",
          "name": "owner",
          "type": "address"
        },
        {
          "indexed": true,
          "internalType": "address",
          "name": "approved",
          "type": "address"
        },
        {
          "indexed": true,
          "internalType": "uint256",
          "name": "tokenId",
          "type": "uint256"
        }
      ],
      "name": "Approval",
      "type": "event"
    },
    {
      "anonymous": false,
      "inputs": [
        {
          "indexed": true,
          "internalType": "address",
          "name": "owner",
          "type": "address"
        },
        {
          "indexed": true,
          "internalType": "address",
          "name": "operator",
          "type": "address"
        },
        {
          "indexed": false,
          "internalType": "bool",
          "name": "approved",
          "type": "bool"
        }
      ],
      "name": "ApprovalForAll",
      "type": "event"
    },
    {
      "anonymous": false,
      "inputs": [
        {
          "indexed": true,
          "internalType": "address",
          "name": "previousOwner",
          "type": "address"
        },
        {
          "indexed": true,
          "internalType": "address",
          "name": "newOwner",
          "type": "address"
        }
      ],
      "name": "OwnershipTransferred",
      "type": "event"
    },
    {
      "anonymous": false,
      "inputs": [
        {
          "indexed": true,
          "internalType": "address",
          "name": "from",
          "type": "address"
        },
        {
          "indexed": true,
          "internalType": "address",
          "name": "to",
          "type": "address"
        },
        {
          "indexed": true,
          "internalType": "uint256",
          "name": "tokenId",
          "type": "uint256"
        }
      ],
      "name": "Transfer",
      "type": "event"
    },
    {
      "inputs": [
        {
          "internalType": "address",
          "name": "to",
          "type": "address"
        },
        {
          "internalType": "uint256",
          "name": "tokenId",
          "type": "uint256"
        }
      ],
      "name": "approve",
      "outputs": [],
      "stateMutability": "nonpayable",
      "type": "function"
    },
    {
      "inputs": [
        {
          "internalType": "address",
          "name": "owner",
          "type": "address"
        }
      ],
      "name": "balanceOf",
      "outputs": [
        {
          "internalType": "uint256",
          "name": "",
          "type": "uint256"
        }
      ],
      "stateMutability": "view",
      "type": "function"
    },
    {
      "inputs": [],
      "name": "baseURI",
      "outputs": [
        {
          "internalType": "string",
          "name": "",
          "type": "string"
        }
      ],
      "stateMutability": "view",
      "type": "function"
    },
    {
      "inputs": [
        {
          "internalType": "address",
          "name": "",
          "type": "address"
        }
      ],
      "name": "claimed",
      "outputs": [
        {
          "internalType": "bool",
          "name": "",
          "type": "bool"
        }
      ],
      "stateMutability": "view",
      "type": "function"
    },
    {
      "inputs": [],
      "name": "contractURI",
      "outputs": [
        {
          "internalType": "string",
          "name": "",
          "type": "string"
        }
      ],
      "stateMutability": "view",
      "type": "function"
    },
    {
      "inputs": [],
      "name": "elfId",
      "outputs": [
        {
          "internalType": "uint256",
          "name": "",
          "type": "uint256"
        }
      ],
      "stateMutability": "view",
      "type": "function"
    },
    {
      "inputs": [],
      "name": "elfMerkleRoot",
      "outputs": [
        {
          "internalType": "bytes32",
          "name": "",
          "type": "bytes32"
        }
      ],
      "stateMutability": "view",
      "type": "function"
    },
    {
      "inputs": [
        {
          "internalType": "uint256",
          "name": "tokenId",
          "type": "uint256"
        }
      ],
      "name": "getApproved",
      "outputs": [
        {
          "internalType": "address",
          "name": "",
          "type": "address"
        }
      ],
      "stateMutability": "view",
      "type": "function"
    },
    {
      "inputs": [
        {
          "internalType": "address",
          "name": "owner",
          "type": "address"
        },
        {
          "internalType": "address",
          "name": "operator",
          "type": "address"
        }
      ],
      "name": "isApprovedForAll",
      "outputs": [
        {
          "internalType": "bool",
          "name": "",
          "type": "bool"
        }
      ],
      "stateMutability": "view",
      "type": "function"
    },
    {
      "inputs": [],
      "name": "maxReindeerId",
      "outputs": [
        {
          "internalType": "uint256",
          "name": "",
          "type": "uint256"
        }
      ],
      "stateMutability": "view",
      "type": "function"
    },
    {
      "inputs": [],
      "name": "maxSantaId",
      "outputs": [
        {
          "internalType": "uint256",
          "name": "",
          "type": "uint256"
        }
      ],
      "stateMutability": "view",
      "type": "function"
    },
    {
      "inputs": [],
      "name": "maxWorkerElfId",
      "outputs": [
        {
          "internalType": "uint256",
          "name": "",
          "type": "uint256"
        }
      ],
      "stateMutability": "view",
      "type": "function"
    },
    {
      "inputs": [
        {
          "internalType": "bytes32[]",
          "name": "merkleProof",
          "type": "bytes32[]"
        }
      ],
      "name": "mintElf",
      "outputs": [],
      "stateMutability": "nonpayable",
      "type": "function"
    },
    {
      "inputs": [
        {
          "internalType": "bytes32[]",
          "name": "merkleProof",
          "type": "bytes32[]"
        }
      ],
      "name": "mintReindeer",
      "outputs": [],
      "stateMutability": "nonpayable",
      "type": "function"
    },
    {
      "inputs": [
        {
          "internalType": "bytes32[]",
          "name": "merkleProof",
          "type": "bytes32[]"
        }
      ],
      "name": "mintSanta",
      "outputs": [],
      "stateMutability": "nonpayable",
      "type": "function"
    },
    {
      "inputs": [
        {
          "internalType": "bytes32[]",
          "name": "merkleProof",
          "type": "bytes32[]"
        }
      ],
      "name": "mintWorkerElf",
      "outputs": [],
      "stateMutability": "nonpayable",
      "type": "function"
    },
    {
      "inputs": [],
      "name": "name",
      "outputs": [
        {
          "internalType": "string",
          "name": "",
          "type": "string"
        }
      ],
      "stateMutability": "view",
      "type": "function"
    },
    {
      "inputs": [],
      "name": "owner",
      "outputs": [
        {
          "internalType": "address",
          "name": "",
          "type": "address"
        }
      ],
      "stateMutability": "view",
      "type": "function"
    },
    {
      "inputs": [
        {
          "internalType": "uint256",
          "name": "tokenId",
          "type": "uint256"
        }
      ],
      "name": "ownerOf",
      "outputs": [
        {
          "internalType": "address",
          "name": "",
          "type": "address"
        }
      ],
      "stateMutability": "view",
      "type": "function"
    },
    {
      "inputs": [],
      "name": "reindeerId",
      "outputs": [
        {
          "internalType": "uint256",
          "name": "",
          "type": "uint256"
        }
      ],
      "stateMutability": "view",
      "type": "function"
    },
    {
      "inputs": [],
      "name": "reindeerMerkleRoot",
      "outputs": [
        {
          "internalType": "bytes32",
          "name": "",
          "type": "bytes32"
        }
      ],
      "stateMutability": "view",
      "type": "function"
    },
    {
      "inputs": [],
      "name": "renounceOwnership",
      "outputs": [],
      "stateMutability": "nonpayable",
      "type": "function"
    },
    {
      "inputs": [
        {
          "internalType": "address",
          "name": "from",
          "type": "address"
        },
        {
          "internalType": "address",
          "name": "to",
          "type": "address"
        },
        {
          "internalType": "uint256",
          "name": "tokenId",
          "type": "uint256"
        }
      ],
      "name": "safeTransferFrom",
      "outputs": [],
      "stateMutability": "nonpayable",
      "type": "function"
    },
    {
      "inputs": [
        {
          "internalType": "address",
          "name": "from",
          "type": "address"
        },
        {
          "internalType": "address",
          "name": "to",
          "type": "address"
        },
        {
          "internalType": "uint256",
          "name": "tokenId",
          "type": "uint256"
        },
        {
          "internalType": "bytes",
          "name": "_data",
          "type": "bytes"
        }
      ],
      "name": "safeTransferFrom",
      "outputs": [],
      "stateMutability": "nonpayable",
      "type": "function"
    },
    {
      "inputs": [],
      "name": "santaId",
      "outputs": [
        {
          "internalType": "uint256",
          "name": "",
          "type": "uint256"
        }
      ],
      "stateMutability": "view",
      "type": "function"
    },
    {
      "inputs": [],
      "name": "santaMerkleRoot",
      "outputs": [
        {
          "internalType": "bytes32",
          "name": "",
          "type": "bytes32"
        }
      ],
      "stateMutability": "view",
      "type": "function"
    },
    {
      "inputs": [
        {
          "internalType": "address",
          "name": "operator",
          "type": "address"
        },
        {
          "internalType": "bool",
          "name": "approved",
          "type": "bool"
        }
      ],
      "name": "setApprovalForAll",
      "outputs": [],
      "stateMutability": "nonpayable",
      "type": "function"
    },
    {
      "inputs": [
        {
          "internalType": "string",
          "name": "_baseURI",
          "type": "string"
        }
      ],
      "name": "setBaseURI",
      "outputs": [],
      "stateMutability": "nonpayable",
      "type": "function"
    },
    {
      "inputs": [
        {
          "internalType": "bytes32",
          "name": "merkleRoot",
          "type": "bytes32"
        }
      ],
      "name": "setElfMerkleRoot",
      "outputs": [],
      "stateMutability": "nonpayable",
      "type": "function"
    },
    {
      "inputs": [
        {
          "internalType": "bytes32",
          "name": "merkleRoot",
          "type": "bytes32"
        }
      ],
      "name": "setReindeerMerkleRoot",
      "outputs": [],
      "stateMutability": "nonpayable",
      "type": "function"
    },
    {
      "inputs": [
        {
          "internalType": "bytes32",
          "name": "merkleRoot",
          "type": "bytes32"
        }
      ],
      "name": "setSantaMerkleRoot",
      "outputs": [],
      "stateMutability": "nonpayable",
      "type": "function"
    },
    {
      "inputs": [
        {
          "internalType": "bytes32",
          "name": "merkleRoot",
          "type": "bytes32"
        }
      ],
      "name": "setWorkerElfMerkleRoot",
      "outputs": [],
      "stateMutability": "nonpayable",
      "type": "function"
    },
    {
      "inputs": [
        {
          "internalType": "bytes4",
          "name": "interfaceId",
          "type": "bytes4"
        }
      ],
      "name": "supportsInterface",
      "outputs": [
        {
          "internalType": "bool",
          "name": "",
          "type": "bool"
        }
      ],
      "stateMutability": "view",
      "type": "function"
    },
    {
      "inputs": [],
      "name": "symbol",
      "outputs": [
        {
          "internalType": "string",
          "name": "",
          "type": "string"
        }
      ],
      "stateMutability": "view",
      "type": "function"
    },
    {
      "inputs": [
        {
          "internalType": "uint256",
          "name": "tokenId",
          "type": "uint256"
        }
      ],
      "name": "tokenURI",
      "outputs": [
        {
          "internalType": "string",
          "name": "",
          "type": "string"
        }
      ],
      "stateMutability": "view",
      "type": "function"
    },
    {
      "inputs": [
        {
          "internalType": "address",
          "name": "from",
          "type": "address"
        },
        {
          "internalType": "address",
          "name": "to",
          "type": "address"
        },
        {
          "internalType": "uint256",
          "name": "tokenId",
          "type": "uint256"
        }
      ],
      "name": "transferFrom",
      "outputs": [],
      "stateMutability": "nonpayable",
      "type": "function"
    },
    {
      "inputs": [
        {
          "internalType": "address",
          "name": "newOwner",
          "type": "address"
        }
      ],
      "name": "transferOwnership",
      "outputs": [],
      "stateMutability": "nonpayable",
      "type": "function"
    },
    {
      "inputs": [],
      "name": "withdraw",
      "outputs": [],
      "stateMutability": "nonpayable",
      "type": "function"
    },
    {
      "inputs": [
        {
          "internalType": "contract IERC20",
          "name": "token",
          "type": "address"
        }
      ],
      "name": "withdrawTokens",
      "outputs": [],
      "stateMutability": "nonpayable",
      "type": "function"
    },
    {
      "inputs": [],
      "name": "workerElfId",
      "outputs": [
        {
          "internalType": "uint256",
          "name": "",
          "type": "uint256"
        }
      ],
      "stateMutability": "view",
      "type": "function"
    },
    {
      "inputs": [],
      "name": "workerElfMerkleRoot",
      "outputs": [
        {
          "internalType": "bytes32",
          "name": "",
          "type": "bytes32"
        }
      ],
      "stateMutability": "view",
      "type": "function"
    }
  ],
  "bytecode": "0x60e060405260056080908152506001600b55601960a0908152506006600c556103e860c090815250601f600d556103e9600e553480156200003f57600080fd5b5060405162004d3b38038062004d3b8339818101604052810190620000659190620004c7565b6040518060400160405280600a81526020017f656c6644414f204e4654000000000000000000000000000000000000000000008152506040518060400160405280600681526020017f454c4644414f00000000000000000000000000000000000000000000000000008152508160009080519060200190620000e9929190620003a5565b50806001908051906020019062000102929190620003a5565b50505062000125620001196200015760201b60201c565b6200015f60201b60201c565b60016008819055506200013e826200022560201b60201c565b6200014f81620002d060201b60201c565b5050620006e0565b600033905090565b6000600760009054906101000a900473ffffffffffffffffffffffffffffffffffffffff16905081600760006101000a81548173ffffffffffffffffffffffffffffffffffffffff021916908373ffffffffffffffffffffffffffffffffffffffff1602179055508173ffffffffffffffffffffffffffffffffffffffff168173ffffffffffffffffffffffffffffffffffffffff167f8be0079c531659141344cd1fd0a4f28419497f9722a3daafe3b4186f6b6457e060405160405180910390a35050565b620002356200015760201b60201c565b73ffffffffffffffffffffffffffffffffffffffff166200025b6200037b60201b60201c565b73ffffffffffffffffffffffffffffffffffffffff1614620002b4576040517f08c379a0000000000000000000000000000000000000000000000000000000008152600401620002ab906200057c565b60405180910390fd5b80600a9080519060200190620002cc929190620003a5565b5050565b620002e06200015760201b60201c565b73ffffffffffffffffffffffffffffffffffffffff16620003066200037b60201b60201c565b73ffffffffffffffffffffffffffffffffffffffff16146200035f576040517f08c379a000000000000000000000000000000000000000000000000000000000815260040162000356906200057c565b60405180910390fd5b806009908051906020019062000377929190620003a5565b5050565b6000600760009054906101000a900473ffffffffffffffffffffffffffffffffffffffff16905090565b828054620003b3906200064c565b90600052602060002090601f016020900481019282620003d7576000855562000423565b82601f10620003f257805160ff191683800117855562000423565b8280016001018555821562000423579182015b828111156200042257825182559160200191906001019062000405565b5b50905062000432919062000436565b5090565b5b808211156200045157600081600090555060010162000437565b5090565b60006200046c6200046684620005d2565b6200059e565b9050828152602081018484840111156200048557600080fd5b6200049284828562000616565b509392505050565b600082601f830112620004ac57600080fd5b8151620004be84826020860162000455565b91505092915050565b60008060408385031215620004db57600080fd5b600083015167ffffffffffffffff811115620004f657600080fd5b62000504858286016200049a565b925050602083015167ffffffffffffffff8111156200052257600080fd5b62000530858286016200049a565b9150509250929050565b60006200054960208362000605565b91507f4f776e61626c653a2063616c6c6572206973206e6f7420746865206f776e65726000830152602082019050919050565b6000602082019050818103600083015262000597816200053a565b9050919050565b6000604051905081810181811067ffffffffffffffff82111715620005c857620005c7620006b1565b5b8060405250919050565b600067ffffffffffffffff821115620005f057620005ef620006b1565b5b601f19601f8301169050602081019050919050565b600082825260208201905092915050565b60005b838110156200063657808201518184015260208101905062000619565b8381111562000646576000848401525b50505050565b600060028204905060018216806200066557607f821691505b602082108114156200067c576200067b62000682565b5b50919050565b7f4e487b7100000000000000000000000000000000000000000000000000000000600052602260045260246000fd5b7f4e487b7100000000000000000000000000000000000000000000000000000000600052604160045260246000fd5b60805160a05160c05161461662000725600039600081816115d0015261195901526000818161075e015261170e0152600081816111b10152611c9301526146166000f3fe608060405234801561001057600080fd5b50600436106102535760003560e01c80638da5cb5b11610146578063b88d4fde116100c3578063deee821711610087578063deee82171461069a578063e8a3d485146106b8578063e985e9c5146106d6578063f2fde38b14610706578063f70cb14314610722578063ff0ced121461073e57610253565b8063b88d4fde146105e2578063bbfdfe72146105fe578063c87b56dd1461061c578063c884ef831461064c578063cc0528d11461067c57610253565b8063a4f364821161010a578063a4f3648214610556578063af49c95014610572578063b2ce09821461058e578063b4a6ed8d146105aa578063b79e9627146105c657610253565b80638da5cb5b146104c45780639353e048146104e257806395d89b41146104fe57806397b7efaa1461051c578063a22cb4651461053a57610253565b806342842e0e116101d457806368d6078f1161019857806368d6078f146104325780636c0360eb1461045057806370a082311461046e578063715018a61461049e578063887e22cd146104a857610253565b806342842e0e1461039057806345e4829f146103ac57806349df728c146103ca57806355f804b3146103e65780636352211e1461040257610253565b806312289d491161021b57806312289d491461031057806323b872dd1461032e5780632a406c9d1461034a57806331f4d45d146103685780633ccfd60b1461038657610253565b8063018e5d161461025857806301ffc9a71461027657806306fdde03146102a6578063081812fc146102c4578063095ea7b3146102f4575b600080fd5b61026061075c565b60405161026d9190614111565b60405180910390f35b610290600480360381019061028b9190613239565b610780565b60405161029d9190613df9565b60405180910390f35b6102ae610862565b6040516102bb9190613e2f565b60405180910390f35b6102de60048036038101906102d991906132f5565b6108f4565b6040516102eb9190613d69565b60405180910390f35b61030e60048036038101906103099190613166565b610979565b005b610318610a91565b6040516103259190613e14565b60405180910390f35b61034860048036038101906103439190613060565b610a97565b005b610352610af7565b60405161035f9190614111565b60405180910390f35b610370610afd565b60405161037d9190614111565b60405180910390f35b61038e610b03565b005b6103aa60048036038101906103a59190613060565b610bce565b005b6103b4610bee565b6040516103c19190614111565b60405180910390f35b6103e460048036038101906103df919061328b565b610bf4565b005b61040060048036038101906103fb91906132b4565b610d8f565b005b61041c600480360381019061041791906132f5565b610e25565b6040516104299190613d69565b60405180910390f35b61043a610ed7565b6040516104479190613e14565b60405180910390f35b610458610edd565b6040516104659190613e2f565b60405180910390f35b61048860048036038101906104839190612ffb565b610f6b565b6040516104959190614111565b60405180910390f35b6104a6611023565b005b6104c260048036038101906104bd91906131a2565b6110ab565b005b6104cc6112f6565b6040516104d99190613d69565b60405180910390f35b6104fc60048036038101906104f791906131a2565b611320565b005b61050661153c565b6040516105139190613e2f565b60405180910390f35b6105246115ce565b6040516105319190614111565b60405180910390f35b610554600480360381019061054f919061312a565b6115f2565b005b610570600480360381019061056b91906131a2565b611608565b005b61058c600480360381019061058791906131a2565b611853565b005b6105a860048036038101906105a39190613210565b611a9d565b005b6105c460048036038101906105bf9190613210565b611b23565b005b6105e060048036038101906105db9190613210565b611ba9565b005b6105fc60048036038101906105f791906130af565b611c2f565b005b610606611c91565b6040516106139190614111565b60405180910390f35b610636600480360381019061063191906132f5565b611cb5565b6040516106439190613e2f565b60405180910390f35b61066660048036038101906106619190612ffb565b611d31565b6040516106739190613df9565b60405180910390f35b610684611d51565b6040516106919190613e14565b60405180910390f35b6106a2611d57565b6040516106af9190614111565b60405180910390f35b6106c0611d5d565b6040516106cd9190613e2f565b60405180910390f35b6106f060048036038101906106eb9190613024565b611def565b6040516106fd9190613df9565b60405180910390f35b610720600480360381019061071b9190612ffb565b611e83565b005b61073c60048036038101906107379190613210565b611f7b565b005b610746612001565b6040516107539190613e14565b60405180910390f35b7f000000000000000000000000000000000000000000000000000000000000000081565b60007f80ac58cd000000000000000000000000000000000000000000000000000000007bffffffffffffffffffffffffffffffffffffffffffffffffffffffff1916827bffffffffffffffffffffffffffffffffffffffffffffffffffffffff1916148061084b57507f5b5e139f000000000000000000000000000000000000000000000000000000007bffffffffffffffffffffffffffffffffffffffffffffffffffffffff1916827bffffffffffffffffffffffffffffffffffffffffffffffffffffffff1916145b8061085b575061085a82612007565b5b9050919050565b606060008054610871906143a2565b80601f016020809104026020016040519081016040528092919081815260200182805461089d906143a2565b80156108ea5780601f106108bf576101008083540402835291602001916108ea565b820191906000526020600020905b8154815290600101906020018083116108cd57829003601f168201915b5050505050905090565b60006108ff82612071565b61093e576040517f08c379a000000000000000000000000000000000000000000000000000000000815260040161093590614031565b60405180910390fd5b6004600083815260200190815260200160002060009054906101000a900473ffffffffffffffffffffffffffffffffffffffff169050919050565b600061098482610e25565b90508073ffffffffffffffffffffffffffffffffffffffff168373ffffffffffffffffffffffffffffffffffffffff1614156109f5576040517f08c379a00000000000000000000000000000000000000000000000000000000081526004016109ec90614091565b60405180910390fd5b8073ffffffffffffffffffffffffffffffffffffffff16610a146120dd565b73ffffffffffffffffffffffffffffffffffffffff161480610a435750610a4281610a3d6120dd565b611def565b5b610a82576040517f08c379a0000000000000000000000000000000000000000000000000000000008152600401610a7990613f51565b60405180910390fd5b610a8c83836120e5565b505050565b60115481565b610aa8610aa26120dd565b8261219e565b610ae7576040517f08c379a0000000000000000000000000000000000000000000000000000000008152600401610ade906140d1565b60405180910390fd5b610af283838361227c565b505050565b600d5481565b600b5481565b610b0b6120dd565b73ffffffffffffffffffffffffffffffffffffffff16610b296112f6565b73ffffffffffffffffffffffffffffffffffffffff1614610b7f576040517f08c379a0000000000000000000000000000000000000000000000000000000008152600401610b7690614051565b60405180910390fd5b60004790503373ffffffffffffffffffffffffffffffffffffffff166108fc829081150290604051600060405180830381858888f19350505050158015610bca573d6000803e3d6000fd5b5050565b610be983838360405180602001604052806000815250611c2f565b505050565b600c5481565b610bfc6120dd565b73ffffffffffffffffffffffffffffffffffffffff16610c1a6112f6565b73ffffffffffffffffffffffffffffffffffffffff1614610c70576040517f08c379a0000000000000000000000000000000000000000000000000000000008152600401610c6790614051565b60405180910390fd5b60008173ffffffffffffffffffffffffffffffffffffffff166370a08231306040518263ffffffff1660e01b8152600401610cab9190613d69565b60206040518083038186803b158015610cc357600080fd5b505afa158015610cd7573d6000803e3d6000fd5b505050506040513d601f19601f82011682018060405250810190610cfb919061331e565b90508173ffffffffffffffffffffffffffffffffffffffff1663a9059cbb33836040518363ffffffff1660e01b8152600401610d38929190613dd0565b602060405180830381600087803b158015610d5257600080fd5b505af1158015610d66573d6000803e3d6000fd5b505050506040513d601f19601f82011682018060405250810190610d8a91906131e7565b505050565b610d976120dd565b73ffffffffffffffffffffffffffffffffffffffff16610db56112f6565b73ffffffffffffffffffffffffffffffffffffffff1614610e0b576040517f08c379a0000000000000000000000000000000000000000000000000000000008152600401610e0290614051565b60405180910390fd5b80600a9080519060200190610e21929190612d81565b5050565b6000806002600084815260200190815260200160002060009054906101000a900473ffffffffffffffffffffffffffffffffffffffff169050600073ffffffffffffffffffffffffffffffffffffffff168173ffffffffffffffffffffffffffffffffffffffff161415610ece576040517f08c379a0000000000000000000000000000000000000000000000000000000008152600401610ec590613fb1565b60405180910390fd5b80915050919050565b60125481565b600a8054610eea906143a2565b80601f0160208091040260200160405190810160405280929190818152602001828054610f16906143a2565b8015610f635780601f10610f3857610100808354040283529160200191610f63565b820191906000526020600020905b815481529060010190602001808311610f4657829003601f168201915b505050505081565b60008073ffffffffffffffffffffffffffffffffffffffff168273ffffffffffffffffffffffffffffffffffffffff161415610fdc576040517f08c379a0000000000000000000000000000000000000000000000000000000008152600401610fd390613f71565b60405180910390fd5b600360008373ffffffffffffffffffffffffffffffffffffffff1673ffffffffffffffffffffffffffffffffffffffff168152602001908152602001600020549050919050565b61102b6120dd565b73ffffffffffffffffffffffffffffffffffffffff166110496112f6565b73ffffffffffffffffffffffffffffffffffffffff161461109f576040517f08c379a000000000000000000000000000000000000000000000000000000000815260040161109690614051565b60405180910390fd5b6110a960006124d8565b565b8181600f54611122838380806020026020016040519081016040528093929190818152602001838360200280828437600081840152601f19601f8201169050808301925050505050505082336040516020016111079190613cf3565b6040516020818303038152906040528051906020012061259e565b611161576040517f08c379a000000000000000000000000000000000000000000000000000000000815260040161115890613f31565b60405180910390fd5b600260085414156111a7576040517f08c379a000000000000000000000000000000000000000000000000000000000815260040161119e906140f1565b60405180910390fd5b60026008819055507f0000000000000000000000000000000000000000000000000000000000000000600b5411156111de57600080fd5b601360003373ffffffffffffffffffffffffffffffffffffffff1673ffffffffffffffffffffffffffffffffffffffff16815260200190815260200160002060009054906101000a900460ff161561126b576040517f08c379a000000000000000000000000000000000000000000000000000000000815260040161126290613ef1565b60405180910390fd5b61127733600b546125b5565b600b600081548092919061128a906143d4565b91905055506001601360003373ffffffffffffffffffffffffffffffffffffffff1673ffffffffffffffffffffffffffffffffffffffff16815260200190815260200160002060006101000a81548160ff02191690831515021790555060016008819055505050505050565b6000600760009054906101000a900473ffffffffffffffffffffffffffffffffffffffff16905090565b8181601254611397838380806020026020016040519081016040528093929190818152602001838360200280828437600081840152601f19601f82011690508083019250505050505050823360405160200161137c9190613cf3565b6040516020818303038152906040528051906020012061259e565b6113d6576040517f08c379a00000000000000000000000000000000000000000000000000000000081526004016113cd90613f31565b60405180910390fd5b6002600854141561141c576040517f08c379a0000000000000000000000000000000000000000000000000000000008152600401611413906140f1565b60405180910390fd5b6002600881905550601360003373ffffffffffffffffffffffffffffffffffffffff1673ffffffffffffffffffffffffffffffffffffffff16815260200190815260200160002060009054906101000a900460ff16156114b1576040517f08c379a00000000000000000000000000000000000000000000000000000000081526004016114a890613f91565b60405180910390fd5b6114bd33600e546125b5565b600e60008154809291906114d0906143d4565b91905055506001601360003373ffffffffffffffffffffffffffffffffffffffff1673ffffffffffffffffffffffffffffffffffffffff16815260200190815260200160002060006101000a81548160ff02191690831515021790555060016008819055505050505050565b60606001805461154b906143a2565b80601f0160208091040260200160405190810160405280929190818152602001828054611577906143a2565b80156115c45780601f10611599576101008083540402835291602001916115c4565b820191906000526020600020905b8154815290600101906020018083116115a757829003601f168201915b5050505050905090565b7f000000000000000000000000000000000000000000000000000000000000000081565b6116046115fd6120dd565b8383612783565b5050565b818160105461167f838380806020026020016040519081016040528093929190818152602001838360200280828437600081840152601f19601f8201169050808301925050505050505082336040516020016116649190613cf3565b6040516020818303038152906040528051906020012061259e565b6116be576040517f08c379a00000000000000000000000000000000000000000000000000000000081526004016116b590613f31565b60405180910390fd5b60026008541415611704576040517f08c379a00000000000000000000000000000000000000000000000000000000081526004016116fb906140f1565b60405180910390fd5b60026008819055507f0000000000000000000000000000000000000000000000000000000000000000600c54111561173b57600080fd5b601360003373ffffffffffffffffffffffffffffffffffffffff1673ffffffffffffffffffffffffffffffffffffffff16815260200190815260200160002060009054906101000a900460ff16156117c8576040517f08c379a00000000000000000000000000000000000000000000000000000000081526004016117bf906140b1565b60405180910390fd5b6117d433600c546125b5565b600c60008154809291906117e7906143d4565b91905055506001601360003373ffffffffffffffffffffffffffffffffffffffff1673ffffffffffffffffffffffffffffffffffffffff16815260200190815260200160002060006101000a81548160ff02191690831515021790555060016008819055505050505050565b81816011546118ca838380806020026020016040519081016040528093929190818152602001838360200280828437600081840152601f19601f8201169050808301925050505050505082336040516020016118af9190613cf3565b6040516020818303038152906040528051906020012061259e565b611909576040517f08c379a000000000000000000000000000000000000000000000000000000000815260040161190090613f31565b60405180910390fd5b6002600854141561194f576040517f08c379a0000000000000000000000000000000000000000000000000000000008152600401611946906140f1565b60405180910390fd5b60026008819055507f0000000000000000000000000000000000000000000000000000000000000000600d541061198557600080fd5b601360003373ffffffffffffffffffffffffffffffffffffffff1673ffffffffffffffffffffffffffffffffffffffff16815260200190815260200160002060009054906101000a900460ff1615611a12576040517f08c379a0000000000000000000000000000000000000000000000000000000008152600401611a0990613fd1565b60405180910390fd5b611a1e33600d546125b5565b600d6000815480929190611a31906143d4565b91905055506001601360003373ffffffffffffffffffffffffffffffffffffffff1673ffffffffffffffffffffffffffffffffffffffff16815260200190815260200160002060006101000a81548160ff02191690831515021790555060016008819055505050505050565b611aa56120dd565b73ffffffffffffffffffffffffffffffffffffffff16611ac36112f6565b73ffffffffffffffffffffffffffffffffffffffff1614611b19576040517f08c379a0000000000000000000000000000000000000000000000000000000008152600401611b1090614051565b60405180910390fd5b8060118190555050565b611b2b6120dd565b73ffffffffffffffffffffffffffffffffffffffff16611b496112f6565b73ffffffffffffffffffffffffffffffffffffffff1614611b9f576040517f08c379a0000000000000000000000000000000000000000000000000000000008152600401611b9690614051565b60405180910390fd5b8060108190555050565b611bb16120dd565b73ffffffffffffffffffffffffffffffffffffffff16611bcf6112f6565b73ffffffffffffffffffffffffffffffffffffffff1614611c25576040517f08c379a0000000000000000000000000000000000000000000000000000000008152600401611c1c90614051565b60405180910390fd5b8060128190555050565b611c40611c3a6120dd565b8361219e565b611c7f576040517f08c379a0000000000000000000000000000000000000000000000000000000008152600401611c76906140d1565b60405180910390fd5b611c8b848484846128f0565b50505050565b7f000000000000000000000000000000000000000000000000000000000000000081565b6060611cc082612071565b611cff576040517f08c379a0000000000000000000000000000000000000000000000000000000008152600401611cf690614011565b60405180910390fd5b600a611d0a8361294c565b604051602001611d1b929190613d3a565b6040516020818303038152906040529050919050565b60136020528060005260406000206000915054906101000a900460ff1681565b60105481565b600e5481565b606060098054611d6c906143a2565b80601f0160208091040260200160405190810160405280929190818152602001828054611d98906143a2565b8015611de55780601f10611dba57610100808354040283529160200191611de5565b820191906000526020600020905b815481529060010190602001808311611dc857829003601f168201915b5050505050905090565b6000600560008473ffffffffffffffffffffffffffffffffffffffff1673ffffffffffffffffffffffffffffffffffffffff16815260200190815260200160002060008373ffffffffffffffffffffffffffffffffffffffff1673ffffffffffffffffffffffffffffffffffffffff16815260200190815260200160002060009054906101000a900460ff16905092915050565b611e8b6120dd565b73ffffffffffffffffffffffffffffffffffffffff16611ea96112f6565b73ffffffffffffffffffffffffffffffffffffffff1614611eff576040517f08c379a0000000000000000000000000000000000000000000000000000000008152600401611ef690614051565b60405180910390fd5b600073ffffffffffffffffffffffffffffffffffffffff168173ffffffffffffffffffffffffffffffffffffffff161415611f6f576040517f08c379a0000000000000000000000000000000000000000000000000000000008152600401611f6690613e71565b60405180910390fd5b611f78816124d8565b50565b611f836120dd565b73ffffffffffffffffffffffffffffffffffffffff16611fa16112f6565b73ffffffffffffffffffffffffffffffffffffffff1614611ff7576040517f08c379a0000000000000000000000000000000000000000000000000000000008152600401611fee90614051565b60405180910390fd5b80600f8190555050565b600f5481565b60007f01ffc9a7000000000000000000000000000000000000000000000000000000007bffffffffffffffffffffffffffffffffffffffffffffffffffffffff1916827bffffffffffffffffffffffffffffffffffffffffffffffffffffffff1916149050919050565b60008073ffffffffffffffffffffffffffffffffffffffff166002600084815260200190815260200160002060009054906101000a900473ffffffffffffffffffffffffffffffffffffffff1673ffffffffffffffffffffffffffffffffffffffff1614159050919050565b600033905090565b816004600083815260200190815260200160002060006101000a81548173ffffffffffffffffffffffffffffffffffffffff021916908373ffffffffffffffffffffffffffffffffffffffff160217905550808273ffffffffffffffffffffffffffffffffffffffff1661215883610e25565b73ffffffffffffffffffffffffffffffffffffffff167f8c5be1e5ebec7d5bd14f71427d1e84f3dd0314c0f7b2291e5b200ac8c7c3b92560405160405180910390a45050565b60006121a982612071565b6121e8576040517f08c379a00000000000000000000000000000000000000000000000000000000081526004016121df90613f11565b60405180910390fd5b60006121f383610e25565b90508073ffffffffffffffffffffffffffffffffffffffff168473ffffffffffffffffffffffffffffffffffffffff16148061226257508373ffffffffffffffffffffffffffffffffffffffff1661224a846108f4565b73ffffffffffffffffffffffffffffffffffffffff16145b8061227357506122728185611def565b5b91505092915050565b8273ffffffffffffffffffffffffffffffffffffffff1661229c82610e25565b73ffffffffffffffffffffffffffffffffffffffff16146122f2576040517f08c379a00000000000000000000000000000000000000000000000000000000081526004016122e990614071565b60405180910390fd5b600073ffffffffffffffffffffffffffffffffffffffff168273ffffffffffffffffffffffffffffffffffffffff161415612362576040517f08c379a000000000000000000000000000000000000000000000000000000000815260040161235990613eb1565b60405180910390fd5b61236d838383612af9565b6123786000826120e5565b6001600360008573ffffffffffffffffffffffffffffffffffffffff1673ffffffffffffffffffffffffffffffffffffffff16815260200190815260200160002060008282546123c8919061429c565b925050819055506001600360008473ffffffffffffffffffffffffffffffffffffffff1673ffffffffffffffffffffffffffffffffffffffff168152602001908152602001600020600082825461241f9190614215565b92505081905550816002600083815260200190815260200160002060006101000a81548173ffffffffffffffffffffffffffffffffffffffff021916908373ffffffffffffffffffffffffffffffffffffffff160217905550808273ffffffffffffffffffffffffffffffffffffffff168473ffffffffffffffffffffffffffffffffffffffff167fddf252ad1be2c89b69c2b068fc378daa952ba7f163c4a11628f55a4df523b3ef60405160405180910390a4505050565b6000600760009054906101000a900473ffffffffffffffffffffffffffffffffffffffff16905081600760006101000a81548173ffffffffffffffffffffffffffffffffffffffff021916908373ffffffffffffffffffffffffffffffffffffffff1602179055508173ffffffffffffffffffffffffffffffffffffffff168173ffffffffffffffffffffffffffffffffffffffff167f8be0079c531659141344cd1fd0a4f28419497f9722a3daafe3b4186f6b6457e060405160405180910390a35050565b6000826125ab8584612afe565b1490509392505050565b600073ffffffffffffffffffffffffffffffffffffffff168273ffffffffffffffffffffffffffffffffffffffff161415612625576040517f08c379a000000000000000000000000000000000000000000000000000000000815260040161261c90613ff1565b60405180910390fd5b61262e81612071565b1561266e576040517f08c379a000000000000000000000000000000000000000000000000000000000815260040161266590613e91565b60405180910390fd5b61267a60008383612af9565b6001600360008473ffffffffffffffffffffffffffffffffffffffff1673ffffffffffffffffffffffffffffffffffffffff16815260200190815260200160002060008282546126ca9190614215565b92505081905550816002600083815260200190815260200160002060006101000a81548173ffffffffffffffffffffffffffffffffffffffff021916908373ffffffffffffffffffffffffffffffffffffffff160217905550808273ffffffffffffffffffffffffffffffffffffffff16600073ffffffffffffffffffffffffffffffffffffffff167fddf252ad1be2c89b69c2b068fc378daa952ba7f163c4a11628f55a4df523b3ef60405160405180910390a45050565b8173ffffffffffffffffffffffffffffffffffffffff168373ffffffffffffffffffffffffffffffffffffffff1614156127f2576040517f08c379a00000000000000000000000000000000000000000000000000000000081526004016127e990613ed1565b60405180910390fd5b80600560008573ffffffffffffffffffffffffffffffffffffffff1673ffffffffffffffffffffffffffffffffffffffff16815260200190815260200160002060008473ffffffffffffffffffffffffffffffffffffffff1673ffffffffffffffffffffffffffffffffffffffff16815260200190815260200160002060006101000a81548160ff0219169083151502179055508173ffffffffffffffffffffffffffffffffffffffff168373ffffffffffffffffffffffffffffffffffffffff167f17307eab39ab6107e8899845ad3d59bd9653f200f220920489ca2b5937696c31836040516128e39190613df9565b60405180910390a3505050565b6128fb84848461227c565b61290784848484612bd7565b612946576040517f08c379a000000000000000000000000000000000000000000000000000000000815260040161293d90613e51565b60405180910390fd5b50505050565b60606000821415612994576040518060400160405280600181526020017f30000000000000000000000000000000000000000000000000000000000000008152509050612af4565b600082905060005b600082146129c65780806129af906143d4565b915050600a826129bf919061426b565b915061299c565b60008167ffffffffffffffff811115612a08577f4e487b7100000000000000000000000000000000000000000000000000000000600052604160045260246000fd5b6040519080825280601f01601f191660200182016040528015612a3a5781602001600182028036833780820191505090505b5090505b60008514612aed57600182612a53919061429c565b9150600a85612a62919061444b565b6030612a6e9190614215565b60f81b818381518110612aaa577f4e487b7100000000000000000000000000000000000000000000000000000000600052603260045260246000fd5b60200101907effffffffffffffffffffffffffffffffffffffffffffffffffffffffffffff1916908160001a905350600a85612ae6919061426b565b9450612a3e565b8093505050505b919050565b505050565b60008082905060005b8451811015612bcc576000858281518110612b4b577f4e487b7100000000000000000000000000000000000000000000000000000000600052603260045260246000fd5b60200260200101519050808311612b8c578281604051602001612b6f929190613d0e565b604051602081830303815290604052805190602001209250612bb8565b8083604051602001612b9f929190613d0e565b6040516020818303038152906040528051906020012092505b508080612bc4906143d4565b915050612b07565b508091505092915050565b6000612bf88473ffffffffffffffffffffffffffffffffffffffff16612d6e565b15612d61578373ffffffffffffffffffffffffffffffffffffffff1663150b7a02612c216120dd565b8786866040518563ffffffff1660e01b8152600401612c439493929190613d84565b602060405180830381600087803b158015612c5d57600080fd5b505af1925050508015612c8e57506040513d601f19601f82011682018060405250810190612c8b9190613262565b60015b612d11573d8060008114612cbe576040519150601f19603f3d011682016040523d82523d6000602084013e612cc3565b606091505b50600081511415612d09576040517f08c379a0000000000000000000000000000000000000000000000000000000008152600401612d0090613e51565b60405180910390fd5b805181602001fd5b63150b7a0260e01b7bffffffffffffffffffffffffffffffffffffffffffffffffffffffff1916817bffffffffffffffffffffffffffffffffffffffffffffffffffffffff191614915050612d66565b600190505b949350505050565b600080823b905060008111915050919050565b828054612d8d906143a2565b90600052602060002090601f016020900481019282612daf5760008555612df6565b82601f10612dc857805160ff1916838001178555612df6565b82800160010185558215612df6579182015b82811115612df5578251825591602001919060010190612dda565b5b509050612e039190612e07565b5090565b5b80821115612e20576000816000905550600101612e08565b5090565b6000612e37612e328461415d565b61412c565b905082815260208101848484011115612e4f57600080fd5b612e5a848285614360565b509392505050565b6000612e75612e708461418d565b61412c565b905082815260208101848484011115612e8d57600080fd5b612e98848285614360565b509392505050565b600081359050612eaf81614556565b92915050565b60008083601f840112612ec757600080fd5b8235905067ffffffffffffffff811115612ee057600080fd5b602083019150836020820283011115612ef857600080fd5b9250929050565b600081359050612f0e8161456d565b92915050565b600081519050612f238161456d565b92915050565b600081359050612f3881614584565b92915050565b600081359050612f4d8161459b565b92915050565b600081519050612f628161459b565b92915050565b600082601f830112612f7957600080fd5b8135612f89848260208601612e24565b91505092915050565b600081359050612fa1816145b2565b92915050565b600082601f830112612fb857600080fd5b8135612fc8848260208601612e62565b91505092915050565b600081359050612fe0816145c9565b92915050565b600081519050612ff5816145c9565b92915050565b60006020828403121561300d57600080fd5b600061301b84828501612ea0565b91505092915050565b6000806040838503121561303757600080fd5b600061304585828601612ea0565b925050602061305685828601612ea0565b9150509250929050565b60008060006060848603121561307557600080fd5b600061308386828701612ea0565b935050602061309486828701612ea0565b92505060406130a586828701612fd1565b9150509250925092565b600080600080608085870312156130c557600080fd5b60006130d387828801612ea0565b94505060206130e487828801612ea0565b93505060406130f587828801612fd1565b925050606085013567ffffffffffffffff81111561311257600080fd5b61311e87828801612f68565b91505092959194509250565b6000806040838503121561313d57600080fd5b600061314b85828601612ea0565b925050602061315c85828601612eff565b9150509250929050565b6000806040838503121561317957600080fd5b600061318785828601612ea0565b925050602061319885828601612fd1565b9150509250929050565b600080602083850312156131b557600080fd5b600083013567ffffffffffffffff8111156131cf57600080fd5b6131db85828601612eb5565b92509250509250929050565b6000602082840312156131f957600080fd5b600061320784828501612f14565b91505092915050565b60006020828403121561322257600080fd5b600061323084828501612f29565b91505092915050565b60006020828403121561324b57600080fd5b600061325984828501612f3e565b91505092915050565b60006020828403121561327457600080fd5b600061328284828501612f53565b91505092915050565b60006020828403121561329d57600080fd5b60006132ab84828501612f92565b91505092915050565b6000602082840312156132c657600080fd5b600082013567ffffffffffffffff8111156132e057600080fd5b6132ec84828501612fa7565b91505092915050565b60006020828403121561330757600080fd5b600061331584828501612fd1565b91505092915050565b60006020828403121561333057600080fd5b600061333e84828501612fe6565b91505092915050565b613350816142d0565b82525050565b613367613362826142d0565b61441d565b82525050565b613376816142e2565b82525050565b613385816142ee565b82525050565b61339c613397826142ee565b61442f565b82525050565b60006133ad826141d2565b6133b781856141e8565b93506133c781856020860161436f565b6133d081614538565b840191505092915050565b60006133e6826141dd565b6133f081856141f9565b935061340081856020860161436f565b61340981614538565b840191505092915050565b600061341f826141dd565b613429818561420a565b935061343981856020860161436f565b80840191505092915050565b60008154613452816143a2565b61345c818661420a565b945060018216600081146134775760018114613488576134bb565b60ff198316865281860193506134bb565b613491856141bd565b60005b838110156134b357815481890152600182019150602081019050613494565b838801955050505b50505092915050565b60006134d16032836141f9565b91507f4552433732313a207472616e7366657220746f206e6f6e20455243373231526560008301527f63656976657220696d706c656d656e74657200000000000000000000000000006020830152604082019050919050565b60006135376026836141f9565b91507f4f776e61626c653a206e6577206f776e657220697320746865207a65726f206160008301527f64647265737300000000000000000000000000000000000000000000000000006020830152604082019050919050565b600061359d601c836141f9565b91507f4552433732313a20746f6b656e20616c7265616479206d696e746564000000006000830152602082019050919050565b60006135dd6024836141f9565b91507f4552433732313a207472616e7366657220746f20746865207a65726f2061646460008301527f72657373000000000000000000000000000000000000000000000000000000006020830152604082019050919050565b60006136436019836141f9565b91507f4552433732313a20617070726f766520746f2063616c6c6572000000000000006000830152602082019050919050565b60006136836027836141f9565b91507f53616e746120697320616c726561647920636c61696d6564206279207468697360008301527f2077616c6c6574000000000000000000000000000000000000000000000000006020830152604082019050919050565b60006136e9602c836141f9565b91507f4552433732313a206f70657261746f7220717565727920666f72206e6f6e657860008301527f697374656e7420746f6b656e00000000000000000000000000000000000000006020830152604082019050919050565b600061374f601e836141f9565b91507f4164647265737320646f6573206e6f7420657869737420696e206c69737400006000830152602082019050919050565b600061378f6038836141f9565b91507f4552433732313a20617070726f76652063616c6c6572206973206e6f74206f7760008301527f6e6572206e6f7220617070726f76656420666f7220616c6c00000000000000006020830152604082019050919050565b60006137f5602a836141f9565b91507f4552433732313a2062616c616e636520717565727920666f7220746865207a6560008301527f726f2061646472657373000000000000000000000000000000000000000000006020830152604082019050919050565b600061385b6025836141f9565b91507f456c6620697320616c726561647920636c61696d65642062792074686973207760008301527f616c6c65740000000000000000000000000000000000000000000000000000006020830152604082019050919050565b60006138c16029836141f9565b91507f4552433732313a206f776e657220717565727920666f72206e6f6e657869737460008301527f656e7420746f6b656e00000000000000000000000000000000000000000000006020830152604082019050919050565b6000613927602a836141f9565b91507f5265696e6465657220697320616c726561647920636c61696d6564206279207460008301527f6869732077616c6c6574000000000000000000000000000000000000000000006020830152604082019050919050565b600061398d6020836141f9565b91507f4552433732313a206d696e7420746f20746865207a65726f20616464726573736000830152602082019050919050565b60006139cd602b836141f9565b91507f4552433732314d657461646174613a20717565727920666f72206e6f6e65786960008301527f7374656e7420746f6b656e0000000000000000000000000000000000000000006020830152604082019050919050565b6000613a33602c836141f9565b91507f4552433732313a20617070726f76656420717565727920666f72206e6f6e657860008301527f697374656e7420746f6b656e00000000000000000000000000000000000000006020830152604082019050919050565b6000613a9960058361420a565b91507f2e6a736f6e0000000000000000000000000000000000000000000000000000006000830152600582019050919050565b6000613ad96020836141f9565b91507f4f776e61626c653a2063616c6c6572206973206e6f7420746865206f776e65726000830152602082019050919050565b6000613b196029836141f9565b91507f4552433732313a207472616e73666572206f6620746f6b656e2074686174206960008301527f73206e6f74206f776e00000000000000000000000000000000000000000000006020830152604082019050919050565b6000613b7f6021836141f9565b91507f4552433732313a20617070726f76616c20746f2063757272656e74206f776e6560008301527f72000000000000000000000000000000000000000000000000000000000000006020830152604082019050919050565b6000613be5602c836141f9565b91507f576f726b657220656c6620697320616c726561647920636c61696d656420627960008301527f20746869732077616c6c657400000000000000000000000000000000000000006020830152604082019050919050565b6000613c4b6031836141f9565b91507f4552433732313a207472616e736665722063616c6c6572206973206e6f74206f60008301527f776e6572206e6f7220617070726f7665640000000000000000000000000000006020830152604082019050919050565b6000613cb1601f836141f9565b91507f5265656e7472616e637947756172643a207265656e7472616e742063616c6c006000830152602082019050919050565b613ced81614356565b82525050565b6000613cff8284613356565b60148201915081905092915050565b6000613d1a828561338b565b602082019150613d2a828461338b565b6020820191508190509392505050565b6000613d468285613445565b9150613d528284613414565b9150613d5d82613a8c565b91508190509392505050565b6000602082019050613d7e6000830184613347565b92915050565b6000608082019050613d996000830187613347565b613da66020830186613347565b613db36040830185613ce4565b8181036060830152613dc581846133a2565b905095945050505050565b6000604082019050613de56000830185613347565b613df26020830184613ce4565b9392505050565b6000602082019050613e0e600083018461336d565b92915050565b6000602082019050613e29600083018461337c565b92915050565b60006020820190508181036000830152613e4981846133db565b905092915050565b60006020820190508181036000830152613e6a816134c4565b9050919050565b60006020820190508181036000830152613e8a8161352a565b9050919050565b60006020820190508181036000830152613eaa81613590565b9050919050565b60006020820190508181036000830152613eca816135d0565b9050919050565b60006020820190508181036000830152613eea81613636565b9050919050565b60006020820190508181036000830152613f0a81613676565b9050919050565b60006020820190508181036000830152613f2a816136dc565b9050919050565b60006020820190508181036000830152613f4a81613742565b9050919050565b60006020820190508181036000830152613f6a81613782565b9050919050565b60006020820190508181036000830152613f8a816137e8565b9050919050565b60006020820190508181036000830152613faa8161384e565b9050919050565b60006020820190508181036000830152613fca816138b4565b9050919050565b60006020820190508181036000830152613fea8161391a565b9050919050565b6000602082019050818103600083015261400a81613980565b9050919050565b6000602082019050818103600083015261402a816139c0565b9050919050565b6000602082019050818103600083015261404a81613a26565b9050919050565b6000602082019050818103600083015261406a81613acc565b9050919050565b6000602082019050818103600083015261408a81613b0c565b9050919050565b600060208201905081810360008301526140aa81613b72565b9050919050565b600060208201905081810360008301526140ca81613bd8565b9050919050565b600060208201905081810360008301526140ea81613c3e565b9050919050565b6000602082019050818103600083015261410a81613ca4565b9050919050565b60006020820190506141266000830184613ce4565b92915050565b6000604051905081810181811067ffffffffffffffff8211171561415357614152614509565b5b8060405250919050565b600067ffffffffffffffff82111561417857614177614509565b5b601f19601f8301169050602081019050919050565b600067ffffffffffffffff8211156141a8576141a7614509565b5b601f19601f8301169050602081019050919050565b60008190508160005260206000209050919050565b600081519050919050565b600081519050919050565b600082825260208201905092915050565b600082825260208201905092915050565b600081905092915050565b600061422082614356565b915061422b83614356565b9250827fffffffffffffffffffffffffffffffffffffffffffffffffffffffffffffffff038211156142605761425f61447c565b5b828201905092915050565b600061427682614356565b915061428183614356565b925082614291576142906144ab565b5b828204905092915050565b60006142a782614356565b91506142b283614356565b9250828210156142c5576142c461447c565b5b828203905092915050565b60006142db82614336565b9050919050565b60008115159050919050565b6000819050919050565b60007fffffffff0000000000000000000000000000000000000000000000000000000082169050919050565b600061432f826142d0565b9050919050565b600073ffffffffffffffffffffffffffffffffffffffff82169050919050565b6000819050919050565b82818337600083830152505050565b60005b8381101561438d578082015181840152602081019050614372565b8381111561439c576000848401525b50505050565b600060028204905060018216806143ba57607f821691505b602082108114156143ce576143cd6144da565b5b50919050565b60006143df82614356565b91507fffffffffffffffffffffffffffffffffffffffffffffffffffffffffffffffff8214156144125761441161447c565b5b600182019050919050565b600061442882614439565b9050919050565b6000819050919050565b600061444482614549565b9050919050565b600061445682614356565b915061446183614356565b925082614471576144706144ab565b5b828206905092915050565b7f4e487b7100000000000000000000000000000000000000000000000000000000600052601160045260246000fd5b7f4e487b7100000000000000000000000000000000000000000000000000000000600052601260045260246000fd5b7f4e487b7100000000000000000000000000000000000000000000000000000000600052602260045260246000fd5b7f4e487b7100000000000000000000000000000000000000000000000000000000600052604160045260246000fd5b6000601f19601f8301169050919050565b60008160601b9050919050565b61455f816142d0565b811461456a57600080fd5b50565b614576816142e2565b811461458157600080fd5b50565b61458d816142ee565b811461459857600080fd5b50565b6145a4816142f8565b81146145af57600080fd5b50565b6145bb81614324565b81146145c657600080fd5b50565b6145d281614356565b81146145dd57600080fd5b5056fea2646970667358221220340bd6b8fa922b04935151f5f1da2e9c76641f6d30d364f8d1ae3901a53f7b7864736f6c63430008000033",
  "linkReferences": {},
  "deployedLinkReferences": {}
}