{
  "_format": "hh-sol-artifact-1",
  "contractName": "ElfNFT",
  "sourceName": "contracts/elf.sol",
  "abi": [
    {
      "inputs": [
        {
          "internalType": "string",
          "name": "_baseURI",
          "type": "string"
        },
        {
          "internalType": "string",
          "name": "collectionURI",
          "type": "string"
        }
      ],
      "stateMutability": "nonpayable",
      "type": "constructor"
    },
    {
      "anonymous": false,
      "inputs": [
        {
          "indexed": true,
          "internalType": "address",
          "name": "owner",
          "type": "address"
        },
        {
          "indexed": true,
          "internalType": "address",
          "name": "approved",
          "type": "address"
        },
        {
          "indexed": true,
          "internalType": "uint256",
          "name": "tokenId",
          "type": "uint256"
        }
      ],
      "name": "Approval",
      "type": "event"
    },
    {
      "anonymous": false,
      "inputs": [
        {
          "indexed": true,
          "internalType": "address",
          "name": "owner",
          "type": "address"
        },
        {
          "indexed": true,
          "internalType": "address",
          "name": "operator",
          "type": "address"
        },
        {
          "indexed": false,
          "internalType": "bool",
          "name": "approved",
          "type": "bool"
        }
      ],
      "name": "ApprovalForAll",
      "type": "event"
    },
    {
      "anonymous": false,
      "inputs": [
        {
          "indexed": true,
          "internalType": "address",
          "name": "previousOwner",
          "type": "address"
        },
        {
          "indexed": true,
          "internalType": "address",
          "name": "newOwner",
          "type": "address"
        }
      ],
      "name": "OwnershipTransferred",
      "type": "event"
    },
    {
      "anonymous": false,
      "inputs": [
        {
          "indexed": true,
          "internalType": "address",
          "name": "from",
          "type": "address"
        },
        {
          "indexed": true,
          "internalType": "address",
          "name": "to",
          "type": "address"
        },
        {
          "indexed": true,
          "internalType": "uint256",
          "name": "tokenId",
          "type": "uint256"
        }
      ],
      "name": "Transfer",
      "type": "event"
    },
    {
      "inputs": [
        {
          "internalType": "address",
          "name": "to",
          "type": "address"
        },
        {
          "internalType": "uint256",
          "name": "tokenId",
          "type": "uint256"
        }
      ],
      "name": "approve",
      "outputs": [],
      "stateMutability": "nonpayable",
      "type": "function"
    },
    {
      "inputs": [
        {
          "internalType": "address",
          "name": "owner",
          "type": "address"
        }
      ],
      "name": "balanceOf",
      "outputs": [
        {
          "internalType": "uint256",
          "name": "",
          "type": "uint256"
        }
      ],
      "stateMutability": "view",
      "type": "function"
    },
    {
      "inputs": [],
      "name": "baseURI",
      "outputs": [
        {
          "internalType": "string",
          "name": "",
          "type": "string"
        }
      ],
      "stateMutability": "view",
      "type": "function"
    },
    {
      "inputs": [
        {
          "internalType": "address",
          "name": "",
          "type": "address"
        }
      ],
      "name": "claimed",
      "outputs": [
        {
          "internalType": "bool",
          "name": "",
          "type": "bool"
        }
      ],
      "stateMutability": "view",
      "type": "function"
    },
    {
      "inputs": [],
      "name": "contractURI",
      "outputs": [
        {
          "internalType": "string",
          "name": "",
          "type": "string"
        }
      ],
      "stateMutability": "view",
      "type": "function"
    },
    {
      "inputs": [],
      "name": "elfId",
      "outputs": [
        {
          "internalType": "uint256",
          "name": "",
          "type": "uint256"
        }
      ],
      "stateMutability": "view",
      "type": "function"
    },
    {
      "inputs": [],
      "name": "elfMerkleRoot",
      "outputs": [
        {
          "internalType": "bytes32",
          "name": "",
          "type": "bytes32"
        }
      ],
      "stateMutability": "view",
      "type": "function"
    },
    {
      "inputs": [
        {
          "internalType": "uint256",
          "name": "tokenId",
          "type": "uint256"
        }
      ],
      "name": "getApproved",
      "outputs": [
        {
          "internalType": "address",
          "name": "",
          "type": "address"
        }
      ],
      "stateMutability": "view",
      "type": "function"
    },
    {
      "inputs": [
        {
          "internalType": "address",
          "name": "owner",
          "type": "address"
        },
        {
          "internalType": "address",
          "name": "operator",
          "type": "address"
        }
      ],
      "name": "isApprovedForAll",
      "outputs": [
        {
          "internalType": "bool",
          "name": "",
          "type": "bool"
        }
      ],
      "stateMutability": "view",
      "type": "function"
    },
    {
      "inputs": [],
      "name": "maxReindeerId",
      "outputs": [
        {
          "internalType": "uint256",
          "name": "",
          "type": "uint256"
        }
      ],
      "stateMutability": "view",
      "type": "function"
    },
    {
      "inputs": [],
      "name": "maxSantaId",
      "outputs": [
        {
          "internalType": "uint256",
          "name": "",
          "type": "uint256"
        }
      ],
      "stateMutability": "view",
      "type": "function"
    },
    {
      "inputs": [],
      "name": "maxWorkerElfId",
      "outputs": [
        {
          "internalType": "uint256",
          "name": "",
          "type": "uint256"
        }
      ],
      "stateMutability": "view",
      "type": "function"
    },
    {
      "inputs": [
        {
          "internalType": "bytes32[]",
          "name": "merkleProof",
          "type": "bytes32[]"
        }
      ],
      "name": "mintElf",
      "outputs": [],
      "stateMutability": "nonpayable",
      "type": "function"
    },
    {
      "inputs": [
        {
          "internalType": "bytes32[]",
          "name": "merkleProof",
          "type": "bytes32[]"
        }
      ],
      "name": "mintReindeer",
      "outputs": [],
      "stateMutability": "nonpayable",
      "type": "function"
    },
    {
      "inputs": [],
      "name": "mintSanta",
      "outputs": [],
      "stateMutability": "nonpayable",
      "type": "function"
    },
    {
      "inputs": [
        {
          "internalType": "bytes32[]",
          "name": "merkleProof",
          "type": "bytes32[]"
        }
      ],
      "name": "mintWorkerElf",
      "outputs": [],
      "stateMutability": "nonpayable",
      "type": "function"
    },
    {
      "inputs": [],
      "name": "name",
      "outputs": [
        {
          "internalType": "string",
          "name": "",
          "type": "string"
        }
      ],
      "stateMutability": "view",
      "type": "function"
    },
    {
      "inputs": [],
      "name": "owner",
      "outputs": [
        {
          "internalType": "address",
          "name": "",
          "type": "address"
        }
      ],
      "stateMutability": "view",
      "type": "function"
    },
    {
      "inputs": [
        {
          "internalType": "uint256",
          "name": "tokenId",
          "type": "uint256"
        }
      ],
      "name": "ownerOf",
      "outputs": [
        {
          "internalType": "address",
          "name": "",
          "type": "address"
        }
      ],
      "stateMutability": "view",
      "type": "function"
    },
    {
      "inputs": [],
      "name": "reindeerId",
      "outputs": [
        {
          "internalType": "uint256",
          "name": "",
          "type": "uint256"
        }
      ],
      "stateMutability": "view",
      "type": "function"
    },
    {
      "inputs": [],
      "name": "reindeerMerkleRoot",
      "outputs": [
        {
          "internalType": "bytes32",
          "name": "",
          "type": "bytes32"
        }
      ],
      "stateMutability": "view",
      "type": "function"
    },
    {
      "inputs": [],
      "name": "renounceOwnership",
      "outputs": [],
      "stateMutability": "nonpayable",
      "type": "function"
    },
    {
      "inputs": [
        {
          "internalType": "address",
          "name": "from",
          "type": "address"
        },
        {
          "internalType": "address",
          "name": "to",
          "type": "address"
        },
        {
          "internalType": "uint256",
          "name": "tokenId",
          "type": "uint256"
        }
      ],
      "name": "safeTransferFrom",
      "outputs": [],
      "stateMutability": "nonpayable",
      "type": "function"
    },
    {
      "inputs": [
        {
          "internalType": "address",
          "name": "from",
          "type": "address"
        },
        {
          "internalType": "address",
          "name": "to",
          "type": "address"
        },
        {
          "internalType": "uint256",
          "name": "tokenId",
          "type": "uint256"
        },
        {
          "internalType": "bytes",
          "name": "_data",
          "type": "bytes"
        }
      ],
      "name": "safeTransferFrom",
      "outputs": [],
      "stateMutability": "nonpayable",
      "type": "function"
    },
    {
      "inputs": [],
      "name": "santaId",
      "outputs": [
        {
          "internalType": "uint256",
          "name": "",
          "type": "uint256"
        }
      ],
      "stateMutability": "view",
      "type": "function"
    },
    {
      "inputs": [
        {
          "internalType": "address",
          "name": "operator",
          "type": "address"
        },
        {
          "internalType": "bool",
          "name": "approved",
          "type": "bool"
        }
      ],
      "name": "setApprovalForAll",
      "outputs": [],
      "stateMutability": "nonpayable",
      "type": "function"
    },
    {
      "inputs": [
        {
          "internalType": "string",
          "name": "_baseURI",
          "type": "string"
        }
      ],
      "name": "setBaseURI",
      "outputs": [],
      "stateMutability": "nonpayable",
      "type": "function"
    },
    {
      "inputs": [
        {
          "internalType": "bytes32",
          "name": "merkleRoot",
          "type": "bytes32"
        }
      ],
      "name": "setElfMerkleRoot",
      "outputs": [],
      "stateMutability": "nonpayable",
      "type": "function"
    },
    {
      "inputs": [
        {
          "internalType": "bytes32",
          "name": "merkleRoot",
          "type": "bytes32"
        }
      ],
      "name": "setReindeerMerkleRoot",
      "outputs": [],
      "stateMutability": "nonpayable",
      "type": "function"
    },
    {
      "inputs": [
        {
          "internalType": "bytes32",
          "name": "merkleRoot",
          "type": "bytes32"
        }
      ],
      "name": "setWorkerElfMerkleRoot",
      "outputs": [],
      "stateMutability": "nonpayable",
      "type": "function"
    },
    {
      "inputs": [
        {
          "internalType": "bytes4",
          "name": "interfaceId",
          "type": "bytes4"
        }
      ],
      "name": "supportsInterface",
      "outputs": [
        {
          "internalType": "bool",
          "name": "",
          "type": "bool"
        }
      ],
      "stateMutability": "view",
      "type": "function"
    },
    {
      "inputs": [],
      "name": "symbol",
      "outputs": [
        {
          "internalType": "string",
          "name": "",
          "type": "string"
        }
      ],
      "stateMutability": "view",
      "type": "function"
    },
    {
      "inputs": [
        {
          "internalType": "uint256",
          "name": "tokenId",
          "type": "uint256"
        }
      ],
      "name": "tokenURI",
      "outputs": [
        {
          "internalType": "string",
          "name": "",
          "type": "string"
        }
      ],
      "stateMutability": "view",
      "type": "function"
    },
    {
      "inputs": [
        {
          "internalType": "address",
          "name": "from",
          "type": "address"
        },
        {
          "internalType": "address",
          "name": "to",
          "type": "address"
        },
        {
          "internalType": "uint256",
          "name": "tokenId",
          "type": "uint256"
        }
      ],
      "name": "transferFrom",
      "outputs": [],
      "stateMutability": "nonpayable",
      "type": "function"
    },
    {
      "inputs": [
        {
          "internalType": "address",
          "name": "newOwner",
          "type": "address"
        }
      ],
      "name": "transferOwnership",
      "outputs": [],
      "stateMutability": "nonpayable",
      "type": "function"
    },
    {
      "inputs": [],
      "name": "withdraw",
      "outputs": [],
      "stateMutability": "nonpayable",
      "type": "function"
    },
    {
      "inputs": [
        {
          "internalType": "contract IERC20",
          "name": "token",
          "type": "address"
        }
      ],
      "name": "withdrawTokens",
      "outputs": [],
      "stateMutability": "nonpayable",
      "type": "function"
    },
    {
      "inputs": [],
      "name": "workerElfId",
      "outputs": [
        {
          "internalType": "uint256",
          "name": "",
          "type": "uint256"
        }
      ],
      "stateMutability": "view",
      "type": "function"
    },
    {
      "inputs": [],
      "name": "workerElfMerkleRoot",
      "outputs": [
        {
          "internalType": "bytes32",
          "name": "",
          "type": "bytes32"
        }
      ],
      "stateMutability": "view",
      "type": "function"
    }
  ],
  "bytecode": "0x60e060405260056080908152506001600b55601960a0908152506006600c556103e860c090815250601f600d556103e9600e553480156200003f57600080fd5b5060405162004b1a38038062004b1a8339818101604052810190620000659190620004c7565b6040518060400160405280600a81526020017f656c6644414f204e4654000000000000000000000000000000000000000000008152506040518060400160405280600681526020017f454c4644414f00000000000000000000000000000000000000000000000000008152508160009080519060200190620000e9929190620003a5565b50806001908051906020019062000102929190620003a5565b50505062000125620001196200015760201b60201c565b6200015f60201b60201c565b60016008819055506200013e826200022560201b60201c565b6200014f81620002d060201b60201c565b5050620006e0565b600033905090565b6000600760009054906101000a900473ffffffffffffffffffffffffffffffffffffffff16905081600760006101000a81548173ffffffffffffffffffffffffffffffffffffffff021916908373ffffffffffffffffffffffffffffffffffffffff1602179055508173ffffffffffffffffffffffffffffffffffffffff168173ffffffffffffffffffffffffffffffffffffffff167f8be0079c531659141344cd1fd0a4f28419497f9722a3daafe3b4186f6b6457e060405160405180910390a35050565b620002356200015760201b60201c565b73ffffffffffffffffffffffffffffffffffffffff166200025b6200037b60201b60201c565b73ffffffffffffffffffffffffffffffffffffffff1614620002b4576040517f08c379a0000000000000000000000000000000000000000000000000000000008152600401620002ab906200057c565b60405180910390fd5b80600a9080519060200190620002cc929190620003a5565b5050565b620002e06200015760201b60201c565b73ffffffffffffffffffffffffffffffffffffffff16620003066200037b60201b60201c565b73ffffffffffffffffffffffffffffffffffffffff16146200035f576040517f08c379a000000000000000000000000000000000000000000000000000000000815260040162000356906200057c565b60405180910390fd5b806009908051906020019062000377929190620003a5565b5050565b6000600760009054906101000a900473ffffffffffffffffffffffffffffffffffffffff16905090565b828054620003b3906200064c565b90600052602060002090601f016020900481019282620003d7576000855562000423565b82601f10620003f257805160ff191683800117855562000423565b8280016001018555821562000423579182015b828111156200042257825182559160200191906001019062000405565b5b50905062000432919062000436565b5090565b5b808211156200045157600081600090555060010162000437565b5090565b60006200046c6200046684620005d2565b6200059e565b9050828152602081018484840111156200048557600080fd5b6200049284828562000616565b509392505050565b600082601f830112620004ac57600080fd5b8151620004be84826020860162000455565b91505092915050565b60008060408385031215620004db57600080fd5b600083015167ffffffffffffffff811115620004f657600080fd5b62000504858286016200049a565b925050602083015167ffffffffffffffff8111156200052257600080fd5b62000530858286016200049a565b9150509250929050565b60006200054960208362000605565b91507f4f776e61626c653a2063616c6c6572206973206e6f7420746865206f776e65726000830152602082019050919050565b6000602082019050818103600083015262000597816200053a565b9050919050565b6000604051905081810181811067ffffffffffffffff82111715620005c857620005c7620006b1565b5b8060405250919050565b600067ffffffffffffffff821115620005f057620005ef620006b1565b5b601f19601f8301169050602081019050919050565b600082825260208201905092915050565b60005b838110156200063657808201518184015260208101905062000619565b8381111562000646576000848401525b50505050565b600060028204905060018216806200066557607f821691505b602082108114156200067c576200067b62000682565b5b50919050565b7f4e487b7100000000000000000000000000000000000000000000000000000000600052602260045260246000fd5b7f4e487b7100000000000000000000000000000000000000000000000000000000600052604160045260246000fd5b60805160a05160c0516143f5620007256000396000818161132301526118090152600081816106fc01526114610152600081816116a80152611b4401526143f56000f3fe608060405234801561001057600080fd5b506004361061023d5760003560e01c80638da5cb5b1161013b578063b79e9627116100b8578063cc0528d11161007c578063cc0528d114610654578063deee821714610672578063e8a3d48514610690578063e985e9c5146106ae578063f2fde38b146106de5761023d565b8063b79e96271461059e578063b88d4fde146105ba578063bbfdfe72146105d6578063c87b56dd146105f4578063c884ef83146106245761023d565b8063a4f36482116100ff578063a4f3648214610524578063a821bed614610540578063af49c9501461054a578063b2ce098214610566578063b4a6ed8d146105825761023d565b80638da5cb5b146104925780639353e048146104b057806395d89b41146104cc57806397b7efaa146104ea578063a22cb465146105085761023d565b80633ccfd60b116101c95780636352211e1161018d5780636352211e146103ec57806368d6078f1461041c5780636c0360eb1461043a57806370a0823114610458578063715018a6146104885761023d565b80633ccfd60b1461037057806342842e0e1461037a57806345e4829f1461039657806349df728c146103b457806355f804b3146103d05761023d565b8063095ea7b311610210578063095ea7b3146102de57806312289d49146102fa57806323b872dd146103185780632a406c9d1461033457806331f4d45d146103525761023d565b8063018e5d161461024257806301ffc9a71461026057806306fdde0314610290578063081812fc146102ae575b600080fd5b61024a6106fa565b6040516102579190613efb565b60405180910390f35b61027a6004803603810190610275919061305e565b61071e565b6040516102879190613b99565b60405180910390f35b610298610800565b6040516102a59190613bcf565b60405180910390f35b6102c860048036038101906102c3919061311a565b610892565b6040516102d59190613b09565b60405180910390f35b6102f860048036038101906102f39190612f8b565b610917565b005b610302610a2f565b60405161030f9190613bb4565b60405180910390f35b610332600480360381019061032d9190612e85565b610a35565b005b61033c610a95565b6040516103499190613efb565b60405180910390f35b61035a610a9b565b6040516103679190613efb565b60405180910390f35b610378610aa1565b005b610394600480360381019061038f9190612e85565b610b6c565b005b61039e610b8c565b6040516103ab9190613efb565b60405180910390f35b6103ce60048036038101906103c991906130b0565b610b92565b005b6103ea60048036038101906103e591906130d9565b610d2d565b005b6104066004803603810190610401919061311a565b610dc3565b6040516104139190613b09565b60405180910390f35b610424610e75565b6040516104319190613bb4565b60405180910390f35b610442610e7b565b60405161044f9190613bcf565b60405180910390f35b610472600480360381019061046d9190612e20565b610f09565b60405161047f9190613efb565b60405180910390f35b610490610fc1565b005b61049a611049565b6040516104a79190613b09565b60405180910390f35b6104ca60048036038101906104c59190612fc7565b611073565b005b6104d461128f565b6040516104e19190613bcf565b60405180910390f35b6104f2611321565b6040516104ff9190613efb565b60405180910390f35b610522600480360381019061051d9190612f4f565b611345565b005b61053e60048036038101906105399190612fc7565b61135b565b005b6105486115dc565b005b610564600480360381019061055f9190612fc7565b611703565b005b610580600480360381019061057b9190613035565b61194e565b005b61059c60048036038101906105979190613035565b6119d4565b005b6105b860048036038101906105b39190613035565b611a5a565b005b6105d460048036038101906105cf9190612ed4565b611ae0565b005b6105de611b42565b6040516105eb9190613efb565b60405180910390f35b61060e6004803603810190610609919061311a565b611b66565b60405161061b9190613bcf565b60405180910390f35b61063e60048036038101906106399190612e20565b611be2565b60405161064b9190613b99565b60405180910390f35b61065c611c02565b6040516106699190613bb4565b60405180910390f35b61067a611c08565b6040516106879190613efb565b60405180910390f35b610698611c0e565b6040516106a59190613bcf565b60405180910390f35b6106c860048036038101906106c39190612e49565b611ca0565b6040516106d59190613b99565b60405180910390f35b6106f860048036038101906106f39190612e20565b611d34565b005b7f000000000000000000000000000000000000000000000000000000000000000081565b60007f80ac58cd000000000000000000000000000000000000000000000000000000007bffffffffffffffffffffffffffffffffffffffffffffffffffffffff1916827bffffffffffffffffffffffffffffffffffffffffffffffffffffffff191614806107e957507f5b5e139f000000000000000000000000000000000000000000000000000000007bffffffffffffffffffffffffffffffffffffffffffffffffffffffff1916827bffffffffffffffffffffffffffffffffffffffffffffffffffffffff1916145b806107f957506107f882611e2c565b5b9050919050565b60606000805461080f90614181565b80601f016020809104026020016040519081016040528092919081815260200182805461083b90614181565b80156108885780601f1061085d57610100808354040283529160200191610888565b820191906000526020600020905b81548152906001019060200180831161086b57829003601f168201915b5050505050905090565b600061089d82611e96565b6108dc576040517f08c379a00000000000000000000000000000000000000000000000000000000081526004016108d390613e1b565b60405180910390fd5b6004600083815260200190815260200160002060009054906101000a900473ffffffffffffffffffffffffffffffffffffffff169050919050565b600061092282610dc3565b90508073ffffffffffffffffffffffffffffffffffffffff168373ffffffffffffffffffffffffffffffffffffffff161415610993576040517f08c379a000000000000000000000000000000000000000000000000000000000815260040161098a90613e7b565b60405180910390fd5b8073ffffffffffffffffffffffffffffffffffffffff166109b2611f02565b73ffffffffffffffffffffffffffffffffffffffff1614806109e157506109e0816109db611f02565b611ca0565b5b610a20576040517f08c379a0000000000000000000000000000000000000000000000000000000008152600401610a1790613d3b565b60405180910390fd5b610a2a8383611f0a565b505050565b60105481565b610a46610a40611f02565b82611fc3565b610a85576040517f08c379a0000000000000000000000000000000000000000000000000000000008152600401610a7c90613ebb565b60405180910390fd5b610a908383836120a1565b505050565b600d5481565b600b5481565b610aa9611f02565b73ffffffffffffffffffffffffffffffffffffffff16610ac7611049565b73ffffffffffffffffffffffffffffffffffffffff1614610b1d576040517f08c379a0000000000000000000000000000000000000000000000000000000008152600401610b1490613e3b565b60405180910390fd5b60004790503373ffffffffffffffffffffffffffffffffffffffff166108fc829081150290604051600060405180830381858888f19350505050158015610b68573d6000803e3d6000fd5b5050565b610b8783838360405180602001604052806000815250611ae0565b505050565b600c5481565b610b9a611f02565b73ffffffffffffffffffffffffffffffffffffffff16610bb8611049565b73ffffffffffffffffffffffffffffffffffffffff1614610c0e576040517f08c379a0000000000000000000000000000000000000000000000000000000008152600401610c0590613e3b565b60405180910390fd5b60008173ffffffffffffffffffffffffffffffffffffffff166370a08231306040518263ffffffff1660e01b8152600401610c499190613b09565b60206040518083038186803b158015610c6157600080fd5b505afa158015610c75573d6000803e3d6000fd5b505050506040513d601f19601f82011682018060405250810190610c999190613143565b90508173ffffffffffffffffffffffffffffffffffffffff1663a9059cbb33836040518363ffffffff1660e01b8152600401610cd6929190613b70565b602060405180830381600087803b158015610cf057600080fd5b505af1158015610d04573d6000803e3d6000fd5b505050506040513d601f19601f82011682018060405250810190610d28919061300c565b505050565b610d35611f02565b73ffffffffffffffffffffffffffffffffffffffff16610d53611049565b73ffffffffffffffffffffffffffffffffffffffff1614610da9576040517f08c379a0000000000000000000000000000000000000000000000000000000008152600401610da090613e3b565b60405180910390fd5b80600a9080519060200190610dbf929190612ba6565b5050565b6000806002600084815260200190815260200160002060009054906101000a900473ffffffffffffffffffffffffffffffffffffffff169050600073ffffffffffffffffffffffffffffffffffffffff168173ffffffffffffffffffffffffffffffffffffffff161415610e6c576040517f08c379a0000000000000000000000000000000000000000000000000000000008152600401610e6390613d9b565b60405180910390fd5b80915050919050565b60115481565b600a8054610e8890614181565b80601f0160208091040260200160405190810160405280929190818152602001828054610eb490614181565b8015610f015780601f10610ed657610100808354040283529160200191610f01565b820191906000526020600020905b815481529060010190602001808311610ee457829003601f168201915b505050505081565b60008073ffffffffffffffffffffffffffffffffffffffff168273ffffffffffffffffffffffffffffffffffffffff161415610f7a576040517f08c379a0000000000000000000000000000000000000000000000000000000008152600401610f7190613d5b565b60405180910390fd5b600360008373ffffffffffffffffffffffffffffffffffffffff1673ffffffffffffffffffffffffffffffffffffffff168152602001908152602001600020549050919050565b610fc9611f02565b73ffffffffffffffffffffffffffffffffffffffff16610fe7611049565b73ffffffffffffffffffffffffffffffffffffffff161461103d576040517f08c379a000000000000000000000000000000000000000000000000000000000815260040161103490613e3b565b60405180910390fd5b61104760006122fd565b565b6000600760009054906101000a900473ffffffffffffffffffffffffffffffffffffffff16905090565b81816011546110ea838380806020026020016040519081016040528093929190818152602001838360200280828437600081840152601f19601f8201169050808301925050505050505082336040516020016110cf9190613ac2565b604051602081830303815290604052805190602001206123c3565b611129576040517f08c379a000000000000000000000000000000000000000000000000000000000815260040161112090613d1b565b60405180910390fd5b6002600854141561116f576040517f08c379a000000000000000000000000000000000000000000000000000000000815260040161116690613edb565b60405180910390fd5b6002600881905550601260003373ffffffffffffffffffffffffffffffffffffffff1673ffffffffffffffffffffffffffffffffffffffff16815260200190815260200160002060009054906101000a900460ff1615611204576040517f08c379a00000000000000000000000000000000000000000000000000000000081526004016111fb90613d7b565b60405180910390fd5b61121033600e546123da565b600e6000815480929190611223906141b3565b91905055506001601260003373ffffffffffffffffffffffffffffffffffffffff1673ffffffffffffffffffffffffffffffffffffffff16815260200190815260200160002060006101000a81548160ff02191690831515021790555060016008819055505050505050565b60606001805461129e90614181565b80601f01602080910402602001604051908101604052809291908181526020018280546112ca90614181565b80156113175780601f106112ec57610100808354040283529160200191611317565b820191906000526020600020905b8154815290600101906020018083116112fa57829003601f168201915b5050505050905090565b7f000000000000000000000000000000000000000000000000000000000000000081565b611357611350611f02565b83836125a8565b5050565b8181600f546113d2838380806020026020016040519081016040528093929190818152602001838360200280828437600081840152601f19601f8201169050808301925050505050505082336040516020016113b79190613ac2565b604051602081830303815290604052805190602001206123c3565b611411576040517f08c379a000000000000000000000000000000000000000000000000000000000815260040161140890613d1b565b60405180910390fd5b60026008541415611457576040517f08c379a000000000000000000000000000000000000000000000000000000000815260040161144e90613edb565b60405180910390fd5b60026008819055507f0000000000000000000000000000000000000000000000000000000000000000600c5411156114c4576040517f08c379a00000000000000000000000000000000000000000000000000000000081526004016114bb90613c5b565b60405180910390fd5b601260003373ffffffffffffffffffffffffffffffffffffffff1673ffffffffffffffffffffffffffffffffffffffff16815260200190815260200160002060009054906101000a900460ff1615611551576040517f08c379a000000000000000000000000000000000000000000000000000000000815260040161154890613e9b565b60405180910390fd5b61155d33600c546123da565b600c6000815480929190611570906141b3565b91905055506001601260003373ffffffffffffffffffffffffffffffffffffffff1673ffffffffffffffffffffffffffffffffffffffff16815260200190815260200160002060006101000a81548160ff02191690831515021790555060016008819055505050505050565b60026008541415611622576040517f08c379a000000000000000000000000000000000000000000000000000000000815260040161161990613edb565b60405180910390fd5b6002600881905550611632611f02565b73ffffffffffffffffffffffffffffffffffffffff16611650611049565b73ffffffffffffffffffffffffffffffffffffffff16146116a6576040517f08c379a000000000000000000000000000000000000000000000000000000000815260040161169d90613e3b565b60405180910390fd5b7f0000000000000000000000000000000000000000000000000000000000000000600b5411156116d557600080fd5b6116e133600b546123da565b600b60008154809291906116f4906141b3565b91905055506001600881905550565b818160105461177a838380806020026020016040519081016040528093929190818152602001838360200280828437600081840152601f19601f82011690508083019250505050505050823360405160200161175f9190613ac2565b604051602081830303815290604052805190602001206123c3565b6117b9576040517f08c379a00000000000000000000000000000000000000000000000000000000081526004016117b090613d1b565b60405180910390fd5b600260085414156117ff576040517f08c379a00000000000000000000000000000000000000000000000000000000081526004016117f690613edb565b60405180910390fd5b60026008819055507f0000000000000000000000000000000000000000000000000000000000000000600d54111561183657600080fd5b601260003373ffffffffffffffffffffffffffffffffffffffff1673ffffffffffffffffffffffffffffffffffffffff16815260200190815260200160002060009054906101000a900460ff16156118c3576040517f08c379a00000000000000000000000000000000000000000000000000000000081526004016118ba90613dbb565b60405180910390fd5b6118cf33600d546123da565b600d60008154809291906118e2906141b3565b91905055506001601260003373ffffffffffffffffffffffffffffffffffffffff1673ffffffffffffffffffffffffffffffffffffffff16815260200190815260200160002060006101000a81548160ff02191690831515021790555060016008819055505050505050565b611956611f02565b73ffffffffffffffffffffffffffffffffffffffff16611974611049565b73ffffffffffffffffffffffffffffffffffffffff16146119ca576040517f08c379a00000000000000000000000000000000000000000000000000000000081526004016119c190613e3b565b60405180910390fd5b8060108190555050565b6119dc611f02565b73ffffffffffffffffffffffffffffffffffffffff166119fa611049565b73ffffffffffffffffffffffffffffffffffffffff1614611a50576040517f08c379a0000000000000000000000000000000000000000000000000000000008152600401611a4790613e3b565b60405180910390fd5b80600f8190555050565b611a62611f02565b73ffffffffffffffffffffffffffffffffffffffff16611a80611049565b73ffffffffffffffffffffffffffffffffffffffff1614611ad6576040517f08c379a0000000000000000000000000000000000000000000000000000000008152600401611acd90613e3b565b60405180910390fd5b8060118190555050565b611af1611aeb611f02565b83611fc3565b611b30576040517f08c379a0000000000000000000000000000000000000000000000000000000008152600401611b2790613ebb565b60405180910390fd5b611b3c84848484612715565b50505050565b7f000000000000000000000000000000000000000000000000000000000000000081565b6060611b7182611e96565b611bb0576040517f08c379a0000000000000000000000000000000000000000000000000000000008152600401611ba790613dfb565b60405180910390fd5b600a611bbb83612771565b604051602001611bcc929190613bf1565b6040516020818303038152906040529050919050565b60126020528060005260406000206000915054906101000a900460ff1681565b600f5481565b600e5481565b606060098054611c1d90614181565b80601f0160208091040260200160405190810160405280929190818152602001828054611c4990614181565b8015611c965780601f10611c6b57610100808354040283529160200191611c96565b820191906000526020600020905b815481529060010190602001808311611c7957829003601f168201915b5050505050905090565b6000600560008473ffffffffffffffffffffffffffffffffffffffff1673ffffffffffffffffffffffffffffffffffffffff16815260200190815260200160002060008373ffffffffffffffffffffffffffffffffffffffff1673ffffffffffffffffffffffffffffffffffffffff16815260200190815260200160002060009054906101000a900460ff16905092915050565b611d3c611f02565b73ffffffffffffffffffffffffffffffffffffffff16611d5a611049565b73ffffffffffffffffffffffffffffffffffffffff1614611db0576040517f08c379a0000000000000000000000000000000000000000000000000000000008152600401611da790613e3b565b60405180910390fd5b600073ffffffffffffffffffffffffffffffffffffffff168173ffffffffffffffffffffffffffffffffffffffff161415611e20576040517f08c379a0000000000000000000000000000000000000000000000000000000008152600401611e1790613c7b565b60405180910390fd5b611e29816122fd565b50565b60007f01ffc9a7000000000000000000000000000000000000000000000000000000007bffffffffffffffffffffffffffffffffffffffffffffffffffffffff1916827bffffffffffffffffffffffffffffffffffffffffffffffffffffffff1916149050919050565b60008073ffffffffffffffffffffffffffffffffffffffff166002600084815260200190815260200160002060009054906101000a900473ffffffffffffffffffffffffffffffffffffffff1673ffffffffffffffffffffffffffffffffffffffff1614159050919050565b600033905090565b816004600083815260200190815260200160002060006101000a81548173ffffffffffffffffffffffffffffffffffffffff021916908373ffffffffffffffffffffffffffffffffffffffff160217905550808273ffffffffffffffffffffffffffffffffffffffff16611f7d83610dc3565b73ffffffffffffffffffffffffffffffffffffffff167f8c5be1e5ebec7d5bd14f71427d1e84f3dd0314c0f7b2291e5b200ac8c7c3b92560405160405180910390a45050565b6000611fce82611e96565b61200d576040517f08c379a000000000000000000000000000000000000000000000000000000000815260040161200490613cfb565b60405180910390fd5b600061201883610dc3565b90508073ffffffffffffffffffffffffffffffffffffffff168473ffffffffffffffffffffffffffffffffffffffff16148061208757508373ffffffffffffffffffffffffffffffffffffffff1661206f84610892565b73ffffffffffffffffffffffffffffffffffffffff16145b8061209857506120978185611ca0565b5b91505092915050565b8273ffffffffffffffffffffffffffffffffffffffff166120c182610dc3565b73ffffffffffffffffffffffffffffffffffffffff1614612117576040517f08c379a000000000000000000000000000000000000000000000000000000000815260040161210e90613e5b565b60405180910390fd5b600073ffffffffffffffffffffffffffffffffffffffff168273ffffffffffffffffffffffffffffffffffffffff161415612187576040517f08c379a000000000000000000000000000000000000000000000000000000000815260040161217e90613cbb565b60405180910390fd5b61219283838361291e565b61219d600082611f0a565b6001600360008573ffffffffffffffffffffffffffffffffffffffff1673ffffffffffffffffffffffffffffffffffffffff16815260200190815260200160002060008282546121ed919061407b565b925050819055506001600360008473ffffffffffffffffffffffffffffffffffffffff1673ffffffffffffffffffffffffffffffffffffffff16815260200190815260200160002060008282546122449190613ff4565b92505081905550816002600083815260200190815260200160002060006101000a81548173ffffffffffffffffffffffffffffffffffffffff021916908373ffffffffffffffffffffffffffffffffffffffff160217905550808273ffffffffffffffffffffffffffffffffffffffff168473ffffffffffffffffffffffffffffffffffffffff167fddf252ad1be2c89b69c2b068fc378daa952ba7f163c4a11628f55a4df523b3ef60405160405180910390a4505050565b6000600760009054906101000a900473ffffffffffffffffffffffffffffffffffffffff16905081600760006101000a81548173ffffffffffffffffffffffffffffffffffffffff021916908373ffffffffffffffffffffffffffffffffffffffff1602179055508173ffffffffffffffffffffffffffffffffffffffff168173ffffffffffffffffffffffffffffffffffffffff167f8be0079c531659141344cd1fd0a4f28419497f9722a3daafe3b4186f6b6457e060405160405180910390a35050565b6000826123d08584612923565b1490509392505050565b600073ffffffffffffffffffffffffffffffffffffffff168273ffffffffffffffffffffffffffffffffffffffff16141561244a576040517f08c379a000000000000000000000000000000000000000000000000000000000815260040161244190613ddb565b60405180910390fd5b61245381611e96565b15612493576040517f08c379a000000000000000000000000000000000000000000000000000000000815260040161248a90613c9b565b60405180910390fd5b61249f6000838361291e565b6001600360008473ffffffffffffffffffffffffffffffffffffffff1673ffffffffffffffffffffffffffffffffffffffff16815260200190815260200160002060008282546124ef9190613ff4565b92505081905550816002600083815260200190815260200160002060006101000a81548173ffffffffffffffffffffffffffffffffffffffff021916908373ffffffffffffffffffffffffffffffffffffffff160217905550808273ffffffffffffffffffffffffffffffffffffffff16600073ffffffffffffffffffffffffffffffffffffffff167fddf252ad1be2c89b69c2b068fc378daa952ba7f163c4a11628f55a4df523b3ef60405160405180910390a45050565b8173ffffffffffffffffffffffffffffffffffffffff168373ffffffffffffffffffffffffffffffffffffffff161415612617576040517f08c379a000000000000000000000000000000000000000000000000000000000815260040161260e90613cdb565b60405180910390fd5b80600560008573ffffffffffffffffffffffffffffffffffffffff1673ffffffffffffffffffffffffffffffffffffffff16815260200190815260200160002060008473ffffffffffffffffffffffffffffffffffffffff1673ffffffffffffffffffffffffffffffffffffffff16815260200190815260200160002060006101000a81548160ff0219169083151502179055508173ffffffffffffffffffffffffffffffffffffffff168373ffffffffffffffffffffffffffffffffffffffff167f17307eab39ab6107e8899845ad3d59bd9653f200f220920489ca2b5937696c31836040516127089190613b99565b60405180910390a3505050565b6127208484846120a1565b61272c848484846129fc565b61276b576040517f08c379a000000000000000000000000000000000000000000000000000000000815260040161276290613c3b565b60405180910390fd5b50505050565b606060008214156127b9576040518060400160405280600181526020017f30000000000000000000000000000000000000000000000000000000000000008152509050612919565b600082905060005b600082146127eb5780806127d4906141b3565b915050600a826127e4919061404a565b91506127c1565b60008167ffffffffffffffff81111561282d577f4e487b7100000000000000000000000000000000000000000000000000000000600052604160045260246000fd5b6040519080825280601f01601f19166020018201604052801561285f5781602001600182028036833780820191505090505b5090505b6000851461291257600182612878919061407b565b9150600a85612887919061422a565b60306128939190613ff4565b60f81b8183815181106128cf577f4e487b7100000000000000000000000000000000000000000000000000000000600052603260045260246000fd5b60200101907effffffffffffffffffffffffffffffffffffffffffffffffffffffffffffff1916908160001a905350600a8561290b919061404a565b9450612863565b8093505050505b919050565b505050565b60008082905060005b84518110156129f1576000858281518110612970577f4e487b7100000000000000000000000000000000000000000000000000000000600052603260045260246000fd5b602002602001015190508083116129b1578281604051602001612994929190613add565b6040516020818303038152906040528051906020012092506129dd565b80836040516020016129c4929190613add565b6040516020818303038152906040528051906020012092505b5080806129e9906141b3565b91505061292c565b508091505092915050565b6000612a1d8473ffffffffffffffffffffffffffffffffffffffff16612b93565b15612b86578373ffffffffffffffffffffffffffffffffffffffff1663150b7a02612a46611f02565b8786866040518563ffffffff1660e01b8152600401612a689493929190613b24565b602060405180830381600087803b158015612a8257600080fd5b505af1925050508015612ab357506040513d601f19601f82011682018060405250810190612ab09190613087565b60015b612b36573d8060008114612ae3576040519150601f19603f3d011682016040523d82523d6000602084013e612ae8565b606091505b50600081511415612b2e576040517f08c379a0000000000000000000000000000000000000000000000000000000008152600401612b2590613c3b565b60405180910390fd5b805181602001fd5b63150b7a0260e01b7bffffffffffffffffffffffffffffffffffffffffffffffffffffffff1916817bffffffffffffffffffffffffffffffffffffffffffffffffffffffff191614915050612b8b565b600190505b949350505050565b600080823b905060008111915050919050565b828054612bb290614181565b90600052602060002090601f016020900481019282612bd45760008555612c1b565b82601f10612bed57805160ff1916838001178555612c1b565b82800160010185558215612c1b579182015b82811115612c1a578251825591602001919060010190612bff565b5b509050612c289190612c2c565b5090565b5b80821115612c45576000816000905550600101612c2d565b5090565b6000612c5c612c5784613f47565b613f16565b905082815260208101848484011115612c7457600080fd5b612c7f84828561413f565b509392505050565b6000612c9a612c9584613f77565b613f16565b905082815260208101848484011115612cb257600080fd5b612cbd84828561413f565b509392505050565b600081359050612cd481614335565b92915050565b60008083601f840112612cec57600080fd5b8235905067ffffffffffffffff811115612d0557600080fd5b602083019150836020820283011115612d1d57600080fd5b9250929050565b600081359050612d338161434c565b92915050565b600081519050612d488161434c565b92915050565b600081359050612d5d81614363565b92915050565b600081359050612d728161437a565b92915050565b600081519050612d878161437a565b92915050565b600082601f830112612d9e57600080fd5b8135612dae848260208601612c49565b91505092915050565b600081359050612dc681614391565b92915050565b600082601f830112612ddd57600080fd5b8135612ded848260208601612c87565b91505092915050565b600081359050612e05816143a8565b92915050565b600081519050612e1a816143a8565b92915050565b600060208284031215612e3257600080fd5b6000612e4084828501612cc5565b91505092915050565b60008060408385031215612e5c57600080fd5b6000612e6a85828601612cc5565b9250506020612e7b85828601612cc5565b9150509250929050565b600080600060608486031215612e9a57600080fd5b6000612ea886828701612cc5565b9350506020612eb986828701612cc5565b9250506040612eca86828701612df6565b9150509250925092565b60008060008060808587031215612eea57600080fd5b6000612ef887828801612cc5565b9450506020612f0987828801612cc5565b9350506040612f1a87828801612df6565b925050606085013567ffffffffffffffff811115612f3757600080fd5b612f4387828801612d8d565b91505092959194509250565b60008060408385031215612f6257600080fd5b6000612f7085828601612cc5565b9250506020612f8185828601612d24565b9150509250929050565b60008060408385031215612f9e57600080fd5b6000612fac85828601612cc5565b9250506020612fbd85828601612df6565b9150509250929050565b60008060208385031215612fda57600080fd5b600083013567ffffffffffffffff811115612ff457600080fd5b61300085828601612cda565b92509250509250929050565b60006020828403121561301e57600080fd5b600061302c84828501612d39565b91505092915050565b60006020828403121561304757600080fd5b600061305584828501612d4e565b91505092915050565b60006020828403121561307057600080fd5b600061307e84828501612d63565b91505092915050565b60006020828403121561309957600080fd5b60006130a784828501612d78565b91505092915050565b6000602082840312156130c257600080fd5b60006130d084828501612db7565b91505092915050565b6000602082840312156130eb57600080fd5b600082013567ffffffffffffffff81111561310557600080fd5b61311184828501612dcc565b91505092915050565b60006020828403121561312c57600080fd5b600061313a84828501612df6565b91505092915050565b60006020828403121561315557600080fd5b600061316384828501612e0b565b91505092915050565b613175816140af565b82525050565b61318c613187826140af565b6141fc565b82525050565b61319b816140c1565b82525050565b6131aa816140cd565b82525050565b6131c16131bc826140cd565b61420e565b82525050565b60006131d282613fbc565b6131dc8185613fd2565b93506131ec81856020860161414e565b6131f581614317565b840191505092915050565b600061320b82613fc7565b6132158185613fe3565b935061322581856020860161414e565b61322e81614317565b840191505092915050565b6000815461324681614181565b6132508186613fe3565b9450600182166000811461326b576001811461327d576132b0565b60ff19831686526020860193506132b0565b61328685613fa7565b60005b838110156132a857815481890152600182019150602081019050613289565b808801955050505b50505092915050565b60006132c6603283613fe3565b91507f4552433732313a207472616e7366657220746f206e6f6e20455243373231526560008301527f63656976657220696d706c656d656e74657200000000000000000000000000006020830152604082019050919050565b600061332c601d83613fe3565b91507f6d696e74656420746865206d6178696d756d2023206f6620656c7665730000006000830152602082019050919050565b600061336c602683613fe3565b91507f4f776e61626c653a206e6577206f776e657220697320746865207a65726f206160008301527f64647265737300000000000000000000000000000000000000000000000000006020830152604082019050919050565b60006133d2601c83613fe3565b91507f4552433732313a20746f6b656e20616c7265616479206d696e746564000000006000830152602082019050919050565b6000613412602483613fe3565b91507f4552433732313a207472616e7366657220746f20746865207a65726f2061646460008301527f72657373000000000000000000000000000000000000000000000000000000006020830152604082019050919050565b6000613478601983613fe3565b91507f4552433732313a20617070726f766520746f2063616c6c6572000000000000006000830152602082019050919050565b60006134b8602c83613fe3565b91507f4552433732313a206f70657261746f7220717565727920666f72206e6f6e657860008301527f697374656e7420746f6b656e00000000000000000000000000000000000000006020830152604082019050919050565b600061351e601e83613fe3565b91507f4164647265737320646f6573206e6f7420657869737420696e206c69737400006000830152602082019050919050565b600061355e603883613fe3565b91507f4552433732313a20617070726f76652063616c6c6572206973206e6f74206f7760008301527f6e6572206e6f7220617070726f76656420666f7220616c6c00000000000000006020830152604082019050919050565b60006135c4602a83613fe3565b91507f4552433732313a2062616c616e636520717565727920666f7220746865207a6560008301527f726f2061646472657373000000000000000000000000000000000000000000006020830152604082019050919050565b600061362a602583613fe3565b91507f456c6620697320616c726561647920636c61696d65642062792074686973207760008301527f616c6c65740000000000000000000000000000000000000000000000000000006020830152604082019050919050565b6000613690602983613fe3565b91507f4552433732313a206f776e657220717565727920666f72206e6f6e657869737460008301527f656e7420746f6b656e00000000000000000000000000000000000000000000006020830152604082019050919050565b60006136f6602a83613fe3565b91507f5265696e6465657220697320616c726561647920636c61696d6564206279207460008301527f6869732077616c6c6574000000000000000000000000000000000000000000006020830152604082019050919050565b600061375c602083613fe3565b91507f4552433732313a206d696e7420746f20746865207a65726f20616464726573736000830152602082019050919050565b600061379c602b83613fe3565b91507f4552433732314d657461646174613a20717565727920666f72206e6f6e65786960008301527f7374656e7420746f6b656e0000000000000000000000000000000000000000006020830152604082019050919050565b6000613802602c83613fe3565b91507f4552433732313a20617070726f76656420717565727920666f72206e6f6e657860008301527f697374656e7420746f6b656e00000000000000000000000000000000000000006020830152604082019050919050565b6000613868600583613fe3565b91507f2e6a736f6e0000000000000000000000000000000000000000000000000000006000830152602082019050919050565b60006138a8602083613fe3565b91507f4f776e61626c653a2063616c6c6572206973206e6f7420746865206f776e65726000830152602082019050919050565b60006138e8602983613fe3565b91507f4552433732313a207472616e73666572206f6620746f6b656e2074686174206960008301527f73206e6f74206f776e00000000000000000000000000000000000000000000006020830152604082019050919050565b600061394e602183613fe3565b91507f4552433732313a20617070726f76616c20746f2063757272656e74206f776e6560008301527f72000000000000000000000000000000000000000000000000000000000000006020830152604082019050919050565b60006139b4602c83613fe3565b91507f576f726b657220656c6620697320616c726561647920636c61696d656420627960008301527f20746869732077616c6c657400000000000000000000000000000000000000006020830152604082019050919050565b6000613a1a603183613fe3565b91507f4552433732313a207472616e736665722063616c6c6572206973206e6f74206f60008301527f776e6572206e6f7220617070726f7665640000000000000000000000000000006020830152604082019050919050565b6000613a80601f83613fe3565b91507f5265656e7472616e637947756172643a207265656e7472616e742063616c6c006000830152602082019050919050565b613abc81614135565b82525050565b6000613ace828461317b565b60148201915081905092915050565b6000613ae982856131b0565b602082019150613af982846131b0565b6020820191508190509392505050565b6000602082019050613b1e600083018461316c565b92915050565b6000608082019050613b39600083018761316c565b613b46602083018661316c565b613b536040830185613ab3565b8181036060830152613b6581846131c7565b905095945050505050565b6000604082019050613b85600083018561316c565b613b926020830184613ab3565b9392505050565b6000602082019050613bae6000830184613192565b92915050565b6000602082019050613bc960008301846131a1565b92915050565b60006020820190508181036000830152613be98184613200565b905092915050565b60006060820190508181036000830152613c0b8185613239565b90508181036020830152613c1f8184613200565b90508181036040830152613c328161385b565b90509392505050565b60006020820190508181036000830152613c54816132b9565b9050919050565b60006020820190508181036000830152613c748161331f565b9050919050565b60006020820190508181036000830152613c948161335f565b9050919050565b60006020820190508181036000830152613cb4816133c5565b9050919050565b60006020820190508181036000830152613cd481613405565b9050919050565b60006020820190508181036000830152613cf48161346b565b9050919050565b60006020820190508181036000830152613d14816134ab565b9050919050565b60006020820190508181036000830152613d3481613511565b9050919050565b60006020820190508181036000830152613d5481613551565b9050919050565b60006020820190508181036000830152613d74816135b7565b9050919050565b60006020820190508181036000830152613d948161361d565b9050919050565b60006020820190508181036000830152613db481613683565b9050919050565b60006020820190508181036000830152613dd4816136e9565b9050919050565b60006020820190508181036000830152613df48161374f565b9050919050565b60006020820190508181036000830152613e148161378f565b9050919050565b60006020820190508181036000830152613e34816137f5565b9050919050565b60006020820190508181036000830152613e548161389b565b9050919050565b60006020820190508181036000830152613e74816138db565b9050919050565b60006020820190508181036000830152613e9481613941565b9050919050565b60006020820190508181036000830152613eb4816139a7565b9050919050565b60006020820190508181036000830152613ed481613a0d565b9050919050565b60006020820190508181036000830152613ef481613a73565b9050919050565b6000602082019050613f106000830184613ab3565b92915050565b6000604051905081810181811067ffffffffffffffff82111715613f3d57613f3c6142e8565b5b8060405250919050565b600067ffffffffffffffff821115613f6257613f616142e8565b5b601f19601f8301169050602081019050919050565b600067ffffffffffffffff821115613f9257613f916142e8565b5b601f19601f8301169050602081019050919050565b60008190508160005260206000209050919050565b600081519050919050565b600081519050919050565b600082825260208201905092915050565b600082825260208201905092915050565b6000613fff82614135565b915061400a83614135565b9250827fffffffffffffffffffffffffffffffffffffffffffffffffffffffffffffffff0382111561403f5761403e61425b565b5b828201905092915050565b600061405582614135565b915061406083614135565b9250826140705761406f61428a565b5b828204905092915050565b600061408682614135565b915061409183614135565b9250828210156140a4576140a361425b565b5b828203905092915050565b60006140ba82614115565b9050919050565b60008115159050919050565b6000819050919050565b60007fffffffff0000000000000000000000000000000000000000000000000000000082169050919050565b600061410e826140af565b9050919050565b600073ffffffffffffffffffffffffffffffffffffffff82169050919050565b6000819050919050565b82818337600083830152505050565b60005b8381101561416c578082015181840152602081019050614151565b8381111561417b576000848401525b50505050565b6000600282049050600182168061419957607f821691505b602082108114156141ad576141ac6142b9565b5b50919050565b60006141be82614135565b91507fffffffffffffffffffffffffffffffffffffffffffffffffffffffffffffffff8214156141f1576141f061425b565b5b600182019050919050565b600061420782614218565b9050919050565b6000819050919050565b600061422382614328565b9050919050565b600061423582614135565b915061424083614135565b9250826142505761424f61428a565b5b828206905092915050565b7f4e487b7100000000000000000000000000000000000000000000000000000000600052601160045260246000fd5b7f4e487b7100000000000000000000000000000000000000000000000000000000600052601260045260246000fd5b7f4e487b7100000000000000000000000000000000000000000000000000000000600052602260045260246000fd5b7f4e487b7100000000000000000000000000000000000000000000000000000000600052604160045260246000fd5b6000601f19601f8301169050919050565b60008160601b9050919050565b61433e816140af565b811461434957600080fd5b50565b614355816140c1565b811461436057600080fd5b50565b61436c816140cd565b811461437757600080fd5b50565b614383816140d7565b811461438e57600080fd5b50565b61439a81614103565b81146143a557600080fd5b50565b6143b181614135565b81146143bc57600080fd5b5056fea2646970667358221220213c84de70b3a81b6eb5d1cf4806eec672044527cfcefd17b2a766f6b1d7be7564736f6c63430008000033",
  "linkReferences": {},
  "deployedLinkReferences": {}
}