{
  "_format": "hh-sol-artifact-1",
  "contractName": "ElfNFT",
  "sourceName": "contracts/elf.sol",
  "abi": [
    {
      "inputs": [
        {
          "internalType": "string",
          "name": "_baseURI",
          "type": "string"
        },
        {
          "internalType": "string",
          "name": "_baseExtension",
          "type": "string"
        },
        {
          "internalType": "string",
          "name": "collectionURI",
          "type": "string"
        }
      ],
      "stateMutability": "nonpayable",
      "type": "constructor"
    },
    {
      "anonymous": false,
      "inputs": [
        {
          "indexed": true,
          "internalType": "address",
          "name": "owner",
          "type": "address"
        },
        {
          "indexed": true,
          "internalType": "address",
          "name": "approved",
          "type": "address"
        },
        {
          "indexed": true,
          "internalType": "uint256",
          "name": "tokenId",
          "type": "uint256"
        }
      ],
      "name": "Approval",
      "type": "event"
    },
    {
      "anonymous": false,
      "inputs": [
        {
          "indexed": true,
          "internalType": "address",
          "name": "owner",
          "type": "address"
        },
        {
          "indexed": true,
          "internalType": "address",
          "name": "operator",
          "type": "address"
        },
        {
          "indexed": false,
          "internalType": "bool",
          "name": "approved",
          "type": "bool"
        }
      ],
      "name": "ApprovalForAll",
      "type": "event"
    },
    {
      "anonymous": false,
      "inputs": [
        {
          "indexed": true,
          "internalType": "address",
          "name": "previousOwner",
          "type": "address"
        },
        {
          "indexed": true,
          "internalType": "address",
          "name": "newOwner",
          "type": "address"
        }
      ],
      "name": "OwnershipTransferred",
      "type": "event"
    },
    {
      "anonymous": false,
      "inputs": [
        {
          "indexed": true,
          "internalType": "address",
          "name": "from",
          "type": "address"
        },
        {
          "indexed": true,
          "internalType": "address",
          "name": "to",
          "type": "address"
        },
        {
          "indexed": true,
          "internalType": "uint256",
          "name": "tokenId",
          "type": "uint256"
        }
      ],
      "name": "Transfer",
      "type": "event"
    },
    {
      "inputs": [
        {
          "internalType": "address",
          "name": "to",
          "type": "address"
        },
        {
          "internalType": "uint256",
          "name": "tokenId",
          "type": "uint256"
        }
      ],
      "name": "approve",
      "outputs": [],
      "stateMutability": "nonpayable",
      "type": "function"
    },
    {
      "inputs": [
        {
          "internalType": "address",
          "name": "owner",
          "type": "address"
        }
      ],
      "name": "balanceOf",
      "outputs": [
        {
          "internalType": "uint256",
          "name": "",
          "type": "uint256"
        }
      ],
      "stateMutability": "view",
      "type": "function"
    },
    {
      "inputs": [],
      "name": "baseExtension",
      "outputs": [
        {
          "internalType": "string",
          "name": "",
          "type": "string"
        }
      ],
      "stateMutability": "view",
      "type": "function"
    },
    {
      "inputs": [],
      "name": "baseURI",
      "outputs": [
        {
          "internalType": "string",
          "name": "",
          "type": "string"
        }
      ],
      "stateMutability": "view",
      "type": "function"
    },
    {
      "inputs": [],
      "name": "contractURI",
      "outputs": [
        {
          "internalType": "string",
          "name": "",
          "type": "string"
        }
      ],
      "stateMutability": "view",
      "type": "function"
    },
    {
      "inputs": [],
      "name": "elfPrice",
      "outputs": [
        {
          "internalType": "uint256",
          "name": "",
          "type": "uint256"
        }
      ],
      "stateMutability": "view",
      "type": "function"
    },
    {
      "inputs": [
        {
          "internalType": "uint256",
          "name": "tokenId",
          "type": "uint256"
        }
      ],
      "name": "getApproved",
      "outputs": [
        {
          "internalType": "address",
          "name": "",
          "type": "address"
        }
      ],
      "stateMutability": "view",
      "type": "function"
    },
    {
      "inputs": [
        {
          "internalType": "address",
          "name": "owner",
          "type": "address"
        },
        {
          "internalType": "address",
          "name": "operator",
          "type": "address"
        }
      ],
      "name": "isApprovedForAll",
      "outputs": [
        {
          "internalType": "bool",
          "name": "",
          "type": "bool"
        }
      ],
      "stateMutability": "view",
      "type": "function"
    },
    {
      "inputs": [],
      "name": "maxSupplyElves",
      "outputs": [
        {
          "internalType": "uint256",
          "name": "",
          "type": "uint256"
        }
      ],
      "stateMutability": "view",
      "type": "function"
    },
    {
      "inputs": [],
      "name": "maxSupplyReindeer",
      "outputs": [
        {
          "internalType": "uint256",
          "name": "",
          "type": "uint256"
        }
      ],
      "stateMutability": "view",
      "type": "function"
    },
    {
      "inputs": [],
      "name": "maxSupplySanta",
      "outputs": [
        {
          "internalType": "uint256",
          "name": "",
          "type": "uint256"
        }
      ],
      "stateMutability": "view",
      "type": "function"
    },
    {
      "inputs": [
        {
          "internalType": "address",
          "name": "recipient",
          "type": "address"
        }
      ],
      "name": "mintNFT",
      "outputs": [
        {
          "internalType": "uint256",
          "name": "",
          "type": "uint256"
        }
      ],
      "stateMutability": "nonpayable",
      "type": "function"
    },
    {
      "inputs": [],
      "name": "mintWorkerElfWhitelistWhitelist",
      "outputs": [
        {
          "internalType": "uint256",
          "name": "",
          "type": "uint256"
        }
      ],
      "stateMutability": "nonpayable",
      "type": "function"
    },
    {
      "inputs": [],
      "name": "mintedElves",
      "outputs": [
        {
          "internalType": "uint256",
          "name": "",
          "type": "uint256"
        }
      ],
      "stateMutability": "view",
      "type": "function"
    },
    {
      "inputs": [],
      "name": "mintedReindeers",
      "outputs": [
        {
          "internalType": "uint256",
          "name": "",
          "type": "uint256"
        }
      ],
      "stateMutability": "view",
      "type": "function"
    },
    {
      "inputs": [],
      "name": "mintedSantas",
      "outputs": [
        {
          "internalType": "uint256",
          "name": "",
          "type": "uint256"
        }
      ],
      "stateMutability": "view",
      "type": "function"
    },
    {
      "inputs": [],
      "name": "name",
      "outputs": [
        {
          "internalType": "string",
          "name": "",
          "type": "string"
        }
      ],
      "stateMutability": "view",
      "type": "function"
    },
    {
      "inputs": [],
      "name": "owner",
      "outputs": [
        {
          "internalType": "address",
          "name": "",
          "type": "address"
        }
      ],
      "stateMutability": "view",
      "type": "function"
    },
    {
      "inputs": [
        {
          "internalType": "uint256",
          "name": "tokenId",
          "type": "uint256"
        }
      ],
      "name": "ownerOf",
      "outputs": [
        {
          "internalType": "address",
          "name": "",
          "type": "address"
        }
      ],
      "stateMutability": "view",
      "type": "function"
    },
    {
      "inputs": [],
      "name": "publicElfMint",
      "outputs": [
        {
          "internalType": "uint256",
          "name": "",
          "type": "uint256"
        }
      ],
      "stateMutability": "payable",
      "type": "function"
    },
    {
      "inputs": [],
      "name": "publicReindeerMint",
      "outputs": [
        {
          "internalType": "uint256",
          "name": "",
          "type": "uint256"
        }
      ],
      "stateMutability": "payable",
      "type": "function"
    },
    {
      "inputs": [],
      "name": "reindeerPrice",
      "outputs": [
        {
          "internalType": "uint256",
          "name": "",
          "type": "uint256"
        }
      ],
      "stateMutability": "view",
      "type": "function"
    },
    {
      "inputs": [
        {
          "internalType": "address[]",
          "name": "_addresses",
          "type": "address[]"
        }
      ],
      "name": "removeWorkerElfWhitelist",
      "outputs": [],
      "stateMutability": "nonpayable",
      "type": "function"
    },
    {
      "inputs": [],
      "name": "renounceOwnership",
      "outputs": [],
      "stateMutability": "nonpayable",
      "type": "function"
    },
    {
      "inputs": [
        {
          "internalType": "address",
          "name": "from",
          "type": "address"
        },
        {
          "internalType": "address",
          "name": "to",
          "type": "address"
        },
        {
          "internalType": "uint256",
          "name": "tokenId",
          "type": "uint256"
        }
      ],
      "name": "safeTransferFrom",
      "outputs": [],
      "stateMutability": "nonpayable",
      "type": "function"
    },
    {
      "inputs": [
        {
          "internalType": "address",
          "name": "from",
          "type": "address"
        },
        {
          "internalType": "address",
          "name": "to",
          "type": "address"
        },
        {
          "internalType": "uint256",
          "name": "tokenId",
          "type": "uint256"
        },
        {
          "internalType": "bytes",
          "name": "_data",
          "type": "bytes"
        }
      ],
      "name": "safeTransferFrom",
      "outputs": [],
      "stateMutability": "nonpayable",
      "type": "function"
    },
    {
      "inputs": [
        {
          "internalType": "address",
          "name": "operator",
          "type": "address"
        },
        {
          "internalType": "bool",
          "name": "approved",
          "type": "bool"
        }
      ],
      "name": "setApprovalForAll",
      "outputs": [],
      "stateMutability": "nonpayable",
      "type": "function"
    },
    {
      "inputs": [
        {
          "internalType": "string",
          "name": "_baseExtension",
          "type": "string"
        }
      ],
      "name": "setBaseExtension",
      "outputs": [],
      "stateMutability": "nonpayable",
      "type": "function"
    },
    {
      "inputs": [
        {
          "internalType": "string",
          "name": "_baseURI",
          "type": "string"
        }
      ],
      "name": "setBaseURI",
      "outputs": [],
      "stateMutability": "nonpayable",
      "type": "function"
    },
    {
      "inputs": [
        {
          "internalType": "uint256",
          "name": "_elfPrice",
          "type": "uint256"
        },
        {
          "internalType": "uint256",
          "name": "_reindeerPrice",
          "type": "uint256"
        }
      ],
      "name": "setPrice",
      "outputs": [],
      "stateMutability": "nonpayable",
      "type": "function"
    },
    {
      "inputs": [
        {
          "internalType": "address[]",
          "name": "_addresses",
          "type": "address[]"
        }
      ],
      "name": "setWorkerElfWhitelist",
      "outputs": [],
      "stateMutability": "nonpayable",
      "type": "function"
    },
    {
      "inputs": [
        {
          "internalType": "bytes4",
          "name": "interfaceId",
          "type": "bytes4"
        }
      ],
      "name": "supportsInterface",
      "outputs": [
        {
          "internalType": "bool",
          "name": "",
          "type": "bool"
        }
      ],
      "stateMutability": "view",
      "type": "function"
    },
    {
      "inputs": [],
      "name": "symbol",
      "outputs": [
        {
          "internalType": "string",
          "name": "",
          "type": "string"
        }
      ],
      "stateMutability": "view",
      "type": "function"
    },
    {
      "inputs": [
        {
          "internalType": "uint256",
          "name": "tokenId",
          "type": "uint256"
        }
      ],
      "name": "tokenURI",
      "outputs": [
        {
          "internalType": "string",
          "name": "",
          "type": "string"
        }
      ],
      "stateMutability": "view",
      "type": "function"
    },
    {
      "inputs": [
        {
          "internalType": "address",
          "name": "from",
          "type": "address"
        },
        {
          "internalType": "address",
          "name": "to",
          "type": "address"
        },
        {
          "internalType": "uint256",
          "name": "tokenId",
          "type": "uint256"
        }
      ],
      "name": "transferFrom",
      "outputs": [],
      "stateMutability": "nonpayable",
      "type": "function"
    },
    {
      "inputs": [
        {
          "internalType": "address",
          "name": "newOwner",
          "type": "address"
        }
      ],
      "name": "transferOwnership",
      "outputs": [],
      "stateMutability": "nonpayable",
      "type": "function"
    },
    {
      "inputs": [
        {
          "internalType": "address payable",
          "name": "_to",
          "type": "address"
        }
      ],
      "name": "withdraw",
      "outputs": [],
      "stateMutability": "nonpayable",
      "type": "function"
    },
    {
      "inputs": [
        {
          "internalType": "address",
          "name": "",
          "type": "address"
        }
      ],
      "name": "workerElfWhitelist",
      "outputs": [
        {
          "internalType": "bool",
          "name": "",
          "type": "bool"
        }
      ],
      "stateMutability": "view",
      "type": "function"
    }
  ],
  "bytecode": "0x60806040526040518060400160405280600581526020017f2e6a736f6e000000000000000000000000000000000000000000000000000000815250600b908051906020019062000051929190620004c1565b506005600c556000600d556101f4600e556000600f556102d0601055600060115567016345785d8a00006013556706f05b59d3b200006014553480156200009757600080fd5b506040516200474a3803806200474a8339818101604052810190620000bd9190620005e3565b6040518060400160405280600a81526020017f456c6644414f204e4654000000000000000000000000000000000000000000008152506040518060400160405280600681526020017f454c4644414f0000000000000000000000000000000000000000000000000000815250816000908051906020019062000141929190620004c1565b5080600190805190602001906200015a929190620004c1565b5050506200017d62000171620001b960201b60201c565b620001c160201b60201c565b6200018e816200028760201b60201c565b6200019f836200033260201b60201c565b620001b082620003ec60201b60201c565b5050506200082a565b600033905090565b6000600760009054906101000a900473ffffffffffffffffffffffffffffffffffffffff16905081600760006101000a81548173ffffffffffffffffffffffffffffffffffffffff021916908373ffffffffffffffffffffffffffffffffffffffff1602179055508173ffffffffffffffffffffffffffffffffffffffff168173ffffffffffffffffffffffffffffffffffffffff167f8be0079c531659141344cd1fd0a4f28419497f9722a3daafe3b4186f6b6457e060405160405180910390a35050565b62000297620001b960201b60201c565b73ffffffffffffffffffffffffffffffffffffffff16620002bd6200049760201b60201c565b73ffffffffffffffffffffffffffffffffffffffff161462000316576040517f08c379a00000000000000000000000000000000000000000000000000000000081526004016200030d90620006c6565b60405180910390fd5b80600990805190602001906200032e929190620004c1565b5050565b62000342620001b960201b60201c565b73ffffffffffffffffffffffffffffffffffffffff16620003686200049760201b60201c565b73ffffffffffffffffffffffffffffffffffffffff1614620003c1576040517f08c379a0000000000000000000000000000000000000000000000000000000008152600401620003b890620006c6565b60405180910390fd5b6000815111620003d057600080fd5b80600a9080519060200190620003e8929190620004c1565b5050565b620003fc620001b960201b60201c565b73ffffffffffffffffffffffffffffffffffffffff16620004226200049760201b60201c565b73ffffffffffffffffffffffffffffffffffffffff16146200047b576040517f08c379a00000000000000000000000000000000000000000000000000000000081526004016200047290620006c6565b60405180910390fd5b80600b908051906020019062000493929190620004c1565b5050565b6000600760009054906101000a900473ffffffffffffffffffffffffffffffffffffffff16905090565b828054620004cf9062000796565b90600052602060002090601f016020900481019282620004f357600085556200053f565b82601f106200050e57805160ff19168380011785556200053f565b828001600101855582156200053f579182015b828111156200053e57825182559160200191906001019062000521565b5b5090506200054e919062000552565b5090565b5b808211156200056d57600081600090555060010162000553565b5090565b60006200058862000582846200071c565b620006e8565b905082815260208101848484011115620005a157600080fd5b620005ae84828562000760565b509392505050565b600082601f830112620005c857600080fd5b8151620005da84826020860162000571565b91505092915050565b600080600060608486031215620005f957600080fd5b600084015167ffffffffffffffff8111156200061457600080fd5b6200062286828701620005b6565b935050602084015167ffffffffffffffff8111156200064057600080fd5b6200064e86828701620005b6565b925050604084015167ffffffffffffffff8111156200066c57600080fd5b6200067a86828701620005b6565b9150509250925092565b6000620006936020836200074f565b91507f4f776e61626c653a2063616c6c6572206973206e6f7420746865206f776e65726000830152602082019050919050565b60006020820190508181036000830152620006e18162000684565b9050919050565b6000604051905081810181811067ffffffffffffffff82111715620007125762000711620007fb565b5b8060405250919050565b600067ffffffffffffffff8211156200073a5762000739620007fb565b5b601f19601f8301169050602081019050919050565b600082825260208201905092915050565b60005b838110156200078057808201518184015260208101905062000763565b8381111562000790576000848401525b50505050565b60006002820490506001821680620007af57607f821691505b60208210811415620007c657620007c5620007cc565b5b50919050565b7f4e487b7100000000000000000000000000000000000000000000000000000000600052602260045260246000fd5b7f4e487b7100000000000000000000000000000000000000000000000000000000600052604160045260246000fd5b613f10806200083a6000396000f3fe6080604052600436106102255760003560e01c806370a0823111610123578063b88d4fde116100ab578063e985e9c51161006f578063e985e9c5146107ec578063eb21a7ee14610829578063f2fde38b14610847578063f7d7d3ae14610870578063f7d97577146108ad57610225565b8063b88d4fde14610707578063c668286214610730578063c87b56dd1461075b578063da3ef23f14610798578063e8a3d485146107c157610225565b80638d95201f116100f25780638d95201f146106345780638da5cb5b1461065d57806395d89b4114610688578063a22cb465146106b3578063aa55c86f146106dc57610225565b806370a082311461058a578063715018a6146105c75780637eabf132146105de57806388a49e041461060957610225565b806342842e0e116101b157806355f804b31161017557806355f804b3146104a357806358eb6d60146104cc5780635b3099ce146104f75780636352211e146105225780636c0360eb1461055f57610225565b806342842e0e146103be5780634673615f146103e757806351cff8d91461041257806352f1313c1461043b57806354ba0f271461046657610225565b80631a23cfe2116101f85780631a23cfe2146102f857806323b872dd1461032357806326acbadd1461034c578063303c02c214610375578063353e61ec146103a057610225565b806301ffc9a71461022a57806306fdde0314610267578063081812fc14610292578063095ea7b3146102cf575b600080fd5b34801561023657600080fd5b50610251600480360381019061024c9190612d9d565b6108d6565b60405161025e9190613773565b60405180910390f35b34801561027357600080fd5b5061027c6109b8565b604051610289919061378e565b60405180910390f35b34801561029e57600080fd5b506102b960048036038101906102b49190612e30565b610a4a565b6040516102c6919061370c565b60405180910390f35b3480156102db57600080fd5b506102f660048036038101906102f19190612d20565b610acf565b005b34801561030457600080fd5b5061030d610be7565b60405161031a9190613a30565b60405180910390f35b34801561032f57600080fd5b5061034a60048036038101906103459190612c1a565b610bed565b005b34801561035857600080fd5b50610373600480360381019061036e9190612d5c565b610c4d565b005b34801561038157600080fd5b5061038a610e34565b6040516103979190613a30565b60405180910390f35b6103a8610f2e565b6040516103b59190613a30565b60405180910390f35b3480156103ca57600080fd5b506103e560048036038101906103e09190612c1a565b610fb1565b005b3480156103f357600080fd5b506103fc610fd1565b6040516104099190613a30565b60405180910390f35b34801561041e57600080fd5b5061043960048036038101906104349190612bb5565b610fd7565b005b34801561044757600080fd5b50610450611109565b60405161045d9190613a30565b60405180910390f35b34801561047257600080fd5b5061048d60048036038101906104889190612b8c565b61110f565b60405161049a9190613a30565b60405180910390f35b3480156104af57600080fd5b506104ca60048036038101906104c59190612def565b6111b8565b005b3480156104d857600080fd5b506104e161125c565b6040516104ee9190613a30565b60405180910390f35b34801561050357600080fd5b5061050c611262565b6040516105199190613a30565b60405180910390f35b34801561052e57600080fd5b5061054960048036038101906105449190612e30565b611268565b604051610556919061370c565b60405180910390f35b34801561056b57600080fd5b5061057461131a565b604051610581919061378e565b60405180910390f35b34801561059657600080fd5b506105b160048036038101906105ac9190612b8c565b6113a8565b6040516105be9190613a30565b60405180910390f35b3480156105d357600080fd5b506105dc611460565b005b3480156105ea57600080fd5b506105f36114e8565b6040516106009190613a30565b60405180910390f35b34801561061557600080fd5b5061061e6114ee565b60405161062b9190613a30565b60405180910390f35b34801561064057600080fd5b5061065b60048036038101906106569190612d5c565b6114f4565b005b34801561066957600080fd5b5061067261162b565b60405161067f919061370c565b60405180910390f35b34801561069457600080fd5b5061069d611655565b6040516106aa919061378e565b60405180910390f35b3480156106bf57600080fd5b506106da60048036038101906106d59190612ce4565b6116e7565b005b3480156106e857600080fd5b506106f16116fd565b6040516106fe9190613a30565b60405180910390f35b34801561071357600080fd5b5061072e60048036038101906107299190612c69565b611703565b005b34801561073c57600080fd5b50610745611765565b604051610752919061378e565b60405180910390f35b34801561076757600080fd5b50610782600480360381019061077d9190612e30565b6117f3565b60405161078f919061378e565b60405180910390f35b3480156107a457600080fd5b506107bf60048036038101906107ba9190612def565b611872565b005b3480156107cd57600080fd5b506107d6611908565b6040516107e3919061378e565b60405180910390f35b3480156107f857600080fd5b50610813600480360381019061080e9190612bde565b61199a565b6040516108209190613773565b60405180910390f35b610831611a2e565b60405161083e9190613a30565b60405180910390f35b34801561085357600080fd5b5061086e60048036038101906108699190612b8c565b611ab1565b005b34801561087c57600080fd5b5061089760048036038101906108929190612b8c565b611ba9565b6040516108a49190613773565b60405180910390f35b3480156108b957600080fd5b506108d460048036038101906108cf9190612e59565b611bc9565b005b60007f80ac58cd000000000000000000000000000000000000000000000000000000007bffffffffffffffffffffffffffffffffffffffffffffffffffffffff1916827bffffffffffffffffffffffffffffffffffffffffffffffffffffffff191614806109a157507f5b5e139f000000000000000000000000000000000000000000000000000000007bffffffffffffffffffffffffffffffffffffffffffffffffffffffff1916827bffffffffffffffffffffffffffffffffffffffffffffffffffffffff1916145b806109b157506109b082611c57565b5b9050919050565b6060600080546109c790613cee565b80601f01602080910402602001604051908101604052809291908181526020018280546109f390613cee565b8015610a405780601f10610a1557610100808354040283529160200191610a40565b820191906000526020600020905b815481529060010190602001808311610a2357829003601f168201915b5050505050905090565b6000610a5582611cc1565b610a94576040517f08c379a0000000000000000000000000000000000000000000000000000000008152600401610a8b90613990565b60405180910390fd5b6004600083815260200190815260200160002060009054906101000a900473ffffffffffffffffffffffffffffffffffffffff169050919050565b6000610ada82611268565b90508073ffffffffffffffffffffffffffffffffffffffff168373ffffffffffffffffffffffffffffffffffffffff161415610b4b576040517f08c379a0000000000000000000000000000000000000000000000000000000008152600401610b42906139f0565b60405180910390fd5b8073ffffffffffffffffffffffffffffffffffffffff16610b6a611d2d565b73ffffffffffffffffffffffffffffffffffffffff161480610b995750610b9881610b93611d2d565b61199a565b5b610bd8576040517f08c379a0000000000000000000000000000000000000000000000000000000008152600401610bcf906138f0565b60405180910390fd5b610be28383611d35565b505050565b60145481565b610bfe610bf8611d2d565b82611dee565b610c3d576040517f08c379a0000000000000000000000000000000000000000000000000000000008152600401610c3490613a10565b60405180910390fd5b610c48838383611ecc565b505050565b610c55611d2d565b73ffffffffffffffffffffffffffffffffffffffff16610c7361162b565b73ffffffffffffffffffffffffffffffffffffffff1614610cc9576040517f08c379a0000000000000000000000000000000000000000000000000000000008152600401610cc0906139b0565b60405180910390fd5b60005b8151811015610e3057600073ffffffffffffffffffffffffffffffffffffffff16828281518110610d26577f4e487b7100000000000000000000000000000000000000000000000000000000600052603260045260246000fd5b602002602001015173ffffffffffffffffffffffffffffffffffffffff161415610d85576040517f08c379a0000000000000000000000000000000000000000000000000000000008152600401610d7c90613850565b60405180910390fd5b600160126000848481518110610dc4577f4e487b7100000000000000000000000000000000000000000000000000000000600052603260045260246000fd5b602002602001015173ffffffffffffffffffffffffffffffffffffffff1673ffffffffffffffffffffffffffffffffffffffff16815260200190815260200160002060006101000a81548160ff0219169083151502179055508080610e2890613d20565b915050610ccc565b5050565b6000601260003373ffffffffffffffffffffffffffffffffffffffff1673ffffffffffffffffffffffffffffffffffffffff16815260200190815260200160002060009054906101000a900460ff16610ec2576040517f08c379a0000000000000000000000000000000000000000000000000000000008152600401610eb990613830565b60405180910390fd5b6000601260003373ffffffffffffffffffffffffffffffffffffffff1673ffffffffffffffffffffffffffffffffffffffff16815260200190815260200160002060006101000a81548160ff0219169083151502179055506000610f253361110f565b90508091505090565b6000601354341015610f75576040517f08c379a0000000000000000000000000000000000000000000000000000000008152600401610f6c906137b0565b60405180910390fd5b60105460115410610f8557600080fd5b60116000815480929190610f9890613d20565b91905055506000610fa83361110f565b90508091505090565b610fcc83838360405180602001604052806000815250611703565b505050565b600d5481565b610fdf611d2d565b73ffffffffffffffffffffffffffffffffffffffff16610ffd61162b565b73ffffffffffffffffffffffffffffffffffffffff1614611053576040517f08c379a000000000000000000000000000000000000000000000000000000000815260040161104a906139b0565b60405180910390fd5b600047905060008273ffffffffffffffffffffffffffffffffffffffff168260405161107e906136f7565b60006040518083038185875af1925050503d80600081146110bb576040519150601f19603f3d011682016040523d82523d6000602084013e6110c0565b606091505b5050905080611104576040517f08c379a00000000000000000000000000000000000000000000000000000000081526004016110fb90613870565b60405180910390fd5b505050565b600e5481565b6000611119611d2d565b73ffffffffffffffffffffffffffffffffffffffff1661113761162b565b73ffffffffffffffffffffffffffffffffffffffff161461118d576040517f08c379a0000000000000000000000000000000000000000000000000000000008152600401611184906139b0565b60405180910390fd5b6111976008612128565b60006111a3600861213e565b90506111af838261214c565b80915050919050565b6111c0611d2d565b73ffffffffffffffffffffffffffffffffffffffff166111de61162b565b73ffffffffffffffffffffffffffffffffffffffff1614611234576040517f08c379a000000000000000000000000000000000000000000000000000000000815260040161122b906139b0565b60405180910390fd5b600081511161124257600080fd5b80600a9080519060200190611258929190612905565b5050565b60115481565b600f5481565b6000806002600084815260200190815260200160002060009054906101000a900473ffffffffffffffffffffffffffffffffffffffff169050600073ffffffffffffffffffffffffffffffffffffffff168173ffffffffffffffffffffffffffffffffffffffff161415611311576040517f08c379a000000000000000000000000000000000000000000000000000000000815260040161130890613930565b60405180910390fd5b80915050919050565b600a805461132790613cee565b80601f016020809104026020016040519081016040528092919081815260200182805461135390613cee565b80156113a05780601f10611375576101008083540402835291602001916113a0565b820191906000526020600020905b81548152906001019060200180831161138357829003601f168201915b505050505081565b60008073ffffffffffffffffffffffffffffffffffffffff168273ffffffffffffffffffffffffffffffffffffffff161415611419576040517f08c379a000000000000000000000000000000000000000000000000000000000815260040161141090613910565b60405180910390fd5b600360008373ffffffffffffffffffffffffffffffffffffffff1673ffffffffffffffffffffffffffffffffffffffff168152602001908152602001600020549050919050565b611468611d2d565b73ffffffffffffffffffffffffffffffffffffffff1661148661162b565b73ffffffffffffffffffffffffffffffffffffffff16146114dc576040517f08c379a00000000000000000000000000000000000000000000000000000000081526004016114d3906139b0565b60405180910390fd5b6114e6600061231a565b565b60135481565b600c5481565b6114fc611d2d565b73ffffffffffffffffffffffffffffffffffffffff1661151a61162b565b73ffffffffffffffffffffffffffffffffffffffff1614611570576040517f08c379a0000000000000000000000000000000000000000000000000000000008152600401611567906139b0565b60405180910390fd5b60005b8151811015611627576000601260008484815181106115bb577f4e487b7100000000000000000000000000000000000000000000000000000000600052603260045260246000fd5b602002602001015173ffffffffffffffffffffffffffffffffffffffff1673ffffffffffffffffffffffffffffffffffffffff16815260200190815260200160002060006101000a81548160ff021916908315150217905550808061161f90613d20565b915050611573565b5050565b6000600760009054906101000a900473ffffffffffffffffffffffffffffffffffffffff16905090565b60606001805461166490613cee565b80601f016020809104026020016040519081016040528092919081815260200182805461169090613cee565b80156116dd5780601f106116b2576101008083540402835291602001916116dd565b820191906000526020600020905b8154815290600101906020018083116116c057829003601f168201915b5050505050905090565b6116f96116f2611d2d565b83836123e0565b5050565b60105481565b61171461170e611d2d565b83611dee565b611753576040517f08c379a000000000000000000000000000000000000000000000000000000000815260040161174a90613a10565b60405180910390fd5b61175f8484848461254d565b50505050565b600b805461177290613cee565b80601f016020809104026020016040519081016040528092919081815260200182805461179e90613cee565b80156117eb5780601f106117c0576101008083540402835291602001916117eb565b820191906000526020600020905b8154815290600101906020018083116117ce57829003601f168201915b505050505081565b60606117fe82611cc1565b61183d576040517f08c379a000000000000000000000000000000000000000000000000000000000815260040161183490613970565b60405180910390fd5b600a611848836125a9565b600b60405160200161185c939291906136c6565b6040516020818303038152906040529050919050565b61187a611d2d565b73ffffffffffffffffffffffffffffffffffffffff1661189861162b565b73ffffffffffffffffffffffffffffffffffffffff16146118ee576040517f08c379a00000000000000000000000000000000000000000000000000000000081526004016118e5906139b0565b60405180910390fd5b80600b9080519060200190611904929190612905565b5050565b60606009805461191790613cee565b80601f016020809104026020016040519081016040528092919081815260200182805461194390613cee565b80156119905780601f1061196557610100808354040283529160200191611990565b820191906000526020600020905b81548152906001019060200180831161197357829003601f168201915b5050505050905090565b6000600560008473ffffffffffffffffffffffffffffffffffffffff1673ffffffffffffffffffffffffffffffffffffffff16815260200190815260200160002060008373ffffffffffffffffffffffffffffffffffffffff1673ffffffffffffffffffffffffffffffffffffffff16815260200190815260200160002060009054906101000a900460ff16905092915050565b6000601354341015611a75576040517f08c379a0000000000000000000000000000000000000000000000000000000008152600401611a6c906137b0565b60405180910390fd5b600e54600f5410611a8557600080fd5b600f6000815480929190611a9890613d20565b91905055506000611aa83361110f565b90508091505090565b611ab9611d2d565b73ffffffffffffffffffffffffffffffffffffffff16611ad761162b565b73ffffffffffffffffffffffffffffffffffffffff1614611b2d576040517f08c379a0000000000000000000000000000000000000000000000000000000008152600401611b24906139b0565b60405180910390fd5b600073ffffffffffffffffffffffffffffffffffffffff168173ffffffffffffffffffffffffffffffffffffffff161415611b9d576040517f08c379a0000000000000000000000000000000000000000000000000000000008152600401611b94906137f0565b60405180910390fd5b611ba68161231a565b50565b60126020528060005260406000206000915054906101000a900460ff1681565b611bd1611d2d565b73ffffffffffffffffffffffffffffffffffffffff16611bef61162b565b73ffffffffffffffffffffffffffffffffffffffff1614611c45576040517f08c379a0000000000000000000000000000000000000000000000000000000008152600401611c3c906139b0565b60405180910390fd5b81601381905550806014819055505050565b60007f01ffc9a7000000000000000000000000000000000000000000000000000000007bffffffffffffffffffffffffffffffffffffffffffffffffffffffff1916827bffffffffffffffffffffffffffffffffffffffffffffffffffffffff1916149050919050565b60008073ffffffffffffffffffffffffffffffffffffffff166002600084815260200190815260200160002060009054906101000a900473ffffffffffffffffffffffffffffffffffffffff1673ffffffffffffffffffffffffffffffffffffffff1614159050919050565b600033905090565b816004600083815260200190815260200160002060006101000a81548173ffffffffffffffffffffffffffffffffffffffff021916908373ffffffffffffffffffffffffffffffffffffffff160217905550808273ffffffffffffffffffffffffffffffffffffffff16611da883611268565b73ffffffffffffffffffffffffffffffffffffffff167f8c5be1e5ebec7d5bd14f71427d1e84f3dd0314c0f7b2291e5b200ac8c7c3b92560405160405180910390a45050565b6000611df982611cc1565b611e38576040517f08c379a0000000000000000000000000000000000000000000000000000000008152600401611e2f906138d0565b60405180910390fd5b6000611e4383611268565b90508073ffffffffffffffffffffffffffffffffffffffff168473ffffffffffffffffffffffffffffffffffffffff161480611eb257508373ffffffffffffffffffffffffffffffffffffffff16611e9a84610a4a565b73ffffffffffffffffffffffffffffffffffffffff16145b80611ec35750611ec2818561199a565b5b91505092915050565b8273ffffffffffffffffffffffffffffffffffffffff16611eec82611268565b73ffffffffffffffffffffffffffffffffffffffff1614611f42576040517f08c379a0000000000000000000000000000000000000000000000000000000008152600401611f39906139d0565b60405180910390fd5b600073ffffffffffffffffffffffffffffffffffffffff168273ffffffffffffffffffffffffffffffffffffffff161415611fb2576040517f08c379a0000000000000000000000000000000000000000000000000000000008152600401611fa990613890565b60405180910390fd5b611fbd838383612756565b611fc8600082611d35565b6001600360008573ffffffffffffffffffffffffffffffffffffffff1673ffffffffffffffffffffffffffffffffffffffff16815260200190815260200160002060008282546120189190613bf2565b925050819055506001600360008473ffffffffffffffffffffffffffffffffffffffff1673ffffffffffffffffffffffffffffffffffffffff168152602001908152602001600020600082825461206f9190613b6b565b92505081905550816002600083815260200190815260200160002060006101000a81548173ffffffffffffffffffffffffffffffffffffffff021916908373ffffffffffffffffffffffffffffffffffffffff160217905550808273ffffffffffffffffffffffffffffffffffffffff168473ffffffffffffffffffffffffffffffffffffffff167fddf252ad1be2c89b69c2b068fc378daa952ba7f163c4a11628f55a4df523b3ef60405160405180910390a4505050565b6001816000016000828254019250508190555050565b600081600001549050919050565b600073ffffffffffffffffffffffffffffffffffffffff168273ffffffffffffffffffffffffffffffffffffffff1614156121bc576040517f08c379a00000000000000000000000000000000000000000000000000000000081526004016121b390613950565b60405180910390fd5b6121c581611cc1565b15612205576040517f08c379a00000000000000000000000000000000000000000000000000000000081526004016121fc90613810565b60405180910390fd5b61221160008383612756565b6001600360008473ffffffffffffffffffffffffffffffffffffffff1673ffffffffffffffffffffffffffffffffffffffff16815260200190815260200160002060008282546122619190613b6b565b92505081905550816002600083815260200190815260200160002060006101000a81548173ffffffffffffffffffffffffffffffffffffffff021916908373ffffffffffffffffffffffffffffffffffffffff160217905550808273ffffffffffffffffffffffffffffffffffffffff16600073ffffffffffffffffffffffffffffffffffffffff167fddf252ad1be2c89b69c2b068fc378daa952ba7f163c4a11628f55a4df523b3ef60405160405180910390a45050565b6000600760009054906101000a900473ffffffffffffffffffffffffffffffffffffffff16905081600760006101000a81548173ffffffffffffffffffffffffffffffffffffffff021916908373ffffffffffffffffffffffffffffffffffffffff1602179055508173ffffffffffffffffffffffffffffffffffffffff168173ffffffffffffffffffffffffffffffffffffffff167f8be0079c531659141344cd1fd0a4f28419497f9722a3daafe3b4186f6b6457e060405160405180910390a35050565b8173ffffffffffffffffffffffffffffffffffffffff168373ffffffffffffffffffffffffffffffffffffffff16141561244f576040517f08c379a0000000000000000000000000000000000000000000000000000000008152600401612446906138b0565b60405180910390fd5b80600560008573ffffffffffffffffffffffffffffffffffffffff1673ffffffffffffffffffffffffffffffffffffffff16815260200190815260200160002060008473ffffffffffffffffffffffffffffffffffffffff1673ffffffffffffffffffffffffffffffffffffffff16815260200190815260200160002060006101000a81548160ff0219169083151502179055508173ffffffffffffffffffffffffffffffffffffffff168373ffffffffffffffffffffffffffffffffffffffff167f17307eab39ab6107e8899845ad3d59bd9653f200f220920489ca2b5937696c31836040516125409190613773565b60405180910390a3505050565b612558848484611ecc565b6125648484848461275b565b6125a3576040517f08c379a000000000000000000000000000000000000000000000000000000000815260040161259a906137d0565b60405180910390fd5b50505050565b606060008214156125f1576040518060400160405280600181526020017f30000000000000000000000000000000000000000000000000000000000000008152509050612751565b600082905060005b6000821461262357808061260c90613d20565b915050600a8261261c9190613bc1565b91506125f9565b60008167ffffffffffffffff811115612665577f4e487b7100000000000000000000000000000000000000000000000000000000600052604160045260246000fd5b6040519080825280601f01601f1916602001820160405280156126975781602001600182028036833780820191505090505b5090505b6000851461274a576001826126b09190613bf2565b9150600a856126bf9190613d69565b60306126cb9190613b6b565b60f81b818381518110612707577f4e487b7100000000000000000000000000000000000000000000000000000000600052603260045260246000fd5b60200101907effffffffffffffffffffffffffffffffffffffffffffffffffffffffffffff1916908160001a905350600a856127439190613bc1565b945061269b565b8093505050505b919050565b505050565b600061277c8473ffffffffffffffffffffffffffffffffffffffff166128f2565b156128e5578373ffffffffffffffffffffffffffffffffffffffff1663150b7a026127a5611d2d565b8786866040518563ffffffff1660e01b81526004016127c79493929190613727565b602060405180830381600087803b1580156127e157600080fd5b505af192505050801561281257506040513d601f19601f8201168201806040525081019061280f9190612dc6565b60015b612895573d8060008114612842576040519150601f19603f3d011682016040523d82523d6000602084013e612847565b606091505b5060008151141561288d576040517f08c379a0000000000000000000000000000000000000000000000000000000008152600401612884906137d0565b60405180910390fd5b805181602001fd5b63150b7a0260e01b7bffffffffffffffffffffffffffffffffffffffffffffffffffffffff1916817bffffffffffffffffffffffffffffffffffffffffffffffffffffffff1916149150506128ea565b600190505b949350505050565b600080823b905060008111915050919050565b82805461291190613cee565b90600052602060002090601f016020900481019282612933576000855561297a565b82601f1061294c57805160ff191683800117855561297a565b8280016001018555821561297a579182015b8281111561297957825182559160200191906001019061295e565b5b509050612987919061298b565b5090565b5b808211156129a457600081600090555060010161298c565b5090565b60006129bb6129b684613a7c565b613a4b565b905080838252602082019050828560208602820111156129da57600080fd5b60005b85811015612a0a57816129f08882612a90565b8452602084019350602083019250506001810190506129dd565b5050509392505050565b6000612a27612a2284613aa8565b613a4b565b905082815260208101848484011115612a3f57600080fd5b612a4a848285613cac565b509392505050565b6000612a65612a6084613ad8565b613a4b565b905082815260208101848484011115612a7d57600080fd5b612a88848285613cac565b509392505050565b600081359050612a9f81613e67565b92915050565b600081359050612ab481613e7e565b92915050565b600082601f830112612acb57600080fd5b8135612adb8482602086016129a8565b91505092915050565b600081359050612af381613e95565b92915050565b600081359050612b0881613eac565b92915050565b600081519050612b1d81613eac565b92915050565b600082601f830112612b3457600080fd5b8135612b44848260208601612a14565b91505092915050565b600082601f830112612b5e57600080fd5b8135612b6e848260208601612a52565b91505092915050565b600081359050612b8681613ec3565b92915050565b600060208284031215612b9e57600080fd5b6000612bac84828501612a90565b91505092915050565b600060208284031215612bc757600080fd5b6000612bd584828501612aa5565b91505092915050565b60008060408385031215612bf157600080fd5b6000612bff85828601612a90565b9250506020612c1085828601612a90565b9150509250929050565b600080600060608486031215612c2f57600080fd5b6000612c3d86828701612a90565b9350506020612c4e86828701612a90565b9250506040612c5f86828701612b77565b9150509250925092565b60008060008060808587031215612c7f57600080fd5b6000612c8d87828801612a90565b9450506020612c9e87828801612a90565b9350506040612caf87828801612b77565b925050606085013567ffffffffffffffff811115612ccc57600080fd5b612cd887828801612b23565b91505092959194509250565b60008060408385031215612cf757600080fd5b6000612d0585828601612a90565b9250506020612d1685828601612ae4565b9150509250929050565b60008060408385031215612d3357600080fd5b6000612d4185828601612a90565b9250506020612d5285828601612b77565b9150509250929050565b600060208284031215612d6e57600080fd5b600082013567ffffffffffffffff811115612d8857600080fd5b612d9484828501612aba565b91505092915050565b600060208284031215612daf57600080fd5b6000612dbd84828501612af9565b91505092915050565b600060208284031215612dd857600080fd5b6000612de684828501612b0e565b91505092915050565b600060208284031215612e0157600080fd5b600082013567ffffffffffffffff811115612e1b57600080fd5b612e2784828501612b4d565b91505092915050565b600060208284031215612e4257600080fd5b6000612e5084828501612b77565b91505092915050565b60008060408385031215612e6c57600080fd5b6000612e7a85828601612b77565b9250506020612e8b85828601612b77565b9150509250929050565b612e9e81613c26565b82525050565b612ead81613c4a565b82525050565b6000612ebe82613b1d565b612ec88185613b33565b9350612ed8818560208601613cbb565b612ee181613e56565b840191505092915050565b6000612ef782613b28565b612f018185613b4f565b9350612f11818560208601613cbb565b612f1a81613e56565b840191505092915050565b6000612f3082613b28565b612f3a8185613b60565b9350612f4a818560208601613cbb565b80840191505092915050565b60008154612f6381613cee565b612f6d8186613b60565b94506001821660008114612f885760018114612f9957612fcc565b60ff19831686528186019350612fcc565b612fa285613b08565b60005b83811015612fc457815481890152600182019150602081019050612fa5565b838801955050505b50505092915050565b6000612fe2601f83613b4f565b91507f646964206e6f742070726f7669646520746865206d696e696d756d20657468006000830152602082019050919050565b6000613022603283613b4f565b91507f4552433732313a207472616e7366657220746f206e6f6e20455243373231526560008301527f63656976657220696d706c656d656e74657200000000000000000000000000006020830152604082019050919050565b6000613088602683613b4f565b91507f4f776e61626c653a206e6577206f776e657220697320746865207a65726f206160008301527f64647265737300000000000000000000000000000000000000000000000000006020830152604082019050919050565b60006130ee601c83613b4f565b91507f4552433732313a20746f6b656e20616c7265616479206d696e746564000000006000830152602082019050919050565b600061312e601f83613b4f565b91507f4e6f74206f6e2074686520776f726b657220656c662077686974656c697374006000830152602082019050919050565b600061316e601f83613b4f565b91507f63616e2774206164642074686520626c61636b686f6c652061646472657373006000830152602082019050919050565b60006131ae601483613b4f565b91507f4661696c656420746f2073656e642045746865720000000000000000000000006000830152602082019050919050565b60006131ee602483613b4f565b91507f4552433732313a207472616e7366657220746f20746865207a65726f2061646460008301527f72657373000000000000000000000000000000000000000000000000000000006020830152604082019050919050565b6000613254601983613b4f565b91507f4552433732313a20617070726f766520746f2063616c6c6572000000000000006000830152602082019050919050565b6000613294602c83613b4f565b91507f4552433732313a206f70657261746f7220717565727920666f72206e6f6e657860008301527f697374656e7420746f6b656e00000000000000000000000000000000000000006020830152604082019050919050565b60006132fa603883613b4f565b91507f4552433732313a20617070726f76652063616c6c6572206973206e6f74206f7760008301527f6e6572206e6f7220617070726f76656420666f7220616c6c00000000000000006020830152604082019050919050565b6000613360602a83613b4f565b91507f4552433732313a2062616c616e636520717565727920666f7220746865207a6560008301527f726f2061646472657373000000000000000000000000000000000000000000006020830152604082019050919050565b60006133c6602983613b4f565b91507f4552433732313a206f776e657220717565727920666f72206e6f6e657869737460008301527f656e7420746f6b656e00000000000000000000000000000000000000000000006020830152604082019050919050565b600061342c602083613b4f565b91507f4552433732313a206d696e7420746f20746865207a65726f20616464726573736000830152602082019050919050565b600061346c602b83613b4f565b91507f4552433732314d657461646174613a20717565727920666f72206e6f6e65786960008301527f7374656e7420746f6b656e0000000000000000000000000000000000000000006020830152604082019050919050565b60006134d2602c83613b4f565b91507f4552433732313a20617070726f76656420717565727920666f72206e6f6e657860008301527f697374656e7420746f6b656e00000000000000000000000000000000000000006020830152604082019050919050565b6000613538602083613b4f565b91507f4f776e61626c653a2063616c6c6572206973206e6f7420746865206f776e65726000830152602082019050919050565b6000613578602983613b4f565b91507f4552433732313a207472616e73666572206f6620746f6b656e2074686174206960008301527f73206e6f74206f776e00000000000000000000000000000000000000000000006020830152604082019050919050565b60006135de602183613b4f565b91507f4552433732313a20617070726f76616c20746f2063757272656e74206f776e6560008301527f72000000000000000000000000000000000000000000000000000000000000006020830152604082019050919050565b6000613644600083613b44565b9150600082019050919050565b600061365e603183613b4f565b91507f4552433732313a207472616e736665722063616c6c6572206973206e6f74206f60008301527f776e6572206e6f7220617070726f7665640000000000000000000000000000006020830152604082019050919050565b6136c081613ca2565b82525050565b60006136d28286612f56565b91506136de8285612f25565b91506136ea8284612f56565b9150819050949350505050565b600061370282613637565b9150819050919050565b60006020820190506137216000830184612e95565b92915050565b600060808201905061373c6000830187612e95565b6137496020830186612e95565b61375660408301856136b7565b81810360608301526137688184612eb3565b905095945050505050565b60006020820190506137886000830184612ea4565b92915050565b600060208201905081810360008301526137a88184612eec565b905092915050565b600060208201905081810360008301526137c981612fd5565b9050919050565b600060208201905081810360008301526137e981613015565b9050919050565b600060208201905081810360008301526138098161307b565b9050919050565b60006020820190508181036000830152613829816130e1565b9050919050565b6000602082019050818103600083015261384981613121565b9050919050565b6000602082019050818103600083015261386981613161565b9050919050565b60006020820190508181036000830152613889816131a1565b9050919050565b600060208201905081810360008301526138a9816131e1565b9050919050565b600060208201905081810360008301526138c981613247565b9050919050565b600060208201905081810360008301526138e981613287565b9050919050565b60006020820190508181036000830152613909816132ed565b9050919050565b6000602082019050818103600083015261392981613353565b9050919050565b60006020820190508181036000830152613949816133b9565b9050919050565b600060208201905081810360008301526139698161341f565b9050919050565b600060208201905081810360008301526139898161345f565b9050919050565b600060208201905081810360008301526139a9816134c5565b9050919050565b600060208201905081810360008301526139c98161352b565b9050919050565b600060208201905081810360008301526139e98161356b565b9050919050565b60006020820190508181036000830152613a09816135d1565b9050919050565b60006020820190508181036000830152613a2981613651565b9050919050565b6000602082019050613a4560008301846136b7565b92915050565b6000604051905081810181811067ffffffffffffffff82111715613a7257613a71613e27565b5b8060405250919050565b600067ffffffffffffffff821115613a9757613a96613e27565b5b602082029050602081019050919050565b600067ffffffffffffffff821115613ac357613ac2613e27565b5b601f19601f8301169050602081019050919050565b600067ffffffffffffffff821115613af357613af2613e27565b5b601f19601f8301169050602081019050919050565b60008190508160005260206000209050919050565b600081519050919050565b600081519050919050565b600082825260208201905092915050565b600081905092915050565b600082825260208201905092915050565b600081905092915050565b6000613b7682613ca2565b9150613b8183613ca2565b9250827fffffffffffffffffffffffffffffffffffffffffffffffffffffffffffffffff03821115613bb657613bb5613d9a565b5b828201905092915050565b6000613bcc82613ca2565b9150613bd783613ca2565b925082613be757613be6613dc9565b5b828204905092915050565b6000613bfd82613ca2565b9150613c0883613ca2565b925082821015613c1b57613c1a613d9a565b5b828203905092915050565b6000613c3182613c82565b9050919050565b6000613c4382613c82565b9050919050565b60008115159050919050565b60007fffffffff0000000000000000000000000000000000000000000000000000000082169050919050565b600073ffffffffffffffffffffffffffffffffffffffff82169050919050565b6000819050919050565b82818337600083830152505050565b60005b83811015613cd9578082015181840152602081019050613cbe565b83811115613ce8576000848401525b50505050565b60006002820490506001821680613d0657607f821691505b60208210811415613d1a57613d19613df8565b5b50919050565b6000613d2b82613ca2565b91507fffffffffffffffffffffffffffffffffffffffffffffffffffffffffffffffff821415613d5e57613d5d613d9a565b5b600182019050919050565b6000613d7482613ca2565b9150613d7f83613ca2565b925082613d8f57613d8e613dc9565b5b828206905092915050565b7f4e487b7100000000000000000000000000000000000000000000000000000000600052601160045260246000fd5b7f4e487b7100000000000000000000000000000000000000000000000000000000600052601260045260246000fd5b7f4e487b7100000000000000000000000000000000000000000000000000000000600052602260045260246000fd5b7f4e487b7100000000000000000000000000000000000000000000000000000000600052604160045260246000fd5b6000601f19601f8301169050919050565b613e7081613c26565b8114613e7b57600080fd5b50565b613e8781613c38565b8114613e9257600080fd5b50565b613e9e81613c4a565b8114613ea957600080fd5b50565b613eb581613c56565b8114613ec057600080fd5b50565b613ecc81613ca2565b8114613ed757600080fd5b5056fea264697066735822122056a04318a12d57f87b74377b633fa2d57b97e96ddb5f17eb4cd03c1fc61ae15064736f6c63430008000033",
  "linkReferences": {},
  "deployedLinkReferences": {}
}