{
  "_format": "hh-sol-artifact-1",
  "contractName": "ElfNFT",
  "sourceName": "contracts/elf.sol",
  "abi": [
    {
      "inputs": [
        {
          "internalType": "string",
          "name": "_baseURI",
          "type": "string"
        },
        {
          "internalType": "string",
          "name": "_baseExtension",
          "type": "string"
        },
        {
          "internalType": "string",
          "name": "collectionURI",
          "type": "string"
        }
      ],
      "stateMutability": "nonpayable",
      "type": "constructor"
    },
    {
      "anonymous": false,
      "inputs": [
        {
          "indexed": true,
          "internalType": "address",
          "name": "owner",
          "type": "address"
        },
        {
          "indexed": true,
          "internalType": "address",
          "name": "approved",
          "type": "address"
        },
        {
          "indexed": true,
          "internalType": "uint256",
          "name": "tokenId",
          "type": "uint256"
        }
      ],
      "name": "Approval",
      "type": "event"
    },
    {
      "anonymous": false,
      "inputs": [
        {
          "indexed": true,
          "internalType": "address",
          "name": "owner",
          "type": "address"
        },
        {
          "indexed": true,
          "internalType": "address",
          "name": "operator",
          "type": "address"
        },
        {
          "indexed": false,
          "internalType": "bool",
          "name": "approved",
          "type": "bool"
        }
      ],
      "name": "ApprovalForAll",
      "type": "event"
    },
    {
      "anonymous": false,
      "inputs": [
        {
          "indexed": true,
          "internalType": "address",
          "name": "previousOwner",
          "type": "address"
        },
        {
          "indexed": true,
          "internalType": "address",
          "name": "newOwner",
          "type": "address"
        }
      ],
      "name": "OwnershipTransferred",
      "type": "event"
    },
    {
      "anonymous": false,
      "inputs": [
        {
          "indexed": true,
          "internalType": "address",
          "name": "from",
          "type": "address"
        },
        {
          "indexed": true,
          "internalType": "address",
          "name": "to",
          "type": "address"
        },
        {
          "indexed": true,
          "internalType": "uint256",
          "name": "tokenId",
          "type": "uint256"
        }
      ],
      "name": "Transfer",
      "type": "event"
    },
    {
      "inputs": [
        {
          "internalType": "address",
          "name": "to",
          "type": "address"
        },
        {
          "internalType": "uint256",
          "name": "tokenId",
          "type": "uint256"
        }
      ],
      "name": "approve",
      "outputs": [],
      "stateMutability": "nonpayable",
      "type": "function"
    },
    {
      "inputs": [
        {
          "internalType": "address",
          "name": "owner",
          "type": "address"
        }
      ],
      "name": "balanceOf",
      "outputs": [
        {
          "internalType": "uint256",
          "name": "",
          "type": "uint256"
        }
      ],
      "stateMutability": "view",
      "type": "function"
    },
    {
      "inputs": [],
      "name": "baseExtension",
      "outputs": [
        {
          "internalType": "string",
          "name": "",
          "type": "string"
        }
      ],
      "stateMutability": "view",
      "type": "function"
    },
    {
      "inputs": [],
      "name": "baseURI",
      "outputs": [
        {
          "internalType": "string",
          "name": "",
          "type": "string"
        }
      ],
      "stateMutability": "view",
      "type": "function"
    },
    {
      "inputs": [],
      "name": "contractURI",
      "outputs": [
        {
          "internalType": "string",
          "name": "",
          "type": "string"
        }
      ],
      "stateMutability": "view",
      "type": "function"
    },
    {
      "inputs": [],
      "name": "elfPrice",
      "outputs": [
        {
          "internalType": "uint256",
          "name": "",
          "type": "uint256"
        }
      ],
      "stateMutability": "view",
      "type": "function"
    },
    {
      "inputs": [
        {
          "internalType": "uint256",
          "name": "tokenId",
          "type": "uint256"
        }
      ],
      "name": "getApproved",
      "outputs": [
        {
          "internalType": "address",
          "name": "",
          "type": "address"
        }
      ],
      "stateMutability": "view",
      "type": "function"
    },
    {
      "inputs": [
        {
          "internalType": "address",
          "name": "owner",
          "type": "address"
        },
        {
          "internalType": "address",
          "name": "operator",
          "type": "address"
        }
      ],
      "name": "isApprovedForAll",
      "outputs": [
        {
          "internalType": "bool",
          "name": "",
          "type": "bool"
        }
      ],
      "stateMutability": "view",
      "type": "function"
    },
    {
      "inputs": [],
      "name": "maxSupplyElves",
      "outputs": [
        {
          "internalType": "uint256",
          "name": "",
          "type": "uint256"
        }
      ],
      "stateMutability": "view",
      "type": "function"
    },
    {
      "inputs": [],
      "name": "maxSupplyReindeer",
      "outputs": [
        {
          "internalType": "uint256",
          "name": "",
          "type": "uint256"
        }
      ],
      "stateMutability": "view",
      "type": "function"
    },
    {
      "inputs": [],
      "name": "maxSupplySanta",
      "outputs": [
        {
          "internalType": "uint256",
          "name": "",
          "type": "uint256"
        }
      ],
      "stateMutability": "view",
      "type": "function"
    },
    {
      "inputs": [
        {
          "internalType": "address",
          "name": "recipient",
          "type": "address"
        }
      ],
      "name": "mintNFT",
      "outputs": [
        {
          "internalType": "uint256",
          "name": "",
          "type": "uint256"
        }
      ],
      "stateMutability": "nonpayable",
      "type": "function"
    },
    {
      "inputs": [],
      "name": "mintReindeerWhitelist",
      "outputs": [
        {
          "internalType": "uint256",
          "name": "",
          "type": "uint256"
        }
      ],
      "stateMutability": "nonpayable",
      "type": "function"
    },
    {
      "inputs": [],
      "name": "mintSantaWhitelist",
      "outputs": [
        {
          "internalType": "uint256",
          "name": "",
          "type": "uint256"
        }
      ],
      "stateMutability": "nonpayable",
      "type": "function"
    },
    {
      "inputs": [],
      "name": "mintedElves",
      "outputs": [
        {
          "internalType": "uint256",
          "name": "",
          "type": "uint256"
        }
      ],
      "stateMutability": "view",
      "type": "function"
    },
    {
      "inputs": [],
      "name": "mintedReindeers",
      "outputs": [
        {
          "internalType": "uint256",
          "name": "",
          "type": "uint256"
        }
      ],
      "stateMutability": "view",
      "type": "function"
    },
    {
      "inputs": [],
      "name": "mintedSantas",
      "outputs": [
        {
          "internalType": "uint256",
          "name": "",
          "type": "uint256"
        }
      ],
      "stateMutability": "view",
      "type": "function"
    },
    {
      "inputs": [],
      "name": "name",
      "outputs": [
        {
          "internalType": "string",
          "name": "",
          "type": "string"
        }
      ],
      "stateMutability": "view",
      "type": "function"
    },
    {
      "inputs": [],
      "name": "owner",
      "outputs": [
        {
          "internalType": "address",
          "name": "",
          "type": "address"
        }
      ],
      "stateMutability": "view",
      "type": "function"
    },
    {
      "inputs": [
        {
          "internalType": "uint256",
          "name": "tokenId",
          "type": "uint256"
        }
      ],
      "name": "ownerOf",
      "outputs": [
        {
          "internalType": "address",
          "name": "",
          "type": "address"
        }
      ],
      "stateMutability": "view",
      "type": "function"
    },
    {
      "inputs": [],
      "name": "publicElfMint",
      "outputs": [
        {
          "internalType": "uint256",
          "name": "",
          "type": "uint256"
        }
      ],
      "stateMutability": "payable",
      "type": "function"
    },
    {
      "inputs": [],
      "name": "publicReindeerMint",
      "outputs": [
        {
          "internalType": "uint256",
          "name": "",
          "type": "uint256"
        }
      ],
      "stateMutability": "payable",
      "type": "function"
    },
    {
      "inputs": [],
      "name": "reindeerPrice",
      "outputs": [
        {
          "internalType": "uint256",
          "name": "",
          "type": "uint256"
        }
      ],
      "stateMutability": "view",
      "type": "function"
    },
    {
      "inputs": [
        {
          "internalType": "address",
          "name": "",
          "type": "address"
        }
      ],
      "name": "reindeerWhitelist",
      "outputs": [
        {
          "internalType": "bool",
          "name": "",
          "type": "bool"
        }
      ],
      "stateMutability": "view",
      "type": "function"
    },
    {
      "inputs": [
        {
          "internalType": "address[]",
          "name": "_addresses",
          "type": "address[]"
        }
      ],
      "name": "removeReindeerWhitelists",
      "outputs": [],
      "stateMutability": "nonpayable",
      "type": "function"
    },
    {
      "inputs": [
        {
          "internalType": "address[]",
          "name": "_addresses",
          "type": "address[]"
        }
      ],
      "name": "removeSantaWhitelists",
      "outputs": [],
      "stateMutability": "nonpayable",
      "type": "function"
    },
    {
      "inputs": [],
      "name": "renounceOwnership",
      "outputs": [],
      "stateMutability": "nonpayable",
      "type": "function"
    },
    {
      "inputs": [
        {
          "internalType": "address",
          "name": "from",
          "type": "address"
        },
        {
          "internalType": "address",
          "name": "to",
          "type": "address"
        },
        {
          "internalType": "uint256",
          "name": "tokenId",
          "type": "uint256"
        }
      ],
      "name": "safeTransferFrom",
      "outputs": [],
      "stateMutability": "nonpayable",
      "type": "function"
    },
    {
      "inputs": [
        {
          "internalType": "address",
          "name": "from",
          "type": "address"
        },
        {
          "internalType": "address",
          "name": "to",
          "type": "address"
        },
        {
          "internalType": "uint256",
          "name": "tokenId",
          "type": "uint256"
        },
        {
          "internalType": "bytes",
          "name": "_data",
          "type": "bytes"
        }
      ],
      "name": "safeTransferFrom",
      "outputs": [],
      "stateMutability": "nonpayable",
      "type": "function"
    },
    {
      "inputs": [
        {
          "internalType": "address",
          "name": "",
          "type": "address"
        }
      ],
      "name": "santaWhitelist",
      "outputs": [
        {
          "internalType": "bool",
          "name": "",
          "type": "bool"
        }
      ],
      "stateMutability": "view",
      "type": "function"
    },
    {
      "inputs": [
        {
          "internalType": "address",
          "name": "operator",
          "type": "address"
        },
        {
          "internalType": "bool",
          "name": "approved",
          "type": "bool"
        }
      ],
      "name": "setApprovalForAll",
      "outputs": [],
      "stateMutability": "nonpayable",
      "type": "function"
    },
    {
      "inputs": [
        {
          "internalType": "string",
          "name": "_baseExtension",
          "type": "string"
        }
      ],
      "name": "setBaseExtension",
      "outputs": [],
      "stateMutability": "nonpayable",
      "type": "function"
    },
    {
      "inputs": [
        {
          "internalType": "string",
          "name": "_baseURI",
          "type": "string"
        }
      ],
      "name": "setBaseURI",
      "outputs": [],
      "stateMutability": "nonpayable",
      "type": "function"
    },
    {
      "inputs": [
        {
          "internalType": "uint256",
          "name": "_elfPrice",
          "type": "uint256"
        },
        {
          "internalType": "uint256",
          "name": "_reindeerPrice",
          "type": "uint256"
        }
      ],
      "name": "setPrice",
      "outputs": [],
      "stateMutability": "nonpayable",
      "type": "function"
    },
    {
      "inputs": [
        {
          "internalType": "address[]",
          "name": "_addresses",
          "type": "address[]"
        }
      ],
      "name": "setReindeerWhitelist",
      "outputs": [],
      "stateMutability": "nonpayable",
      "type": "function"
    },
    {
      "inputs": [
        {
          "internalType": "address[]",
          "name": "_addresses",
          "type": "address[]"
        }
      ],
      "name": "setSantaWhitelist",
      "outputs": [],
      "stateMutability": "nonpayable",
      "type": "function"
    },
    {
      "inputs": [
        {
          "internalType": "bytes4",
          "name": "interfaceId",
          "type": "bytes4"
        }
      ],
      "name": "supportsInterface",
      "outputs": [
        {
          "internalType": "bool",
          "name": "",
          "type": "bool"
        }
      ],
      "stateMutability": "view",
      "type": "function"
    },
    {
      "inputs": [],
      "name": "symbol",
      "outputs": [
        {
          "internalType": "string",
          "name": "",
          "type": "string"
        }
      ],
      "stateMutability": "view",
      "type": "function"
    },
    {
      "inputs": [
        {
          "internalType": "uint256",
          "name": "tokenId",
          "type": "uint256"
        }
      ],
      "name": "tokenURI",
      "outputs": [
        {
          "internalType": "string",
          "name": "",
          "type": "string"
        }
      ],
      "stateMutability": "view",
      "type": "function"
    },
    {
      "inputs": [
        {
          "internalType": "address",
          "name": "from",
          "type": "address"
        },
        {
          "internalType": "address",
          "name": "to",
          "type": "address"
        },
        {
          "internalType": "uint256",
          "name": "tokenId",
          "type": "uint256"
        }
      ],
      "name": "transferFrom",
      "outputs": [],
      "stateMutability": "nonpayable",
      "type": "function"
    },
    {
      "inputs": [
        {
          "internalType": "address",
          "name": "newOwner",
          "type": "address"
        }
      ],
      "name": "transferOwnership",
      "outputs": [],
      "stateMutability": "nonpayable",
      "type": "function"
    },
    {
      "inputs": [
        {
          "internalType": "address payable",
          "name": "_to",
          "type": "address"
        }
      ],
      "name": "withdraw",
      "outputs": [],
      "stateMutability": "nonpayable",
      "type": "function"
    }
  ],
  "bytecode": "0x60806040526040518060400160405280600581526020017f2e6a736f6e000000000000000000000000000000000000000000000000000000815250600b908051906020019062000051929190620004c0565b506005600c556000600d556102ee600e556000600f55610fa0601055600060115566b1a2bc2ec5000060145567016345785d8a00006015553480156200009657600080fd5b5060405162004afa38038062004afa8339818101604052810190620000bc9190620005e2565b6040518060400160405280600a81526020017f456c6644414f204e4654000000000000000000000000000000000000000000008152506040518060400160405280600681526020017f454c4644414f0000000000000000000000000000000000000000000000000000815250816000908051906020019062000140929190620004c0565b50806001908051906020019062000159929190620004c0565b5050506200017c62000170620001b860201b60201c565b620001c060201b60201c565b6200018d816200028660201b60201c565b6200019e836200033160201b60201c565b620001af82620003eb60201b60201c565b50505062000829565b600033905090565b6000600760009054906101000a900473ffffffffffffffffffffffffffffffffffffffff16905081600760006101000a81548173ffffffffffffffffffffffffffffffffffffffff021916908373ffffffffffffffffffffffffffffffffffffffff1602179055508173ffffffffffffffffffffffffffffffffffffffff168173ffffffffffffffffffffffffffffffffffffffff167f8be0079c531659141344cd1fd0a4f28419497f9722a3daafe3b4186f6b6457e060405160405180910390a35050565b62000296620001b860201b60201c565b73ffffffffffffffffffffffffffffffffffffffff16620002bc6200049660201b60201c565b73ffffffffffffffffffffffffffffffffffffffff161462000315576040517f08c379a00000000000000000000000000000000000000000000000000000000081526004016200030c90620006c5565b60405180910390fd5b80600990805190602001906200032d929190620004c0565b5050565b62000341620001b860201b60201c565b73ffffffffffffffffffffffffffffffffffffffff16620003676200049660201b60201c565b73ffffffffffffffffffffffffffffffffffffffff1614620003c0576040517f08c379a0000000000000000000000000000000000000000000000000000000008152600401620003b790620006c5565b60405180910390fd5b6000815111620003cf57600080fd5b80600a9080519060200190620003e7929190620004c0565b5050565b620003fb620001b860201b60201c565b73ffffffffffffffffffffffffffffffffffffffff16620004216200049660201b60201c565b73ffffffffffffffffffffffffffffffffffffffff16146200047a576040517f08c379a00000000000000000000000000000000000000000000000000000000081526004016200047190620006c5565b60405180910390fd5b80600b908051906020019062000492929190620004c0565b5050565b6000600760009054906101000a900473ffffffffffffffffffffffffffffffffffffffff16905090565b828054620004ce9062000795565b90600052602060002090601f016020900481019282620004f257600085556200053e565b82601f106200050d57805160ff19168380011785556200053e565b828001600101855582156200053e579182015b828111156200053d57825182559160200191906001019062000520565b5b5090506200054d919062000551565b5090565b5b808211156200056c57600081600090555060010162000552565b5090565b60006200058762000581846200071b565b620006e7565b905082815260208101848484011115620005a057600080fd5b620005ad8482856200075f565b509392505050565b600082601f830112620005c757600080fd5b8151620005d984826020860162000570565b91505092915050565b600080600060608486031215620005f857600080fd5b600084015167ffffffffffffffff8111156200061357600080fd5b6200062186828701620005b5565b935050602084015167ffffffffffffffff8111156200063f57600080fd5b6200064d86828701620005b5565b925050604084015167ffffffffffffffff8111156200066b57600080fd5b6200067986828701620005b5565b9150509250925092565b6000620006926020836200074e565b91507f4f776e61626c653a2063616c6c6572206973206e6f7420746865206f776e65726000830152602082019050919050565b60006020820190508181036000830152620006e08162000683565b9050919050565b6000604051905081810181811067ffffffffffffffff82111715620007115762000710620007fa565b5b8060405250919050565b600067ffffffffffffffff821115620007395762000738620007fa565b5b601f19601f8301169050602081019050919050565b600082825260208201905092915050565b60005b838110156200077f57808201518184015260208101905062000762565b838111156200078f576000848401525b50505050565b60006002820490506001821680620007ae57607f821691505b60208210811415620007c557620007c4620007cb565b5b50919050565b7f4e487b7100000000000000000000000000000000000000000000000000000000600052602260045260246000fd5b7f4e487b7100000000000000000000000000000000000000000000000000000000600052604160045260246000fd5b6142c180620008396000396000f3fe6080604052600436106102515760003560e01c806370a0823111610139578063bddc3083116100b6578063e8a3d4851161007a578063e8a3d485146108bb578063e985e9c5146108e6578063ea016aa314610923578063eb21a7ee1461094c578063f2fde38b1461096a578063f7d975771461099357610251565b8063bddc3083146107d6578063c668286214610801578063c82dec471461082c578063c87b56dd14610855578063da3ef23f1461089257610251565b806395d89b41116100fd57806395d89b4114610703578063a22cb4651461072e578063aa55c86f14610757578063b06e3d2d14610782578063b88d4fde146107ad57610251565b806370a082311461062e578063715018a61461066b5780637eabf1321461068257806388a49e04146106ad5780638da5cb5b146106d857610251565b806342842e0e116101d257806355f804b31161019657806355f804b31461051e57806358eb6d60146105475780635b3099ce146105725780635fe132b71461059d5780636352211e146105c65780636c0360eb1461060357610251565b806342842e0e146104395780634673615f1461046257806351cff8d91461048d57806352f1313c146104b657806354ba0f27146104e157610251565b80631a23cfe2116102195780631a23cfe21461034d57806322d2f5211461037857806323b872dd146103b55780632a8b9553146103de578063353e61ec1461041b57610251565b806301ffc9a71461025657806306fdde0314610293578063081812fc146102be578063095ea7b3146102fb578063130eb51d14610324575b600080fd5b34801561026257600080fd5b5061027d60048036038101906102789190613165565b6109bc565b60405161028a9190613b8b565b60405180910390f35b34801561029f57600080fd5b506102a8610a9e565b6040516102b59190613ba6565b60405180910390f35b3480156102ca57600080fd5b506102e560048036038101906102e091906131f8565b610b30565b6040516102f29190613b24565b60405180910390f35b34801561030757600080fd5b50610322600480360381019061031d91906130e8565b610bb5565b005b34801561033057600080fd5b5061034b60048036038101906103469190613124565b610ccd565b005b34801561035957600080fd5b50610362610e04565b60405161036f9190613e68565b60405180910390f35b34801561038457600080fd5b5061039f600480360381019061039a9190612f54565b610e0a565b6040516103ac9190613b8b565b60405180910390f35b3480156103c157600080fd5b506103dc60048036038101906103d79190612fe2565b610e2a565b005b3480156103ea57600080fd5b5061040560048036038101906104009190612f54565b610e8a565b6040516104129190613b8b565b60405180910390f35b610423610eaa565b6040516104309190613e68565b60405180910390f35b34801561044557600080fd5b50610460600480360381019061045b9190612fe2565b610f2d565b005b34801561046e57600080fd5b50610477610f4d565b6040516104849190613e68565b60405180910390f35b34801561049957600080fd5b506104b460048036038101906104af9190612f7d565b610f53565b005b3480156104c257600080fd5b506104cb611085565b6040516104d89190613e68565b60405180910390f35b3480156104ed57600080fd5b5061050860048036038101906105039190612f54565b61108b565b6040516105159190613e68565b60405180910390f35b34801561052a57600080fd5b50610545600480360381019061054091906131b7565b611134565b005b34801561055357600080fd5b5061055c6111d8565b6040516105699190613e68565b60405180910390f35b34801561057e57600080fd5b506105876111de565b6040516105949190613e68565b60405180910390f35b3480156105a957600080fd5b506105c460048036038101906105bf9190613124565b6111e4565b005b3480156105d257600080fd5b506105ed60048036038101906105e891906131f8565b6113cb565b6040516105fa9190613b24565b60405180910390f35b34801561060f57600080fd5b5061061861147d565b6040516106259190613ba6565b60405180910390f35b34801561063a57600080fd5b5061065560048036038101906106509190612f54565b61150b565b6040516106629190613e68565b60405180910390f35b34801561067757600080fd5b506106806115c3565b005b34801561068e57600080fd5b5061069761164b565b6040516106a49190613e68565b60405180910390f35b3480156106b957600080fd5b506106c2611651565b6040516106cf9190613e68565b60405180910390f35b3480156106e457600080fd5b506106ed611657565b6040516106fa9190613b24565b60405180910390f35b34801561070f57600080fd5b50610718611681565b6040516107259190613ba6565b60405180910390f35b34801561073a57600080fd5b50610755600480360381019061075091906130ac565b611713565b005b34801561076357600080fd5b5061076c611729565b6040516107799190613e68565b60405180910390f35b34801561078e57600080fd5b5061079761172f565b6040516107a49190613e68565b60405180910390f35b3480156107b957600080fd5b506107d460048036038101906107cf9190613031565b611851565b005b3480156107e257600080fd5b506107eb6118b3565b6040516107f89190613e68565b60405180910390f35b34801561080d57600080fd5b506108166119d5565b6040516108239190613ba6565b60405180910390f35b34801561083857600080fd5b50610853600480360381019061084e9190613124565b611a63565b005b34801561086157600080fd5b5061087c600480360381019061087791906131f8565b611b9a565b6040516108899190613ba6565b60405180910390f35b34801561089e57600080fd5b506108b960048036038101906108b491906131b7565b611c11565b005b3480156108c757600080fd5b506108d0611ca7565b6040516108dd9190613ba6565b60405180910390f35b3480156108f257600080fd5b5061090d60048036038101906109089190612fa6565b611d39565b60405161091a9190613b8b565b60405180910390f35b34801561092f57600080fd5b5061094a60048036038101906109459190613124565b611dcd565b005b610954611fc3565b6040516109619190613e68565b60405180910390f35b34801561097657600080fd5b50610991600480360381019061098c9190612f54565b612046565b005b34801561099f57600080fd5b506109ba60048036038101906109b59190613221565b61213e565b005b60007f80ac58cd000000000000000000000000000000000000000000000000000000007bffffffffffffffffffffffffffffffffffffffffffffffffffffffff1916827bffffffffffffffffffffffffffffffffffffffffffffffffffffffff19161480610a8757507f5b5e139f000000000000000000000000000000000000000000000000000000007bffffffffffffffffffffffffffffffffffffffffffffffffffffffff1916827bffffffffffffffffffffffffffffffffffffffffffffffffffffffff1916145b80610a975750610a96826121cc565b5b9050919050565b606060008054610aad906140f5565b80601f0160208091040260200160405190810160405280929190818152602001828054610ad9906140f5565b8015610b265780601f10610afb57610100808354040283529160200191610b26565b820191906000526020600020905b815481529060010190602001808311610b0957829003601f168201915b5050505050905090565b6000610b3b82612236565b610b7a576040517f08c379a0000000000000000000000000000000000000000000000000000000008152600401610b7190613d88565b60405180910390fd5b6004600083815260200190815260200160002060009054906101000a900473ffffffffffffffffffffffffffffffffffffffff169050919050565b6000610bc0826113cb565b90508073ffffffffffffffffffffffffffffffffffffffff168373ffffffffffffffffffffffffffffffffffffffff161415610c31576040517f08c379a0000000000000000000000000000000000000000000000000000000008152600401610c2890613e08565b60405180910390fd5b8073ffffffffffffffffffffffffffffffffffffffff16610c506122a2565b73ffffffffffffffffffffffffffffffffffffffff161480610c7f5750610c7e81610c796122a2565b611d39565b5b610cbe576040517f08c379a0000000000000000000000000000000000000000000000000000000008152600401610cb590613ce8565b60405180910390fd5b610cc883836122aa565b505050565b610cd56122a2565b73ffffffffffffffffffffffffffffffffffffffff16610cf3611657565b73ffffffffffffffffffffffffffffffffffffffff1614610d49576040517f08c379a0000000000000000000000000000000000000000000000000000000008152600401610d4090613da8565b60405180910390fd5b60005b8151811015610e0057600060126000848481518110610d94577f4e487b7100000000000000000000000000000000000000000000000000000000600052603260045260246000fd5b602002602001015173ffffffffffffffffffffffffffffffffffffffff1673ffffffffffffffffffffffffffffffffffffffff16815260200190815260200160002060006101000a81548160ff0219169083151502179055508080610df890614127565b915050610d4c565b5050565b60155481565b60126020528060005260406000206000915054906101000a900460ff1681565b610e3b610e356122a2565b82612363565b610e7a576040517f08c379a0000000000000000000000000000000000000000000000000000000008152600401610e7190613e48565b60405180910390fd5b610e85838383612441565b505050565b60136020528060005260406000206000915054906101000a900460ff1681565b6000601454341015610ef1576040517f08c379a0000000000000000000000000000000000000000000000000000000008152600401610ee890613bc8565b60405180910390fd5b60105460115410610f0157600080fd5b60116000815480929190610f1490614127565b91905055506000610f243361108b565b90508091505090565b610f4883838360405180602001604052806000815250611851565b505050565b600d5481565b610f5b6122a2565b73ffffffffffffffffffffffffffffffffffffffff16610f79611657565b73ffffffffffffffffffffffffffffffffffffffff1614610fcf576040517f08c379a0000000000000000000000000000000000000000000000000000000008152600401610fc690613da8565b60405180910390fd5b600047905060008273ffffffffffffffffffffffffffffffffffffffff1682604051610ffa90613b0f565b60006040518083038185875af1925050503d8060008114611037576040519150601f19603f3d011682016040523d82523d6000602084013e61103c565b606091505b5050905080611080576040517f08c379a000000000000000000000000000000000000000000000000000000000815260040161107790613c68565b60405180910390fd5b505050565b600e5481565b60006110956122a2565b73ffffffffffffffffffffffffffffffffffffffff166110b3611657565b73ffffffffffffffffffffffffffffffffffffffff1614611109576040517f08c379a000000000000000000000000000000000000000000000000000000000815260040161110090613da8565b60405180910390fd5b611113600861269d565b600061111f60086126b3565b905061112b83826126c1565b80915050919050565b61113c6122a2565b73ffffffffffffffffffffffffffffffffffffffff1661115a611657565b73ffffffffffffffffffffffffffffffffffffffff16146111b0576040517f08c379a00000000000000000000000000000000000000000000000000000000081526004016111a790613da8565b60405180910390fd5b60008151116111be57600080fd5b80600a90805190602001906111d4929190612ccd565b5050565b60115481565b600f5481565b6111ec6122a2565b73ffffffffffffffffffffffffffffffffffffffff1661120a611657565b73ffffffffffffffffffffffffffffffffffffffff1614611260576040517f08c379a000000000000000000000000000000000000000000000000000000000815260040161125790613da8565b60405180910390fd5b60005b81518110156113c757600073ffffffffffffffffffffffffffffffffffffffff168282815181106112bd577f4e487b7100000000000000000000000000000000000000000000000000000000600052603260045260246000fd5b602002602001015173ffffffffffffffffffffffffffffffffffffffff16141561131c576040517f08c379a000000000000000000000000000000000000000000000000000000000815260040161131390613c48565b60405180910390fd5b60016012600084848151811061135b577f4e487b7100000000000000000000000000000000000000000000000000000000600052603260045260246000fd5b602002602001015173ffffffffffffffffffffffffffffffffffffffff1673ffffffffffffffffffffffffffffffffffffffff16815260200190815260200160002060006101000a81548160ff02191690831515021790555080806113bf90614127565b915050611263565b5050565b6000806002600084815260200190815260200160002060009054906101000a900473ffffffffffffffffffffffffffffffffffffffff169050600073ffffffffffffffffffffffffffffffffffffffff168173ffffffffffffffffffffffffffffffffffffffff161415611474576040517f08c379a000000000000000000000000000000000000000000000000000000000815260040161146b90613d28565b60405180910390fd5b80915050919050565b600a805461148a906140f5565b80601f01602080910402602001604051908101604052809291908181526020018280546114b6906140f5565b80156115035780601f106114d857610100808354040283529160200191611503565b820191906000526020600020905b8154815290600101906020018083116114e657829003601f168201915b505050505081565b60008073ffffffffffffffffffffffffffffffffffffffff168273ffffffffffffffffffffffffffffffffffffffff16141561157c576040517f08c379a000000000000000000000000000000000000000000000000000000000815260040161157390613d08565b60405180910390fd5b600360008373ffffffffffffffffffffffffffffffffffffffff1673ffffffffffffffffffffffffffffffffffffffff168152602001908152602001600020549050919050565b6115cb6122a2565b73ffffffffffffffffffffffffffffffffffffffff166115e9611657565b73ffffffffffffffffffffffffffffffffffffffff161461163f576040517f08c379a000000000000000000000000000000000000000000000000000000000815260040161163690613da8565b60405180910390fd5b611649600061288f565b565b60145481565b600c5481565b6000600760009054906101000a900473ffffffffffffffffffffffffffffffffffffffff16905090565b606060018054611690906140f5565b80601f01602080910402602001604051908101604052809291908181526020018280546116bc906140f5565b80156117095780601f106116de57610100808354040283529160200191611709565b820191906000526020600020905b8154815290600101906020018083116116ec57829003601f168201915b5050505050905090565b61172561171e6122a2565b8383612955565b5050565b60105481565b6000601260003373ffffffffffffffffffffffffffffffffffffffff1673ffffffffffffffffffffffffffffffffffffffff16815260200190815260200160002060009054906101000a900460ff166117bd576040517f08c379a00000000000000000000000000000000000000000000000000000000081526004016117b490613e28565b60405180910390fd5b600e54600f54106117cd57600080fd5b600f60008154809291906117e090614127565b91905055506000601260003373ffffffffffffffffffffffffffffffffffffffff1673ffffffffffffffffffffffffffffffffffffffff16815260200190815260200160002060006101000a81548160ff02191690831515021790555060006118483361108b565b90508091505090565b61186261185c6122a2565b83612363565b6118a1576040517f08c379a000000000000000000000000000000000000000000000000000000000815260040161189890613e48565b60405180910390fd5b6118ad84848484612ac2565b50505050565b6000601360003373ffffffffffffffffffffffffffffffffffffffff1673ffffffffffffffffffffffffffffffffffffffff16815260200190815260200160002060009054906101000a900460ff16611941576040517f08c379a000000000000000000000000000000000000000000000000000000000815260040161193890613dc8565b60405180910390fd5b600c54600d541061195157600080fd5b600d600081548092919061196490614127565b91905055506000601360003373ffffffffffffffffffffffffffffffffffffffff1673ffffffffffffffffffffffffffffffffffffffff16815260200190815260200160002060006101000a81548160ff02191690831515021790555060006119cc3361108b565b90508091505090565b600b80546119e2906140f5565b80601f0160208091040260200160405190810160405280929190818152602001828054611a0e906140f5565b8015611a5b5780601f10611a3057610100808354040283529160200191611a5b565b820191906000526020600020905b815481529060010190602001808311611a3e57829003601f168201915b505050505081565b611a6b6122a2565b73ffffffffffffffffffffffffffffffffffffffff16611a89611657565b73ffffffffffffffffffffffffffffffffffffffff1614611adf576040517f08c379a0000000000000000000000000000000000000000000000000000000008152600401611ad690613da8565b60405180910390fd5b60005b8151811015611b9657600060136000848481518110611b2a577f4e487b7100000000000000000000000000000000000000000000000000000000600052603260045260246000fd5b602002602001015173ffffffffffffffffffffffffffffffffffffffff1673ffffffffffffffffffffffffffffffffffffffff16815260200190815260200160002060006101000a81548160ff0219169083151502179055508080611b8e90614127565b915050611ae2565b5050565b6060611ba582612236565b611be4576040517f08c379a0000000000000000000000000000000000000000000000000000000008152600401611bdb90613d68565b60405180910390fd5b600a82600b604051602001611bfb93929190613ada565b6040516020818303038152906040529050919050565b611c196122a2565b73ffffffffffffffffffffffffffffffffffffffff16611c37611657565b73ffffffffffffffffffffffffffffffffffffffff1614611c8d576040517f08c379a0000000000000000000000000000000000000000000000000000000008152600401611c8490613da8565b60405180910390fd5b80600b9080519060200190611ca3929190612ccd565b5050565b606060098054611cb6906140f5565b80601f0160208091040260200160405190810160405280929190818152602001828054611ce2906140f5565b8015611d2f5780601f10611d0457610100808354040283529160200191611d2f565b820191906000526020600020905b815481529060010190602001808311611d1257829003601f168201915b5050505050905090565b6000600560008473ffffffffffffffffffffffffffffffffffffffff1673ffffffffffffffffffffffffffffffffffffffff16815260200190815260200160002060008373ffffffffffffffffffffffffffffffffffffffff1673ffffffffffffffffffffffffffffffffffffffff16815260200190815260200160002060009054906101000a900460ff16905092915050565b611dd56122a2565b73ffffffffffffffffffffffffffffffffffffffff16611df3611657565b73ffffffffffffffffffffffffffffffffffffffff1614611e49576040517f08c379a0000000000000000000000000000000000000000000000000000000008152600401611e4090613da8565b60405180910390fd5b600581511115611e5857600080fd5b60005b8151811015611fbf57600073ffffffffffffffffffffffffffffffffffffffff16828281518110611eb5577f4e487b7100000000000000000000000000000000000000000000000000000000600052603260045260246000fd5b602002602001015173ffffffffffffffffffffffffffffffffffffffff161415611f14576040517f08c379a0000000000000000000000000000000000000000000000000000000008152600401611f0b90613c48565b60405180910390fd5b600160136000848481518110611f53577f4e487b7100000000000000000000000000000000000000000000000000000000600052603260045260246000fd5b602002602001015173ffffffffffffffffffffffffffffffffffffffff1673ffffffffffffffffffffffffffffffffffffffff16815260200190815260200160002060006101000a81548160ff0219169083151502179055508080611fb790614127565b915050611e5b565b5050565b600060145434101561200a576040517f08c379a000000000000000000000000000000000000000000000000000000000815260040161200190613bc8565b60405180910390fd5b600e54600f541061201a57600080fd5b600f600081548092919061202d90614127565b9190505550600061203d3361108b565b90508091505090565b61204e6122a2565b73ffffffffffffffffffffffffffffffffffffffff1661206c611657565b73ffffffffffffffffffffffffffffffffffffffff16146120c2576040517f08c379a00000000000000000000000000000000000000000000000000000000081526004016120b990613da8565b60405180910390fd5b600073ffffffffffffffffffffffffffffffffffffffff168173ffffffffffffffffffffffffffffffffffffffff161415612132576040517f08c379a000000000000000000000000000000000000000000000000000000000815260040161212990613c08565b60405180910390fd5b61213b8161288f565b50565b6121466122a2565b73ffffffffffffffffffffffffffffffffffffffff16612164611657565b73ffffffffffffffffffffffffffffffffffffffff16146121ba576040517f08c379a00000000000000000000000000000000000000000000000000000000081526004016121b190613da8565b60405180910390fd5b81601481905550806015819055505050565b60007f01ffc9a7000000000000000000000000000000000000000000000000000000007bffffffffffffffffffffffffffffffffffffffffffffffffffffffff1916827bffffffffffffffffffffffffffffffffffffffffffffffffffffffff1916149050919050565b60008073ffffffffffffffffffffffffffffffffffffffff166002600084815260200190815260200160002060009054906101000a900473ffffffffffffffffffffffffffffffffffffffff1673ffffffffffffffffffffffffffffffffffffffff1614159050919050565b600033905090565b816004600083815260200190815260200160002060006101000a81548173ffffffffffffffffffffffffffffffffffffffff021916908373ffffffffffffffffffffffffffffffffffffffff160217905550808273ffffffffffffffffffffffffffffffffffffffff1661231d836113cb565b73ffffffffffffffffffffffffffffffffffffffff167f8c5be1e5ebec7d5bd14f71427d1e84f3dd0314c0f7b2291e5b200ac8c7c3b92560405160405180910390a45050565b600061236e82612236565b6123ad576040517f08c379a00000000000000000000000000000000000000000000000000000000081526004016123a490613cc8565b60405180910390fd5b60006123b8836113cb565b90508073ffffffffffffffffffffffffffffffffffffffff168473ffffffffffffffffffffffffffffffffffffffff16148061242757508373ffffffffffffffffffffffffffffffffffffffff1661240f84610b30565b73ffffffffffffffffffffffffffffffffffffffff16145b8061243857506124378185611d39565b5b91505092915050565b8273ffffffffffffffffffffffffffffffffffffffff16612461826113cb565b73ffffffffffffffffffffffffffffffffffffffff16146124b7576040517f08c379a00000000000000000000000000000000000000000000000000000000081526004016124ae90613de8565b60405180910390fd5b600073ffffffffffffffffffffffffffffffffffffffff168273ffffffffffffffffffffffffffffffffffffffff161415612527576040517f08c379a000000000000000000000000000000000000000000000000000000000815260040161251e90613c88565b60405180910390fd5b612532838383612b1e565b61253d6000826122aa565b6001600360008573ffffffffffffffffffffffffffffffffffffffff1673ffffffffffffffffffffffffffffffffffffffff168152602001908152602001600020600082825461258d9190613ff9565b925050819055506001600360008473ffffffffffffffffffffffffffffffffffffffff1673ffffffffffffffffffffffffffffffffffffffff16815260200190815260200160002060008282546125e49190613fa3565b92505081905550816002600083815260200190815260200160002060006101000a81548173ffffffffffffffffffffffffffffffffffffffff021916908373ffffffffffffffffffffffffffffffffffffffff160217905550808273ffffffffffffffffffffffffffffffffffffffff168473ffffffffffffffffffffffffffffffffffffffff167fddf252ad1be2c89b69c2b068fc378daa952ba7f163c4a11628f55a4df523b3ef60405160405180910390a4505050565b6001816000016000828254019250508190555050565b600081600001549050919050565b600073ffffffffffffffffffffffffffffffffffffffff168273ffffffffffffffffffffffffffffffffffffffff161415612731576040517f08c379a000000000000000000000000000000000000000000000000000000000815260040161272890613d48565b60405180910390fd5b61273a81612236565b1561277a576040517f08c379a000000000000000000000000000000000000000000000000000000000815260040161277190613c28565b60405180910390fd5b61278660008383612b1e565b6001600360008473ffffffffffffffffffffffffffffffffffffffff1673ffffffffffffffffffffffffffffffffffffffff16815260200190815260200160002060008282546127d69190613fa3565b92505081905550816002600083815260200190815260200160002060006101000a81548173ffffffffffffffffffffffffffffffffffffffff021916908373ffffffffffffffffffffffffffffffffffffffff160217905550808273ffffffffffffffffffffffffffffffffffffffff16600073ffffffffffffffffffffffffffffffffffffffff167fddf252ad1be2c89b69c2b068fc378daa952ba7f163c4a11628f55a4df523b3ef60405160405180910390a45050565b6000600760009054906101000a900473ffffffffffffffffffffffffffffffffffffffff16905081600760006101000a81548173ffffffffffffffffffffffffffffffffffffffff021916908373ffffffffffffffffffffffffffffffffffffffff1602179055508173ffffffffffffffffffffffffffffffffffffffff168173ffffffffffffffffffffffffffffffffffffffff167f8be0079c531659141344cd1fd0a4f28419497f9722a3daafe3b4186f6b6457e060405160405180910390a35050565b8173ffffffffffffffffffffffffffffffffffffffff168373ffffffffffffffffffffffffffffffffffffffff1614156129c4576040517f08c379a00000000000000000000000000000000000000000000000000000000081526004016129bb90613ca8565b60405180910390fd5b80600560008573ffffffffffffffffffffffffffffffffffffffff1673ffffffffffffffffffffffffffffffffffffffff16815260200190815260200160002060008473ffffffffffffffffffffffffffffffffffffffff1673ffffffffffffffffffffffffffffffffffffffff16815260200190815260200160002060006101000a81548160ff0219169083151502179055508173ffffffffffffffffffffffffffffffffffffffff168373ffffffffffffffffffffffffffffffffffffffff167f17307eab39ab6107e8899845ad3d59bd9653f200f220920489ca2b5937696c3183604051612ab59190613b8b565b60405180910390a3505050565b612acd848484612441565b612ad984848484612b23565b612b18576040517f08c379a0000000000000000000000000000000000000000000000000000000008152600401612b0f90613be8565b60405180910390fd5b50505050565b505050565b6000612b448473ffffffffffffffffffffffffffffffffffffffff16612cba565b15612cad578373ffffffffffffffffffffffffffffffffffffffff1663150b7a02612b6d6122a2565b8786866040518563ffffffff1660e01b8152600401612b8f9493929190613b3f565b602060405180830381600087803b158015612ba957600080fd5b505af1925050508015612bda57506040513d601f19601f82011682018060405250810190612bd7919061318e565b60015b612c5d573d8060008114612c0a576040519150601f19603f3d011682016040523d82523d6000602084013e612c0f565b606091505b50600081511415612c55576040517f08c379a0000000000000000000000000000000000000000000000000000000008152600401612c4c90613be8565b60405180910390fd5b805181602001fd5b63150b7a0260e01b7bffffffffffffffffffffffffffffffffffffffffffffffffffffffff1916817bffffffffffffffffffffffffffffffffffffffffffffffffffffffff191614915050612cb2565b600190505b949350505050565b600080823b905060008111915050919050565b828054612cd9906140f5565b90600052602060002090601f016020900481019282612cfb5760008555612d42565b82601f10612d1457805160ff1916838001178555612d42565b82800160010185558215612d42579182015b82811115612d41578251825591602001919060010190612d26565b5b509050612d4f9190612d53565b5090565b5b80821115612d6c576000816000905550600101612d54565b5090565b6000612d83612d7e84613eb4565b613e83565b90508083825260208201905082856020860282011115612da257600080fd5b60005b85811015612dd25781612db88882612e58565b845260208401935060208301925050600181019050612da5565b5050509392505050565b6000612def612dea84613ee0565b613e83565b905082815260208101848484011115612e0757600080fd5b612e128482856140b3565b509392505050565b6000612e2d612e2884613f10565b613e83565b905082815260208101848484011115612e4557600080fd5b612e508482856140b3565b509392505050565b600081359050612e6781614218565b92915050565b600081359050612e7c8161422f565b92915050565b600082601f830112612e9357600080fd5b8135612ea3848260208601612d70565b91505092915050565b600081359050612ebb81614246565b92915050565b600081359050612ed08161425d565b92915050565b600081519050612ee58161425d565b92915050565b600082601f830112612efc57600080fd5b8135612f0c848260208601612ddc565b91505092915050565b600082601f830112612f2657600080fd5b8135612f36848260208601612e1a565b91505092915050565b600081359050612f4e81614274565b92915050565b600060208284031215612f6657600080fd5b6000612f7484828501612e58565b91505092915050565b600060208284031215612f8f57600080fd5b6000612f9d84828501612e6d565b91505092915050565b60008060408385031215612fb957600080fd5b6000612fc785828601612e58565b9250506020612fd885828601612e58565b9150509250929050565b600080600060608486031215612ff757600080fd5b600061300586828701612e58565b935050602061301686828701612e58565b925050604061302786828701612f3f565b9150509250925092565b6000806000806080858703121561304757600080fd5b600061305587828801612e58565b945050602061306687828801612e58565b935050604061307787828801612f3f565b925050606085013567ffffffffffffffff81111561309457600080fd5b6130a087828801612eeb565b91505092959194509250565b600080604083850312156130bf57600080fd5b60006130cd85828601612e58565b92505060206130de85828601612eac565b9150509250929050565b600080604083850312156130fb57600080fd5b600061310985828601612e58565b925050602061311a85828601612f3f565b9150509250929050565b60006020828403121561313657600080fd5b600082013567ffffffffffffffff81111561315057600080fd5b61315c84828501612e82565b91505092915050565b60006020828403121561317757600080fd5b600061318584828501612ec1565b91505092915050565b6000602082840312156131a057600080fd5b60006131ae84828501612ed6565b91505092915050565b6000602082840312156131c957600080fd5b600082013567ffffffffffffffff8111156131e357600080fd5b6131ef84828501612f15565b91505092915050565b60006020828403121561320a57600080fd5b600061321884828501612f3f565b91505092915050565b6000806040838503121561323457600080fd5b600061324285828601612f3f565b925050602061325385828601612f3f565b9150509250929050565b6132668161402d565b82525050565b61327581614051565b82525050565b600061328682613f55565b6132908185613f6b565b93506132a08185602086016140c2565b6132a981614207565b840191505092915050565b60006132bf82613f60565b6132c98185613f87565b93506132d98185602086016140c2565b6132e281614207565b840191505092915050565b600081546132fa816140f5565b6133048186613f98565b9450600182166000811461331f576001811461333057613363565b60ff19831686528186019350613363565b61333985613f40565b60005b8381101561335b5781548189015260018201915060208101905061333c565b838801955050505b50505092915050565b6000613379601f83613f87565b91507f646964206e6f742070726f7669646520746865206d696e696d756d20657468006000830152602082019050919050565b60006133b9603283613f87565b91507f4552433732313a207472616e7366657220746f206e6f6e20455243373231526560008301527f63656976657220696d706c656d656e74657200000000000000000000000000006020830152604082019050919050565b600061341f602683613f87565b91507f4f776e61626c653a206e6577206f776e657220697320746865207a65726f206160008301527f64647265737300000000000000000000000000000000000000000000000000006020830152604082019050919050565b6000613485601c83613f87565b91507f4552433732313a20746f6b656e20616c7265616479206d696e746564000000006000830152602082019050919050565b60006134c5601f83613f87565b91507f63616e2774206164642074686520626c61636b686f6c652061646472657373006000830152602082019050919050565b6000613505601483613f87565b91507f4661696c656420746f2073656e642045746865720000000000000000000000006000830152602082019050919050565b6000613545602483613f87565b91507f4552433732313a207472616e7366657220746f20746865207a65726f2061646460008301527f72657373000000000000000000000000000000000000000000000000000000006020830152604082019050919050565b60006135ab601983613f87565b91507f4552433732313a20617070726f766520746f2063616c6c6572000000000000006000830152602082019050919050565b60006135eb602c83613f87565b91507f4552433732313a206f70657261746f7220717565727920666f72206e6f6e657860008301527f697374656e7420746f6b656e00000000000000000000000000000000000000006020830152604082019050919050565b6000613651603883613f87565b91507f4552433732313a20617070726f76652063616c6c6572206973206e6f74206f7760008301527f6e6572206e6f7220617070726f76656420666f7220616c6c00000000000000006020830152604082019050919050565b60006136b7602a83613f87565b91507f4552433732313a2062616c616e636520717565727920666f7220746865207a6560008301527f726f2061646472657373000000000000000000000000000000000000000000006020830152604082019050919050565b600061371d602983613f87565b91507f4552433732313a206f776e657220717565727920666f72206e6f6e657869737460008301527f656e7420746f6b656e00000000000000000000000000000000000000000000006020830152604082019050919050565b6000613783602083613f87565b91507f4552433732313a206d696e7420746f20746865207a65726f20616464726573736000830152602082019050919050565b60006137c3602b83613f87565b91507f4552433732314d657461646174613a20717565727920666f72206e6f6e65786960008301527f7374656e7420746f6b656e0000000000000000000000000000000000000000006020830152604082019050919050565b6000613829602c83613f87565b91507f4552433732313a20617070726f76656420717565727920666f72206e6f6e657860008301527f697374656e7420746f6b656e00000000000000000000000000000000000000006020830152604082019050919050565b600061388f602083613f87565b91507f4f776e61626c653a2063616c6c6572206973206e6f7420746865206f776e65726000830152602082019050919050565b60006138cf602183613f87565b91507f4e6f74206f6e2074686520746f6b656e20686f6c6465722077686974656c697360008301527f74000000000000000000000000000000000000000000000000000000000000006020830152604082019050919050565b6000613935602983613f87565b91507f4552433732313a207472616e73666572206f6620746f6b656e2074686174206960008301527f73206e6f74206f776e00000000000000000000000000000000000000000000006020830152604082019050919050565b600061399b602183613f87565b91507f4552433732313a20617070726f76616c20746f2063757272656e74206f776e6560008301527f72000000000000000000000000000000000000000000000000000000000000006020830152604082019050919050565b6000613a01601d83613f87565b91507f4e6f74206f6e20746865207265696e646565722077686974656c6973740000006000830152602082019050919050565b6000613a41600083613f7c565b9150600082019050919050565b6000613a5b603183613f87565b91507f4552433732313a207472616e736665722063616c6c6572206973206e6f74206f60008301527f776e6572206e6f7220617070726f7665640000000000000000000000000000006020830152604082019050919050565b613abd816140a9565b82525050565b613ad4613acf826140a9565b614170565b82525050565b6000613ae682866132ed565b9150613af28285613ac3565b602082019150613b0282846132ed565b9150819050949350505050565b6000613b1a82613a34565b9150819050919050565b6000602082019050613b39600083018461325d565b92915050565b6000608082019050613b54600083018761325d565b613b61602083018661325d565b613b6e6040830185613ab4565b8181036060830152613b80818461327b565b905095945050505050565b6000602082019050613ba0600083018461326c565b92915050565b60006020820190508181036000830152613bc081846132b4565b905092915050565b60006020820190508181036000830152613be18161336c565b9050919050565b60006020820190508181036000830152613c01816133ac565b9050919050565b60006020820190508181036000830152613c2181613412565b9050919050565b60006020820190508181036000830152613c4181613478565b9050919050565b60006020820190508181036000830152613c61816134b8565b9050919050565b60006020820190508181036000830152613c81816134f8565b9050919050565b60006020820190508181036000830152613ca181613538565b9050919050565b60006020820190508181036000830152613cc18161359e565b9050919050565b60006020820190508181036000830152613ce1816135de565b9050919050565b60006020820190508181036000830152613d0181613644565b9050919050565b60006020820190508181036000830152613d21816136aa565b9050919050565b60006020820190508181036000830152613d4181613710565b9050919050565b60006020820190508181036000830152613d6181613776565b9050919050565b60006020820190508181036000830152613d81816137b6565b9050919050565b60006020820190508181036000830152613da18161381c565b9050919050565b60006020820190508181036000830152613dc181613882565b9050919050565b60006020820190508181036000830152613de1816138c2565b9050919050565b60006020820190508181036000830152613e0181613928565b9050919050565b60006020820190508181036000830152613e218161398e565b9050919050565b60006020820190508181036000830152613e41816139f4565b9050919050565b60006020820190508181036000830152613e6181613a4e565b9050919050565b6000602082019050613e7d6000830184613ab4565b92915050565b6000604051905081810181811067ffffffffffffffff82111715613eaa57613ea96141d8565b5b8060405250919050565b600067ffffffffffffffff821115613ecf57613ece6141d8565b5b602082029050602081019050919050565b600067ffffffffffffffff821115613efb57613efa6141d8565b5b601f19601f8301169050602081019050919050565b600067ffffffffffffffff821115613f2b57613f2a6141d8565b5b601f19601f8301169050602081019050919050565b60008190508160005260206000209050919050565b600081519050919050565b600081519050919050565b600082825260208201905092915050565b600081905092915050565b600082825260208201905092915050565b600081905092915050565b6000613fae826140a9565b9150613fb9836140a9565b9250827fffffffffffffffffffffffffffffffffffffffffffffffffffffffffffffffff03821115613fee57613fed61417a565b5b828201905092915050565b6000614004826140a9565b915061400f836140a9565b9250828210156140225761402161417a565b5b828203905092915050565b600061403882614089565b9050919050565b600061404a82614089565b9050919050565b60008115159050919050565b60007fffffffff0000000000000000000000000000000000000000000000000000000082169050919050565b600073ffffffffffffffffffffffffffffffffffffffff82169050919050565b6000819050919050565b82818337600083830152505050565b60005b838110156140e05780820151818401526020810190506140c5565b838111156140ef576000848401525b50505050565b6000600282049050600182168061410d57607f821691505b60208210811415614121576141206141a9565b5b50919050565b6000614132826140a9565b91507fffffffffffffffffffffffffffffffffffffffffffffffffffffffffffffffff8214156141655761416461417a565b5b600182019050919050565b6000819050919050565b7f4e487b7100000000000000000000000000000000000000000000000000000000600052601160045260246000fd5b7f4e487b7100000000000000000000000000000000000000000000000000000000600052602260045260246000fd5b7f4e487b7100000000000000000000000000000000000000000000000000000000600052604160045260246000fd5b6000601f19601f8301169050919050565b6142218161402d565b811461422c57600080fd5b50565b6142388161403f565b811461424357600080fd5b50565b61424f81614051565b811461425a57600080fd5b50565b6142668161405d565b811461427157600080fd5b50565b61427d816140a9565b811461428857600080fd5b5056fea26469706673582212209af161022b49a98a9b62e67a16975c4a15ddb125e024ab4b125a2dc68d409ff364736f6c63430008000033",
  "linkReferences": {},
  "deployedLinkReferences": {}
}